{
	"_format": "hh-sol-artifact-1",
	"contractName": "VotePortal",
	"sourceName": "contracts/Vote.sol",
	"abi": [
		{
			"inputs": [],
			"stateMutability": "nonpayable",
			"type": "constructor"
		},
		{
			"anonymous": false,
			"inputs": [
				{
					"indexed": true,
					"internalType": "address",
					"name": "owner",
					"type": "address"
				},
				{
					"indexed": true,
					"internalType": "address",
					"name": "approved",
					"type": "address"
				},
				{
					"indexed": true,
					"internalType": "uint256",
					"name": "tokenId",
					"type": "uint256"
				}
			],
			"name": "Approval",
			"type": "event"
		},
		{
			"anonymous": false,
			"inputs": [
				{
					"indexed": true,
					"internalType": "address",
					"name": "owner",
					"type": "address"
				},
				{
					"indexed": true,
					"internalType": "address",
					"name": "operator",
					"type": "address"
				},
				{
					"indexed": false,
					"internalType": "bool",
					"name": "approved",
					"type": "bool"
				}
			],
			"name": "ApprovalForAll",
			"type": "event"
		},
		{
			"anonymous": false,
			"inputs": [
				{
					"components": [
						{
							"internalType": "string",
							"name": "name",
							"type": "string"
						},
						{
							"internalType": "string",
							"name": "nameOriginal",
							"type": "string"
						},
						{
							"internalType": "string",
							"name": "ideaURL",
							"type": "string"
						},
						{
							"internalType": "uint256",
							"name": "totalVotes",
							"type": "uint256"
						},
						{
							"internalType": "uint256",
							"name": "badVotes",
							"type": "uint256"
						},
						{
							"internalType": "uint256",
							"name": "goodVotes",
							"type": "uint256"
						},
						{
							"internalType": "bool",
							"name": "isFinished",
							"type": "bool"
						},
						{
							"internalType": "bool",
							"name": "isNFT",
							"type": "bool"
						},
						{
							"internalType": "uint256",
							"name": "index",
							"type": "uint256"
						},
						{
							"internalType": "address[]",
							"name": "votedAddresses",
							"type": "address[]"
						}
					],
					"indexed": false,
					"internalType": "struct VotePortal.idea",
					"name": "Idea",
					"type": "tuple"
				}
			],
			"name": "FinishVote",
			"type": "event"
		},
		{
			"anonymous": false,
			"inputs": [
				{
					"indexed": true,
					"internalType": "address",
					"name": "from",
					"type": "address"
				},
				{
					"components": [
						{
							"internalType": "string",
							"name": "name",
							"type": "string"
						},
						{
							"internalType": "string",
							"name": "nameOriginal",
							"type": "string"
						},
						{
							"internalType": "string",
							"name": "ideaURL",
							"type": "string"
						},
						{
							"internalType": "uint256",
							"name": "totalVotes",
							"type": "uint256"
						},
						{
							"internalType": "uint256",
							"name": "badVotes",
							"type": "uint256"
						},
						{
							"internalType": "uint256",
							"name": "goodVotes",
							"type": "uint256"
						},
						{
							"internalType": "bool",
							"name": "isFinished",
							"type": "bool"
						},
						{
							"internalType": "bool",
							"name": "isNFT",
							"type": "bool"
						},
						{
							"internalType": "uint256",
							"name": "index",
							"type": "uint256"
						},
						{
							"internalType": "address[]",
							"name": "votedAddresses",
							"type": "address[]"
						}
					],
					"indexed": false,
					"internalType": "struct VotePortal.idea",
					"name": "Idea",
					"type": "tuple"
				}
			],
			"name": "NewIdea",
			"type": "event"
		},
		{
			"anonymous": false,
			"inputs": [
				{
					"components": [
						{
							"internalType": "string",
							"name": "name",
							"type": "string"
						},
						{
							"internalType": "string",
							"name": "nameOriginal",
							"type": "string"
						},
						{
							"internalType": "string",
							"name": "ideaURL",
							"type": "string"
						},
						{
							"internalType": "uint256",
							"name": "totalVotes",
							"type": "uint256"
						},
						{
							"internalType": "uint256",
							"name": "badVotes",
							"type": "uint256"
						},
						{
							"internalType": "uint256",
							"name": "goodVotes",
							"type": "uint256"
						},
						{
							"internalType": "bool",
							"name": "isFinished",
							"type": "bool"
						},
						{
							"internalType": "bool",
							"name": "isNFT",
							"type": "bool"
						},
						{
							"internalType": "uint256",
							"name": "index",
							"type": "uint256"
						},
						{
							"internalType": "address[]",
							"name": "votedAddresses",
							"type": "address[]"
						}
					],
					"indexed": false,
					"internalType": "struct VotePortal.idea",
					"name": "Idea",
					"type": "tuple"
				}
			],
			"name": "NewNFT",
			"type": "event"
		},
		{
			"anonymous": false,
			"inputs": [
				{
					"indexed": true,
					"internalType": "address",
					"name": "from",
					"type": "address"
				},
				{
					"indexed": true,
					"internalType": "address",
					"name": "to",
					"type": "address"
				},
				{
					"indexed": true,
					"internalType": "uint256",
					"name": "tokenId",
					"type": "uint256"
				}
			],
			"name": "Transfer",
			"type": "event"
		},
		{
			"anonymous": false,
			"inputs": [
				{
					"indexed": true,
					"internalType": "address",
					"name": "from",
					"type": "address"
				},
				{
					"components": [
						{
							"internalType": "string",
							"name": "name",
							"type": "string"
						},
						{
							"internalType": "string",
							"name": "nameOriginal",
							"type": "string"
						},
						{
							"internalType": "string",
							"name": "ideaURL",
							"type": "string"
						},
						{
							"internalType": "uint256",
							"name": "totalVotes",
							"type": "uint256"
						},
						{
							"internalType": "uint256",
							"name": "badVotes",
							"type": "uint256"
						},
						{
							"internalType": "uint256",
							"name": "goodVotes",
							"type": "uint256"
						},
						{
							"internalType": "bool",
							"name": "isFinished",
							"type": "bool"
						},
						{
							"internalType": "bool",
							"name": "isNFT",
							"type": "bool"
						},
						{
							"internalType": "uint256",
							"name": "index",
							"type": "uint256"
						},
						{
							"internalType": "address[]",
							"name": "votedAddresses",
							"type": "address[]"
						}
					],
					"indexed": false,
					"internalType": "struct VotePortal.idea",
					"name": "Idea",
					"type": "tuple"
				}
			],
			"name": "VoteSomething",
			"type": "event"
		},
		{
			"inputs": [
				{
					"internalType": "string",
					"name": "_name",
					"type": "string"
				},
				{
					"internalType": "string",
					"name": "_ideaURL",
					"type": "string"
				},
				{
					"internalType": "string",
					"name": "_originalName",
					"type": "string"
				}
			],
			"name": "addIdea",
			"outputs": [],
			"stateMutability": "nonpayable",
			"type": "function"
		},
		{
			"inputs": [
				{
					"internalType": "address",
					"name": "to",
					"type": "address"
				},
				{
					"internalType": "uint256",
					"name": "tokenId",
					"type": "uint256"
				}
			],
			"name": "approve",
			"outputs": [],
			"stateMutability": "nonpayable",
			"type": "function"
		},
		{
			"inputs": [
				{
					"internalType": "address",
					"name": "owner",
					"type": "address"
				}
			],
			"name": "balanceOf",
			"outputs": [
				{
					"internalType": "uint256",
					"name": "",
					"type": "uint256"
				}
			],
			"stateMutability": "view",
			"type": "function"
		},
		{
			"inputs": [],
			"name": "getAllIdeas",
			"outputs": [
				{
					"components": [
						{
							"internalType": "string",
							"name": "name",
							"type": "string"
						},
						{
							"internalType": "string",
							"name": "nameOriginal",
							"type": "string"
						},
						{
							"internalType": "string",
							"name": "ideaURL",
							"type": "string"
						},
						{
							"internalType": "uint256",
							"name": "totalVotes",
							"type": "uint256"
						},
						{
							"internalType": "uint256",
							"name": "badVotes",
							"type": "uint256"
						},
						{
							"internalType": "uint256",
							"name": "goodVotes",
							"type": "uint256"
						},
						{
							"internalType": "bool",
							"name": "isFinished",
							"type": "bool"
						},
						{
							"internalType": "bool",
							"name": "isNFT",
							"type": "bool"
						},
						{
							"internalType": "uint256",
							"name": "index",
							"type": "uint256"
						},
						{
							"internalType": "address[]",
							"name": "votedAddresses",
							"type": "address[]"
						}
					],
					"internalType": "struct VotePortal.idea[]",
					"name": "",
					"type": "tuple[]"
				}
			],
			"stateMutability": "view",
			"type": "function"
		},
		{
			"inputs": [],
			"name": "getAllNfts",
			"outputs": [
				{
					"components": [
						{
							"internalType": "string",
							"name": "name",
							"type": "string"
						},
						{
							"internalType": "string",
							"name": "ideaURL",
							"type": "string"
						},
						{
							"internalType": "uint256",
							"name": "index",
							"type": "uint256"
						},
						{
							"internalType": "string",
							"name": "nameOriginal",
							"type": "string"
						}
					],
					"internalType": "struct VotePortal.ideaNFT[]",
					"name": "",
					"type": "tuple[]"
				}
			],
			"stateMutability": "view",
			"type": "function"
		},
		{
			"inputs": [
				{
					"internalType": "uint256",
					"name": "tokenId",
					"type": "uint256"
				}
			],
			"name": "getApproved",
			"outputs": [
				{
					"internalType": "address",
					"name": "",
					"type": "address"
				}
			],
			"stateMutability": "view",
			"type": "function"
		},
		{
			"inputs": [
				{
					"internalType": "uint256",
					"name": "_index",
					"type": "uint256"
				}
			],
			"name": "getIdea",
			"outputs": [
				{
					"components": [
						{
							"internalType": "string",
							"name": "name",
							"type": "string"
						},
						{
							"internalType": "string",
							"name": "nameOriginal",
							"type": "string"
						},
						{
							"internalType": "string",
							"name": "ideaURL",
							"type": "string"
						},
						{
							"internalType": "uint256",
							"name": "totalVotes",
							"type": "uint256"
						},
						{
							"internalType": "uint256",
							"name": "badVotes",
							"type": "uint256"
						},
						{
							"internalType": "uint256",
							"name": "goodVotes",
							"type": "uint256"
						},
						{
							"internalType": "bool",
							"name": "isFinished",
							"type": "bool"
						},
						{
							"internalType": "bool",
							"name": "isNFT",
							"type": "bool"
						},
						{
							"internalType": "uint256",
							"name": "index",
							"type": "uint256"
						},
						{
							"internalType": "address[]",
							"name": "votedAddresses",
							"type": "address[]"
						}
					],
					"internalType": "struct VotePortal.idea",
					"name": "",
					"type": "tuple"
				}
			],
			"stateMutability": "view",
			"type": "function"
		},
		{
			"inputs": [
				{
					"internalType": "address",
					"name": "owner",
					"type": "address"
				},
				{
					"internalType": "address",
					"name": "operator",
					"type": "address"
				}
			],
			"name": "isApprovedForAll",
			"outputs": [
				{
					"internalType": "bool",
					"name": "",
					"type": "bool"
				}
			],
			"stateMutability": "view",
			"type": "function"
		},
		{
			"inputs": [
				{
					"internalType": "string",
					"name": "name",
					"type": "string"
				},
				{
					"internalType": "string",
					"name": "ideaURI",
					"type": "string"
				},
				{
					"internalType": "uint256",
					"name": "idea_index",
					"type": "uint256"
				},
				{
					"internalType": "string",
					"name": "name_original",
					"type": "string"
				}
			],
			"name": "mintIpfsNFT",
			"outputs": [],
			"stateMutability": "nonpayable",
			"type": "function"
		},
		{
			"inputs": [],
			"name": "minter",
			"outputs": [
				{
					"internalType": "address",
					"name": "",
					"type": "address"
				}
			],
			"stateMutability": "view",
			"type": "function"
		},
		{
			"inputs": [],
			"name": "name",
			"outputs": [
				{
					"internalType": "string",
					"name": "",
					"type": "string"
				}
			],
			"stateMutability": "view",
			"type": "function"
		},
		{
			"inputs": [
				{
					"internalType": "uint256",
					"name": "tokenId",
					"type": "uint256"
				}
			],
			"name": "ownerOf",
			"outputs": [
				{
					"internalType": "address",
					"name": "",
					"type": "address"
				}
			],
			"stateMutability": "view",
			"type": "function"
		},
		{
			"inputs": [
				{
					"internalType": "address",
					"name": "from",
					"type": "address"
				},
				{
					"internalType": "address",
					"name": "to",
					"type": "address"
				},
				{
					"internalType": "uint256",
					"name": "tokenId",
					"type": "uint256"
				}
			],
			"name": "safeTransferFrom",
			"outputs": [],
			"stateMutability": "nonpayable",
			"type": "function"
		},
		{
			"inputs": [
				{
					"internalType": "address",
					"name": "from",
					"type": "address"
				},
				{
					"internalType": "address",
					"name": "to",
					"type": "address"
				},
				{
					"internalType": "uint256",
					"name": "tokenId",
					"type": "uint256"
				},
				{
					"internalType": "bytes",
					"name": "data",
					"type": "bytes"
				}
			],
			"name": "safeTransferFrom",
			"outputs": [],
			"stateMutability": "nonpayable",
			"type": "function"
		},
		{
			"inputs": [
				{
					"internalType": "address",
					"name": "operator",
					"type": "address"
				},
				{
					"internalType": "bool",
					"name": "approved",
					"type": "bool"
				}
			],
			"name": "setApprovalForAll",
			"outputs": [],
			"stateMutability": "nonpayable",
			"type": "function"
		},
		{
			"inputs": [
				{
					"internalType": "bytes4",
					"name": "interfaceId",
					"type": "bytes4"
				}
			],
			"name": "supportsInterface",
			"outputs": [
				{
					"internalType": "bool",
					"name": "",
					"type": "bool"
				}
			],
			"stateMutability": "view",
			"type": "function"
		},
		{
			"inputs": [],
			"name": "symbol",
			"outputs": [
				{
					"internalType": "string",
					"name": "",
					"type": "string"
				}
			],
			"stateMutability": "view",
			"type": "function"
		},
		{
			"inputs": [
				{
					"internalType": "uint256",
					"name": "_tokenId",
					"type": "uint256"
				}
			],
			"name": "tokenURI",
			"outputs": [
				{
					"internalType": "string",
					"name": "",
					"type": "string"
				}
			],
			"stateMutability": "view",
			"type": "function"
		},
		{
			"inputs": [
				{
					"internalType": "address",
					"name": "from",
					"type": "address"
				},
				{
					"internalType": "address",
					"name": "to",
					"type": "address"
				},
				{
					"internalType": "uint256",
					"name": "tokenId",
					"type": "uint256"
				}
			],
			"name": "transferFrom",
			"outputs": [],
			"stateMutability": "nonpayable",
			"type": "function"
		},
		{
			"inputs": [
				{
					"internalType": "uint256",
					"name": "idea_index",
					"type": "uint256"
				},
				{
					"internalType": "bool",
					"name": "isGood",
					"type": "bool"
				}
			],
			"name": "voteIdea",
			"outputs": [],
			"stateMutability": "nonpayable",
			"type": "function"
		}
	],
	"bytecode": "0x60806040523480156200001157600080fd5b506040518060400160405280600381526020017f4e465400000000000000000000000000000000000000000000000000000000008152506040518060400160405280600381526020017f6e6674000000000000000000000000000000000000000000000000000000000081525081600090805190602001906200009692919062000210565b508060019080519060200190620000af92919062000210565b505050620000fd6040518060400160405280601881526020017f54686973206973206d79204e465420636f6e74726163742e00000000000000008152506200014460201b62001a611760201c565b33600860006101000a81548173ffffffffffffffffffffffffffffffffffffffff021916908373ffffffffffffffffffffffffffffffffffffffff160217905550620003ed565b620001e4816040516024016200015b919062000364565b6040516020818303038152906040527f41304fac000000000000000000000000000000000000000000000000000000007bffffffffffffffffffffffffffffffffffffffffffffffffffffffff19166020820180517bffffffffffffffffffffffffffffffffffffffffffffffffffffffff8381831617835250505050620001e760201b60201c565b50565b60008151905060006a636f6e736f6c652e6c6f679050602083016000808483855afa5050505050565b8280546200021e90620003b7565b90600052602060002090601f0160209004810192826200024257600085556200028e565b82601f106200025d57805160ff19168380011785556200028e565b828001600101855582156200028e579182015b828111156200028d57825182559160200191906001019062000270565b5b5090506200029d9190620002a1565b5090565b5b80821115620002bc576000816000905550600101620002a2565b5090565b600081519050919050565b600082825260208201905092915050565b60005b83811015620002fc578082015181840152602081019050620002df565b838111156200030c576000848401525b50505050565b6000601f19601f8301169050919050565b60006200033082620002c0565b6200033c8185620002cb565b93506200034e818560208601620002dc565b620003598162000312565b840191505092915050565b6000602082019050818103600083015262000380818462000323565b905092915050565b7f4e487b7100000000000000000000000000000000000000000000000000000000600052602260045260246000fd5b60006002820490506001821680620003d057607f821691505b60208210811415620003e757620003e662000388565b5b50919050565b614db680620003fd6000396000f3fe608060405234801561001057600080fd5b506004361061012c5760003560e01c80636352211e116100ad578063b88d4fde11610071578063b88d4fde14610343578063c87b56dd1461035f578063e985e9c51461038f578063f10caac7146103bf578063f80e7108146103db5761012c565b80636352211e1461028b57806370a08231146102bb578063732e8d73146102eb57806395d89b4114610309578063a22cb465146103275761012c565b80631dee3793116100f45780631dee3793146101e957806323b872dd146102055780633a9e6af01461022157806342842e0e1461023f57806344de6b2f1461025b5761012c565b806301ffc9a71461013157806306fdde0314610161578063075461721461017f578063081812fc1461019d578063095ea7b3146101cd575b600080fd5b61014b60048036038101906101469190612ec5565b6103f7565b6040516101589190612f0d565b60405180910390f35b6101696104d9565b6040516101769190612fc1565b60405180910390f35b61018761056b565b6040516101949190613024565b60405180910390f35b6101b760048036038101906101b29190613075565b610591565b6040516101c49190613024565b60405180910390f35b6101e760048036038101906101e291906130ce565b6105d7565b005b61020360048036038101906101fe9190613243565b6106ef565b005b61021f600480360381019061021a91906132ea565b610932565b005b610229610992565b6040516102369190613614565b60405180910390f35b610259600480360381019061025491906132ea565b610c94565b005b61027560048036038101906102709190613075565b610cb4565b6040516102829190613725565b60405180910390f35b6102a560048036038101906102a09190613075565b610f93565b6040516102b29190613024565b60405180910390f35b6102d560048036038101906102d09190613747565b611045565b6040516102e29190613783565b60405180910390f35b6102f36110fd565b60405161030091906138d1565b60405180910390f35b61031161131c565b60405161031e9190612fc1565b60405180910390f35b610341600480360381019061033c919061391f565b6113ae565b005b61035d60048036038101906103589190613a00565b6113c4565b005b61037960048036038101906103749190613075565b611426565b6040516103869190612fc1565b60405180910390f35b6103a960048036038101906103a49190613a83565b6114fc565b6040516103b69190612f0d565b60405180910390f35b6103d960048036038101906103d49190613ac3565b611590565b005b6103f560048036038101906103f09190613b03565b6118fe565b005b60007f80ac58cd000000000000000000000000000000000000000000000000000000007bffffffffffffffffffffffffffffffffffffffffffffffffffffffff1916827bffffffffffffffffffffffffffffffffffffffffffffffffffffffff191614806104c257507f5b5e139f000000000000000000000000000000000000000000000000000000007bffffffffffffffffffffffffffffffffffffffffffffffffffffffff1916827bffffffffffffffffffffffffffffffffffffffffffffffffffffffff1916145b806104d257506104d182611afa565b5b9050919050565b6060600080546104e890613bed565b80601f016020809104026020016040519081016040528092919081815260200182805461051490613bed565b80156105615780601f1061053657610100808354040283529160200191610561565b820191906000526020600020905b81548152906001019060200180831161054457829003601f168201915b5050505050905090565b600860009054906101000a900473ffffffffffffffffffffffffffffffffffffffff1681565b600061059c82611b64565b6004600083815260200190815260200160002060009054906101000a900473ffffffffffffffffffffffffffffffffffffffff169050919050565b60006105e282610f93565b90508073ffffffffffffffffffffffffffffffffffffffff168373ffffffffffffffffffffffffffffffffffffffff161415610653576040517f08c379a000000000000000000000000000000000000000000000000000000000815260040161064a90613c91565b60405180910390fd5b8073ffffffffffffffffffffffffffffffffffffffff16610672611baf565b73ffffffffffffffffffffffffffffffffffffffff1614806106a157506106a08161069b611baf565b6114fc565b5b6106e0576040517f08c379a00000000000000000000000000000000000000000000000000000000081526004016106d790613d23565b60405180910390fd5b6106ea8383611bb7565b505050565b600b60405180610140016040528085815260200183815260200184815260200160008152602001600081526020016000815260200160001515815260200160001515815260200160008152602001600067ffffffffffffffff81111561075857610757613118565b5b6040519080825280602002602001820160405280156107865781602001602082028036833780820191505090505b50815250908060018154018082558091505060019003906000526020600020906009020160009091909190915060008201518160000190805190602001906107cf929190612cd5565b5060208201518160010190805190602001906107ec929190612cd5565b506040820151816002019080519060200190610809929190612cd5565b50606082015181600301556080820151816004015560a0820151816005015560c08201518160060160006101000a81548160ff02191690831515021790555060e08201518160060160016101000a81548160ff0219169083151502179055506101008201518160070155610120820151816008019080519060200190610890929190612d5b565b5050503373ffffffffffffffffffffffffffffffffffffffff167f98d624c7a274ba9d5e71477aa42dc34175eb13f1efe7ec2d1e2148609fab00c0600b6001600b805490506108df9190613d72565b815481106108f0576108ef613da6565b5b906000526020600020906009020160405161090b91906140ee565b60405180910390a26001600960008282546109269190614110565b92505081905550505050565b61094361093d611baf565b82611c70565b610982576040517f08c379a0000000000000000000000000000000000000000000000000000000008152600401610979906141d8565b60405180910390fd5b61098d838383611d05565b505050565b6060600b805480602002602001604051908101604052809291908181526020016000905b82821015610c8b5783829060005260206000209060090201604051806101400160405290816000820180546109ea90613bed565b80601f0160208091040260200160405190810160405280929190818152602001828054610a1690613bed565b8015610a635780601f10610a3857610100808354040283529160200191610a63565b820191906000526020600020905b815481529060010190602001808311610a4657829003601f168201915b50505050508152602001600182018054610a7c90613bed565b80601f0160208091040260200160405190810160405280929190818152602001828054610aa890613bed565b8015610af55780601f10610aca57610100808354040283529160200191610af5565b820191906000526020600020905b815481529060010190602001808311610ad857829003601f168201915b50505050508152602001600282018054610b0e90613bed565b80601f0160208091040260200160405190810160405280929190818152602001828054610b3a90613bed565b8015610b875780601f10610b5c57610100808354040283529160200191610b87565b820191906000526020600020905b815481529060010190602001808311610b6a57829003601f168201915b505050505081526020016003820154815260200160048201548152602001600582015481526020016006820160009054906101000a900460ff161515151581526020016006820160019054906101000a900460ff161515151581526020016007820154815260200160088201805480602002602001604051908101604052809291908181526020018280548015610c7357602002820191906000526020600020905b8160009054906101000a900473ffffffffffffffffffffffffffffffffffffffff1673ffffffffffffffffffffffffffffffffffffffff1681526020019060010190808311610c29575b505050505081525050815260200190600101906109b6565b50505050905090565b610caf838383604051806020016040528060008152506113c4565b505050565b610cbc612de5565b600b8281548110610cd057610ccf613da6565b5b906000526020600020906009020160405180610140016040529081600082018054610cfa90613bed565b80601f0160208091040260200160405190810160405280929190818152602001828054610d2690613bed565b8015610d735780601f10610d4857610100808354040283529160200191610d73565b820191906000526020600020905b815481529060010190602001808311610d5657829003601f168201915b50505050508152602001600182018054610d8c90613bed565b80601f0160208091040260200160405190810160405280929190818152602001828054610db890613bed565b8015610e055780601f10610dda57610100808354040283529160200191610e05565b820191906000526020600020905b815481529060010190602001808311610de857829003601f168201915b50505050508152602001600282018054610e1e90613bed565b80601f0160208091040260200160405190810160405280929190818152602001828054610e4a90613bed565b8015610e975780601f10610e6c57610100808354040283529160200191610e97565b820191906000526020600020905b815481529060010190602001808311610e7a57829003601f168201915b505050505081526020016003820154815260200160048201548152602001600582015481526020016006820160009054906101000a900460ff161515151581526020016006820160019054906101000a900460ff161515151581526020016007820154815260200160088201805480602002602001604051908101604052809291908181526020018280548015610f8357602002820191906000526020600020905b8160009054906101000a900473ffffffffffffffffffffffffffffffffffffffff1673ffffffffffffffffffffffffffffffffffffffff1681526020019060010190808311610f39575b5050505050815250509050919050565b6000806002600084815260200190815260200160002060009054906101000a900473ffffffffffffffffffffffffffffffffffffffff169050600073ffffffffffffffffffffffffffffffffffffffff168173ffffffffffffffffffffffffffffffffffffffff16141561103c576040517f08c379a000000000000000000000000000000000000000000000000000000000815260040161103390614244565b60405180910390fd5b80915050919050565b60008073ffffffffffffffffffffffffffffffffffffffff168273ffffffffffffffffffffffffffffffffffffffff1614156110b6576040517f08c379a00000000000000000000000000000000000000000000000000000000081526004016110ad906142d6565b60405180910390fd5b600360008373ffffffffffffffffffffffffffffffffffffffff1673ffffffffffffffffffffffffffffffffffffffff168152602001908152602001600020549050919050565b6060600a805480602002602001604051908101604052809291908181526020016000905b82821015611313578382906000526020600020906004020160405180608001604052908160008201805461115490613bed565b80601f016020809104026020016040519081016040528092919081815260200182805461118090613bed565b80156111cd5780601f106111a2576101008083540402835291602001916111cd565b820191906000526020600020905b8154815290600101906020018083116111b057829003601f168201915b505050505081526020016001820180546111e690613bed565b80601f016020809104026020016040519081016040528092919081815260200182805461121290613bed565b801561125f5780601f106112345761010080835404028352916020019161125f565b820191906000526020600020905b81548152906001019060200180831161124257829003601f168201915b505050505081526020016002820154815260200160038201805461128290613bed565b80601f01602080910402602001604051908101604052809291908181526020018280546112ae90613bed565b80156112fb5780601f106112d0576101008083540402835291602001916112fb565b820191906000526020600020905b8154815290600101906020018083116112de57829003601f168201915b50505050508152505081526020019060010190611121565b50505050905090565b60606001805461132b90613bed565b80601f016020809104026020016040519081016040528092919081815260200182805461135790613bed565b80156113a45780601f10611379576101008083540402835291602001916113a4565b820191906000526020600020905b81548152906001019060200180831161138757829003601f168201915b5050505050905090565b6113c06113b9611baf565b8383611f6c565b5050565b6113d56113cf611baf565b83611c70565b611414576040517f08c379a000000000000000000000000000000000000000000000000000000000815260040161140b906141d8565b60405180910390fd5b611420848484846120d9565b50505050565b606060006114cc600a848154811061144157611440613da6565b5b906000526020600020906004020160000161145b85612135565b600a868154811061146f5761146e613da6565b5b9060005260206000209060040201600101600a878154811061149457611493613da6565b5b90600052602060002090600402016003016040516020016114b89493929190614611565b604051602081830303815290604052612296565b90506000816040516020016114e191906146d2565b60405160208183030381529060405290508092505050919050565b6000600560008473ffffffffffffffffffffffffffffffffffffffff1673ffffffffffffffffffffffffffffffffffffffff16815260200190815260200160002060008373ffffffffffffffffffffffffffffffffffffffff1673ffffffffffffffffffffffffffffffffffffffff16815260200190815260200160002060009054906101000a900460ff16905092915050565b600b82815481106115a4576115a3613da6565b5b906000526020600020906009020160060160009054906101000a900460ff1615611603576040517f08c379a00000000000000000000000000000000000000000000000000000000081526004016115fa90614740565b60405180910390fd5b600860009054906101000a900473ffffffffffffffffffffffffffffffffffffffff1673ffffffffffffffffffffffffffffffffffffffff163373ffffffffffffffffffffffffffffffffffffffff161415611667576116628261240f565b6118fa565b60005b600b838154811061167e5761167d613da6565b5b90600052602060002090600902016008018054905081101561177d573373ffffffffffffffffffffffffffffffffffffffff16600b84815481106116c5576116c4613da6565b5b906000526020600020906009020160080182815481106116e8576116e7613da6565b5b9060005260206000200160009054906101000a900473ffffffffffffffffffffffffffffffffffffffff1673ffffffffffffffffffffffffffffffffffffffff16141561176a576040517f08c379a0000000000000000000000000000000000000000000000000000000008152600401611761906147ac565b60405180910390fd5b8080611775906147cc565b91505061166a565b5080156117c6576001600b838154811061179a57611799613da6565b5b906000526020600020906009020160050160008282546117ba9190614110565b92505081905550611804565b6001600b83815481106117dc576117db613da6565b5b906000526020600020906009020160040160008282546117fc9190614110565b925050819055505b3373ffffffffffffffffffffffffffffffffffffffff167fc5dbb75f25b29ff52fe79750beac78eea6510b01c5cf25b68239ccc0ab862541600b84815481106118505761184f613da6565b5b906000526020600020906009020160405161186b91906140ee565b60405180910390a2600b828154811061188757611886613da6565b5b9060005260206000209060090201600801339080600181540180825580915050600190039060005260206000200160009091909190916101000a81548173ffffffffffffffffffffffffffffffffffffffff021916908373ffffffffffffffffffffffffffffffffffffffff1602179055505b5050565b600061190a6007612766565b90506119163382612774565b600a6040518060800160405280878152602001868152602001838152602001848152509080600181540180825580915050600190039060005260206000209060040201600090919091909150600082015181600001908051906020019061197e929190612cd5565b50602082015181600101908051906020019061199b929190612cd5565b506040820151816002015560608201518160030190805190602001906119c2929190612cd5565b5050506001600b84815481106119db576119da613da6565b5b906000526020600020906009020160060160016101000a81548160ff02191690831515021790555080600b8481548110611a1857611a17613da6565b5b906000526020600020906009020160070181905550611a50604051806060016040528060258152602001614d1c602591398233612792565b611a5a6007612831565b5050505050565b611af781604051602401611a759190612fc1565b6040516020818303038152906040527f41304fac000000000000000000000000000000000000000000000000000000007bffffffffffffffffffffffffffffffffffffffffffffffffffffffff19166020820180517bffffffffffffffffffffffffffffffffffffffffffffffffffffffff8381831617835250505050612847565b50565b60007f01ffc9a7000000000000000000000000000000000000000000000000000000007bffffffffffffffffffffffffffffffffffffffffffffffffffffffff1916827bffffffffffffffffffffffffffffffffffffffffffffffffffffffff1916149050919050565b611b6d81612870565b611bac576040517f08c379a0000000000000000000000000000000000000000000000000000000008152600401611ba390614244565b60405180910390fd5b50565b600033905090565b816004600083815260200190815260200160002060006101000a81548173ffffffffffffffffffffffffffffffffffffffff021916908373ffffffffffffffffffffffffffffffffffffffff160217905550808273ffffffffffffffffffffffffffffffffffffffff16611c2a83610f93565b73ffffffffffffffffffffffffffffffffffffffff167f8c5be1e5ebec7d5bd14f71427d1e84f3dd0314c0f7b2291e5b200ac8c7c3b92560405160405180910390a45050565b600080611c7c83610f93565b90508073ffffffffffffffffffffffffffffffffffffffff168473ffffffffffffffffffffffffffffffffffffffff161480611cbe5750611cbd81856114fc565b5b80611cfc57508373ffffffffffffffffffffffffffffffffffffffff16611ce484610591565b73ffffffffffffffffffffffffffffffffffffffff16145b91505092915050565b8273ffffffffffffffffffffffffffffffffffffffff16611d2582610f93565b73ffffffffffffffffffffffffffffffffffffffff1614611d7b576040517f08c379a0000000000000000000000000000000000000000000000000000000008152600401611d7290614887565b60405180910390fd5b600073ffffffffffffffffffffffffffffffffffffffff168273ffffffffffffffffffffffffffffffffffffffff161415611deb576040517f08c379a0000000000000000000000000000000000000000000000000000000008152600401611de290614919565b60405180910390fd5b611df68383836128dc565b611e01600082611bb7565b6001600360008573ffffffffffffffffffffffffffffffffffffffff1673ffffffffffffffffffffffffffffffffffffffff1681526020019081526020016000206000828254611e519190613d72565b925050819055506001600360008473ffffffffffffffffffffffffffffffffffffffff1673ffffffffffffffffffffffffffffffffffffffff1681526020019081526020016000206000828254611ea89190614110565b92505081905550816002600083815260200190815260200160002060006101000a81548173ffffffffffffffffffffffffffffffffffffffff021916908373ffffffffffffffffffffffffffffffffffffffff160217905550808273ffffffffffffffffffffffffffffffffffffffff168473ffffffffffffffffffffffffffffffffffffffff167fddf252ad1be2c89b69c2b068fc378daa952ba7f163c4a11628f55a4df523b3ef60405160405180910390a4611f678383836128e1565b505050565b8173ffffffffffffffffffffffffffffffffffffffff168373ffffffffffffffffffffffffffffffffffffffff161415611fdb576040517f08c379a0000000000000000000000000000000000000000000000000000000008152600401611fd290614985565b60405180910390fd5b80600560008573ffffffffffffffffffffffffffffffffffffffff1673ffffffffffffffffffffffffffffffffffffffff16815260200190815260200160002060008473ffffffffffffffffffffffffffffffffffffffff1673ffffffffffffffffffffffffffffffffffffffff16815260200190815260200160002060006101000a81548160ff0219169083151502179055508173ffffffffffffffffffffffffffffffffffffffff168373ffffffffffffffffffffffffffffffffffffffff167f17307eab39ab6107e8899845ad3d59bd9653f200f220920489ca2b5937696c31836040516120cc9190612f0d565b60405180910390a3505050565b6120e4848484611d05565b6120f0848484846128e6565b61212f576040517f08c379a000000000000000000000000000000000000000000000000000000000815260040161212690614a17565b60405180910390fd5b50505050565b6060600082141561217d576040518060400160405280600181526020017f30000000000000000000000000000000000000000000000000000000000000008152509050612291565b600082905060005b600082146121af578080612198906147cc565b915050600a826121a89190614a66565b9150612185565b60008167ffffffffffffffff8111156121cb576121ca613118565b5b6040519080825280601f01601f1916602001820160405280156121fd5781602001600182028036833780820191505090505b5090505b6000851461228a576001826122169190613d72565b9150600a856122259190614a97565b60306122319190614110565b60f81b81838151811061224757612246613da6565b5b60200101907effffffffffffffffffffffffffffffffffffffffffffffffffffffffffffff1916908160001a905350600a856122839190614a66565b9450612201565b8093505050505b919050565b60606000825114156122b95760405180602001604052806000815250905061240a565b6000604051806060016040528060408152602001614d4160409139905060006003600285516122e89190614110565b6122f29190614a66565b60046122fe9190614ac8565b9050600060208261230f9190614110565b67ffffffffffffffff81111561232857612327613118565b5b6040519080825280601f01601f19166020018201604052801561235a5781602001600182028036833780820191505090505b509050818152600183018586518101602084015b818310156123c9576003830192508251603f8160121c168501518253600182019150603f81600c1c168501518253600182019150603f8160061c168501518253600182019150603f811685015182536001820191505061236e565b6003895106600181146123e357600281146123f3576123fe565b613d3d60f01b60028303526123fe565b603d60f81b60018303525b50505050508093505050505b919050565b6001600b828154811061242557612424613da6565b5b906000526020600020906009020160060160006101000a81548160ff0219169083151502179055507f85fc44d6ed214f8ab334200d41125bfca7cbc3bc5ae62e3562cdb65aea20126a600b828154811061248257612481613da6565b5b906000526020600020906009020160405161249d91906140ee565b60405180910390a1600b81815481106124b9576124b8613da6565b5b906000526020600020906009020160040154600b82815481106124df576124de613da6565b5b90600052602060002090600902016005015411156127635761270a600b828154811061250e5761250d613da6565b5b9060005260206000209060090201600001805461252a90613bed565b80601f016020809104026020016040519081016040528092919081815260200182805461255690613bed565b80156125a35780601f10612578576101008083540402835291602001916125a3565b820191906000526020600020905b81548152906001019060200180831161258657829003601f168201915b5050505050600b83815481106125bc576125bb613da6565b5b906000526020600020906009020160020180546125d890613bed565b80601f016020809104026020016040519081016040528092919081815260200182805461260490613bed565b80156126515780601f1061262657610100808354040283529160200191612651565b820191906000526020600020905b81548152906001019060200180831161263457829003601f168201915b505050505083600b858154811061266b5761266a613da6565b5b9060005260206000209060090201600101805461268790613bed565b80601f01602080910402602001604051908101604052809291908181526020018280546126b390613bed565b80156127005780601f106126d557610100808354040283529160200191612700565b820191906000526020600020905b8154815290600101906020018083116126e357829003601f168201915b50505050506118fe565b7f59de40128ae33fb91268ddf5a4d68ec0d2f748d1a995c21320bf724c1b6bfc91600b828154811061273f5761273e613da6565b5b906000526020600020906009020160405161275a91906140ee565b60405180910390a15b50565b600081600001549050919050565b61278e828260405180602001604052806000815250612a7d565b5050565b61282c8383836040516024016127aa93929190614b22565b6040516020818303038152906040527f1c7ec448000000000000000000000000000000000000000000000000000000007bffffffffffffffffffffffffffffffffffffffffffffffffffffffff19166020820180517bffffffffffffffffffffffffffffffffffffffffffffffffffffffff8381831617835250505050612847565b505050565b6001816000016000828254019250508190555050565b60008151905060006a636f6e736f6c652e6c6f679050602083016000808483855afa5050505050565b60008073ffffffffffffffffffffffffffffffffffffffff166002600084815260200190815260200160002060009054906101000a900473ffffffffffffffffffffffffffffffffffffffff1673ffffffffffffffffffffffffffffffffffffffff1614159050919050565b505050565b505050565b60006129078473ffffffffffffffffffffffffffffffffffffffff16612ad8565b15612a70578373ffffffffffffffffffffffffffffffffffffffff1663150b7a02612930611baf565b8786866040518563ffffffff1660e01b81526004016129529493929190614bb5565b602060405180830381600087803b15801561296c57600080fd5b505af192505050801561299d57506040513d601f19601f8201168201806040525081019061299a9190614c16565b60015b612a20573d80600081146129cd576040519150601f19603f3d011682016040523d82523d6000602084013e6129d2565b606091505b50600081511415612a18576040517f08c379a0000000000000000000000000000000000000000000000000000000008152600401612a0f90614a17565b60405180910390fd5b805181602001fd5b63150b7a0260e01b7bffffffffffffffffffffffffffffffffffffffffffffffffffffffff1916817bffffffffffffffffffffffffffffffffffffffffffffffffffffffff191614915050612a75565b600190505b949350505050565b612a878383612afb565b612a9460008484846128e6565b612ad3576040517f08c379a0000000000000000000000000000000000000000000000000000000008152600401612aca90614a17565b60405180910390fd5b505050565b6000808273ffffffffffffffffffffffffffffffffffffffff163b119050919050565b600073ffffffffffffffffffffffffffffffffffffffff168273ffffffffffffffffffffffffffffffffffffffff161415612b6b576040517f08c379a0000000000000000000000000000000000000000000000000000000008152600401612b6290614c8f565b60405180910390fd5b612b7481612870565b15612bb4576040517f08c379a0000000000000000000000000000000000000000000000000000000008152600401612bab90614cfb565b60405180910390fd5b612bc0600083836128dc565b6001600360008473ffffffffffffffffffffffffffffffffffffffff1673ffffffffffffffffffffffffffffffffffffffff1681526020019081526020016000206000828254612c109190614110565b92505081905550816002600083815260200190815260200160002060006101000a81548173ffffffffffffffffffffffffffffffffffffffff021916908373ffffffffffffffffffffffffffffffffffffffff160217905550808273ffffffffffffffffffffffffffffffffffffffff16600073ffffffffffffffffffffffffffffffffffffffff167fddf252ad1be2c89b69c2b068fc378daa952ba7f163c4a11628f55a4df523b3ef60405160405180910390a4612cd1600083836128e1565b5050565b828054612ce190613bed565b90600052602060002090601f016020900481019282612d035760008555612d4a565b82601f10612d1c57805160ff1916838001178555612d4a565b82800160010185558215612d4a579182015b82811115612d49578251825591602001919060010190612d2e565b5b509050612d579190612e3c565b5090565b828054828255906000526020600020908101928215612dd4579160200282015b82811115612dd35782518260006101000a81548173ffffffffffffffffffffffffffffffffffffffff021916908373ffffffffffffffffffffffffffffffffffffffff16021790555091602001919060010190612d7b565b5b509050612de19190612e3c565b5090565b60405180610140016040528060608152602001606081526020016060815260200160008152602001600081526020016000815260200160001515815260200160001515815260200160008152602001606081525090565b5b80821115612e55576000816000905550600101612e3d565b5090565b6000604051905090565b600080fd5b600080fd5b60007fffffffff0000000000000000000000000000000000000000000000000000000082169050919050565b612ea281612e6d565b8114612ead57600080fd5b50565b600081359050612ebf81612e99565b92915050565b600060208284031215612edb57612eda612e63565b5b6000612ee984828501612eb0565b91505092915050565b60008115159050919050565b612f0781612ef2565b82525050565b6000602082019050612f226000830184612efe565b92915050565b600081519050919050565b600082825260208201905092915050565b60005b83811015612f62578082015181840152602081019050612f47565b83811115612f71576000848401525b50505050565b6000601f19601f8301169050919050565b6000612f9382612f28565b612f9d8185612f33565b9350612fad818560208601612f44565b612fb681612f77565b840191505092915050565b60006020820190508181036000830152612fdb8184612f88565b905092915050565b600073ffffffffffffffffffffffffffffffffffffffff82169050919050565b600061300e82612fe3565b9050919050565b61301e81613003565b82525050565b60006020820190506130396000830184613015565b92915050565b6000819050919050565b6130528161303f565b811461305d57600080fd5b50565b60008135905061306f81613049565b92915050565b60006020828403121561308b5761308a612e63565b5b600061309984828501613060565b91505092915050565b6130ab81613003565b81146130b657600080fd5b50565b6000813590506130c8816130a2565b92915050565b600080604083850312156130e5576130e4612e63565b5b60006130f3858286016130b9565b925050602061310485828601613060565b9150509250929050565b600080fd5b600080fd5b7f4e487b7100000000000000000000000000000000000000000000000000000000600052604160045260246000fd5b61315082612f77565b810181811067ffffffffffffffff8211171561316f5761316e613118565b5b80604052505050565b6000613182612e59565b905061318e8282613147565b919050565b600067ffffffffffffffff8211156131ae576131ad613118565b5b6131b782612f77565b9050602081019050919050565b82818337600083830152505050565b60006131e66131e184613193565b613178565b90508281526020810184848401111561320257613201613113565b5b61320d8482856131c4565b509392505050565b600082601f83011261322a5761322961310e565b5b813561323a8482602086016131d3565b91505092915050565b60008060006060848603121561325c5761325b612e63565b5b600084013567ffffffffffffffff81111561327a57613279612e68565b5b61328686828701613215565b935050602084013567ffffffffffffffff8111156132a7576132a6612e68565b5b6132b386828701613215565b925050604084013567ffffffffffffffff8111156132d4576132d3612e68565b5b6132e086828701613215565b9150509250925092565b60008060006060848603121561330357613302612e63565b5b6000613311868287016130b9565b9350506020613322868287016130b9565b925050604061333386828701613060565b9150509250925092565b600081519050919050565b600082825260208201905092915050565b6000819050602082019050919050565b600082825260208201905092915050565b600061338582612f28565b61338f8185613369565b935061339f818560208601612f44565b6133a881612f77565b840191505092915050565b6133bc8161303f565b82525050565b6133cb81612ef2565b82525050565b600081519050919050565b600082825260208201905092915050565b6000819050602082019050919050565b61340681613003565b82525050565b600061341883836133fd565b60208301905092915050565b6000602082019050919050565b600061343c826133d1565b61344681856133dc565b9350613451836133ed565b8060005b83811015613482578151613469888261340c565b975061347483613424565b925050600181019050613455565b5085935050505092915050565b60006101408301600083015184820360008601526134ad828261337a565b915050602083015184820360208601526134c7828261337a565b915050604083015184820360408601526134e1828261337a565b91505060608301516134f660608601826133b3565b50608083015161350960808601826133b3565b5060a083015161351c60a08601826133b3565b5060c083015161352f60c08601826133c2565b5060e083015161354260e08601826133c2565b506101008301516135576101008601826133b3565b506101208301518482036101208601526135718282613431565b9150508091505092915050565b600061358a838361348f565b905092915050565b6000602082019050919050565b60006135aa8261333d565b6135b48185613348565b9350836020820285016135c685613359565b8060005b8581101561360257848403895281516135e3858261357e565b94506135ee83613592565b925060208a019950506001810190506135ca565b50829750879550505050505092915050565b6000602082019050818103600083015261362e818461359f565b905092915050565b6000610140830160008301518482036000860152613654828261337a565b9150506020830151848203602086015261366e828261337a565b91505060408301518482036040860152613688828261337a565b915050606083015161369d60608601826133b3565b5060808301516136b060808601826133b3565b5060a08301516136c360a08601826133b3565b5060c08301516136d660c08601826133c2565b5060e08301516136e960e08601826133c2565b506101008301516136fe6101008601826133b3565b506101208301518482036101208601526137188282613431565b9150508091505092915050565b6000602082019050818103600083015261373f8184613636565b905092915050565b60006020828403121561375d5761375c612e63565b5b600061376b848285016130b9565b91505092915050565b61377d8161303f565b82525050565b60006020820190506137986000830184613774565b92915050565b600081519050919050565b600082825260208201905092915050565b6000819050602082019050919050565b600060808301600083015184820360008601526137e7828261337a565b91505060208301518482036020860152613801828261337a565b915050604083015161381660408601826133b3565b506060830151848203606086015261382e828261337a565b9150508091505092915050565b600061384783836137ca565b905092915050565b6000602082019050919050565b60006138678261379e565b61387181856137a9565b935083602082028501613883856137ba565b8060005b858110156138bf57848403895281516138a0858261383b565b94506138ab8361384f565b925060208a01995050600181019050613887565b50829750879550505050505092915050565b600060208201905081810360008301526138eb818461385c565b905092915050565b6138fc81612ef2565b811461390757600080fd5b50565b600081359050613919816138f3565b92915050565b6000806040838503121561393657613935612e63565b5b6000613944858286016130b9565b92505060206139558582860161390a565b9150509250929050565b600067ffffffffffffffff82111561397a57613979613118565b5b61398382612f77565b9050602081019050919050565b60006139a361399e8461395f565b613178565b9050828152602081018484840111156139bf576139be613113565b5b6139ca8482856131c4565b509392505050565b600082601f8301126139e7576139e661310e565b5b81356139f7848260208601613990565b91505092915050565b60008060008060808587031215613a1a57613a19612e63565b5b6000613a28878288016130b9565b9450506020613a39878288016130b9565b9350506040613a4a87828801613060565b925050606085013567ffffffffffffffff811115613a6b57613a6a612e68565b5b613a77878288016139d2565b91505092959194509250565b60008060408385031215613a9a57613a99612e63565b5b6000613aa8858286016130b9565b9250506020613ab9858286016130b9565b9150509250929050565b60008060408385031215613ada57613ad9612e63565b5b6000613ae885828601613060565b9250506020613af98582860161390a565b9150509250929050565b60008060008060808587031215613b1d57613b1c612e63565b5b600085013567ffffffffffffffff811115613b3b57613b3a612e68565b5b613b4787828801613215565b945050602085013567ffffffffffffffff811115613b6857613b67612e68565b5b613b7487828801613215565b9350506040613b8587828801613060565b925050606085013567ffffffffffffffff811115613ba657613ba5612e68565b5b613bb287828801613215565b91505092959194509250565b7f4e487b7100000000000000000000000000000000000000000000000000000000600052602260045260246000fd5b60006002820490506001821680613c0557607f821691505b60208210811415613c1957613c18613bbe565b5b50919050565b7f4552433732313a20617070726f76616c20746f2063757272656e74206f776e6560008201527f7200000000000000000000000000000000000000000000000000000000000000602082015250565b6000613c7b602183612f33565b9150613c8682613c1f565b604082019050919050565b60006020820190508181036000830152613caa81613c6e565b9050919050565b7f4552433732313a20617070726f76652063616c6c6572206973206e6f7420746f60008201527f6b656e206f776e6572206e6f7220617070726f76656420666f7220616c6c0000602082015250565b6000613d0d603e83612f33565b9150613d1882613cb1565b604082019050919050565b60006020820190508181036000830152613d3c81613d00565b9050919050565b7f4e487b7100000000000000000000000000000000000000000000000000000000600052601160045260246000fd5b6000613d7d8261303f565b9150613d888361303f565b925082821015613d9b57613d9a613d43565b5b828203905092915050565b7f4e487b7100000000000000000000000000000000000000000000000000000000600052603260045260246000fd5b60008190508160005260206000209050919050565b60008154613df781613bed565b613e018186613369565b94506001821660008114613e1c5760018114613e2e57613e61565b60ff1983168652602086019350613e61565b613e3785613dd5565b60005b83811015613e5957815481890152600182019150602081019050613e3a565b808801955050505b50505092915050565b60008160001c9050919050565b6000819050919050565b6000613e94613e8f83613e6a565b613e77565b9050919050565b600060ff82169050919050565b6000613ebb613eb683613e6a565b613e9b565b9050919050565b60008160081c9050919050565b6000613ee2613edd83613ec2565b613e9b565b9050919050565b600081549050919050565b60008190508160005260206000209050919050565b600073ffffffffffffffffffffffffffffffffffffffff82169050919050565b6000613f3c613f3783613e6a565b613f09565b9050919050565b6000613f4f8254613f29565b9050919050565b6000600182019050919050565b6000613f6e82613ee9565b613f7881856133dc565b9350613f8383613ef4565b8060005b83811015613fbb57613f9882613f43565b613fa2888261340c565b9750613fad83613f56565b925050600181019050613f87565b5085935050505092915050565b6000610140830160008084018583036000870152613fe68382613dea565b925050600184018583036020870152613fff8382613dea565b9250506002840185830360408701526140188382613dea565b9250506003840154905061402b81613e81565b61403860608701826133b3565b506004840154905061404981613e81565b61405660808701826133b3565b506005840154905061406781613e81565b61407460a08701826133b3565b506006840154905061408581613ea8565b61409260c08701826133c2565b5061409c81613ecf565b6140a960e08701826133c2565b50600784015490506140ba81613e81565b6140c86101008701826133b3565b50600884018583036101208701526140e08382613f63565b925050819250505092915050565b600060208201905081810360008301526141088184613fc8565b905092915050565b600061411b8261303f565b91506141268361303f565b9250827fffffffffffffffffffffffffffffffffffffffffffffffffffffffffffffffff0382111561415b5761415a613d43565b5b828201905092915050565b7f4552433732313a2063616c6c6572206973206e6f7420746f6b656e206f776e6560008201527f72206e6f7220617070726f766564000000000000000000000000000000000000602082015250565b60006141c2602e83612f33565b91506141cd82614166565b604082019050919050565b600060208201905081810360008301526141f1816141b5565b9050919050565b7f4552433732313a20696e76616c696420746f6b656e2049440000000000000000600082015250565b600061422e601883612f33565b9150614239826141f8565b602082019050919050565b6000602082019050818103600083015261425d81614221565b9050919050565b7f4552433732313a2061646472657373207a65726f206973206e6f74206120766160008201527f6c6964206f776e65720000000000000000000000000000000000000000000000602082015250565b60006142c0602983612f33565b91506142cb82614264565b604082019050919050565b600060208201905081810360008301526142ef816142b3565b9050919050565b600081905092915050565b7f7b226e616d65223a202200000000000000000000000000000000000000000000600082015250565b6000614337600a836142f6565b915061434282614301565b600a82019050919050565b6000815461435a81613bed565b61436481866142f6565b9450600182166000811461437f5760018114614390576143c3565b60ff198316865281860193506143c3565b61439985613dd5565b60005b838110156143bb5781548189015260018201915060208101905061439c565b838801955050505b50505092915050565b7f202d2d204e465420233a20000000000000000000000000000000000000000000600082015250565b6000614402600b836142f6565b915061440d826143cc565b600b82019050919050565b600061442382612f28565b61442d81856142f6565b935061443d818560208601612f44565b80840191505092915050565b7f222c20226465736372697074696f6e223a2022416e2065706963204e4654222c60008201527f2022696d616765223a202268747470733a2f2f6261667962656961653771627260208201527f6f6d75623277356f6237627035776c3471657a336d656866623368763536787560408201527f72376268626d7a6e79676b6e75692e697066732e7733732e6c696e6b2f65746860608201527f726572756d25453325383125414525453325383225423325453325383325393260808201527f2545332538322539412545332538332542432e6a7067222c2265787465726e6160a08201527f6c5f75726c223a202268747470733a2f2f00000000000000000000000000000060c082015250565b600061456360d1836142f6565b915061456e82614449565b60d182019050919050565b7f2e697066732e7733732e6c696e6b2f0000000000000000000000000000000000600082015250565b60006145af600f836142f6565b91506145ba82614579565b600f82019050919050565b7f2e706466227d0000000000000000000000000000000000000000000000000000600082015250565b60006145fb6006836142f6565b9150614606826145c5565b600682019050919050565b600061461c8261432a565b9150614628828761434d565b9150614633826143f5565b915061463f8286614418565b915061464a82614556565b9150614656828561434d565b9150614661826145a2565b915061466d828461434d565b9150614678826145ee565b915081905095945050505050565b7f646174613a6170706c69636174696f6e2f6a736f6e3b6261736536342c000000600082015250565b60006146bc601d836142f6565b91506146c782614686565b601d82019050919050565b60006146dd826146af565b91506146e98284614418565b915081905092915050565b7f54686973206964656120697320616c72656164792066696e69736865642e0000600082015250565b600061472a601e83612f33565b9150614735826146f4565b602082019050919050565b600060208201905081810360008301526147598161471d565b9050919050565b7f596f7520616c726561647920766f746564207468697320696465612e00000000600082015250565b6000614796601c83612f33565b91506147a182614760565b602082019050919050565b600060208201905081810360008301526147c581614789565b9050919050565b60006147d78261303f565b91507fffffffffffffffffffffffffffffffffffffffffffffffffffffffffffffffff82141561480a57614809613d43565b5b600182019050919050565b7f4552433732313a207472616e736665722066726f6d20696e636f72726563742060008201527f6f776e6572000000000000000000000000000000000000000000000000000000602082015250565b6000614871602583612f33565b915061487c82614815565b604082019050919050565b600060208201905081810360008301526148a081614864565b9050919050565b7f4552433732313a207472616e7366657220746f20746865207a65726f2061646460008201527f7265737300000000000000000000000000000000000000000000000000000000602082015250565b6000614903602483612f33565b915061490e826148a7565b604082019050919050565b60006020820190508181036000830152614932816148f6565b9050919050565b7f4552433732313a20617070726f766520746f2063616c6c657200000000000000600082015250565b600061496f601983612f33565b915061497a82614939565b602082019050919050565b6000602082019050818103600083015261499e81614962565b9050919050565b7f4552433732313a207472616e7366657220746f206e6f6e20455243373231526560008201527f63656976657220696d706c656d656e7465720000000000000000000000000000602082015250565b6000614a01603283612f33565b9150614a0c826149a5565b604082019050919050565b60006020820190508181036000830152614a30816149f4565b9050919050565b7f4e487b7100000000000000000000000000000000000000000000000000000000600052601260045260246000fd5b6000614a718261303f565b9150614a7c8361303f565b925082614a8c57614a8b614a37565b5b828204905092915050565b6000614aa28261303f565b9150614aad8361303f565b925082614abd57614abc614a37565b5b828206905092915050565b6000614ad38261303f565b9150614ade8361303f565b9250817fffffffffffffffffffffffffffffffffffffffffffffffffffffffffffffffff0483118215151615614b1757614b16613d43565b5b828202905092915050565b60006060820190508181036000830152614b3c8186612f88565b9050614b4b6020830185613774565b614b586040830184613015565b949350505050565b600081519050919050565b600082825260208201905092915050565b6000614b8782614b60565b614b918185614b6b565b9350614ba1818560208601612f44565b614baa81612f77565b840191505092915050565b6000608082019050614bca6000830187613015565b614bd76020830186613015565b614be46040830185613774565b8181036060830152614bf68184614b7c565b905095945050505050565b600081519050614c1081612e99565b92915050565b600060208284031215614c2c57614c2b612e63565b5b6000614c3a84828501614c01565b91505092915050565b7f4552433732313a206d696e7420746f20746865207a65726f2061646472657373600082015250565b6000614c79602083612f33565b9150614c8482614c43565b602082019050919050565b60006020820190508181036000830152614ca881614c6c565b9050919050565b7f4552433732313a20746f6b656e20616c7265616479206d696e74656400000000600082015250565b6000614ce5601c83612f33565b9150614cf082614caf565b602082019050919050565b60006020820190508181036000830152614d1481614cd8565b905091905056fe416e204e465420772f20494420257320686173206265656e206d696e74656420746f2025734142434445464748494a4b4c4d4e4f505152535455565758595a6162636465666768696a6b6c6d6e6f707172737475767778797a303132333435363738392b2fa2646970667358221220ae5cced69a6f1d3e7a2c0c1c611cd163e12b5e7629abc9f9e2605d7c4618e4da64736f6c63430008090033",
	"linkReferences": {},
	"deployedLinkReferences": {}
}