{
	"_format": "hh-sol-artifact-1",
	"contractName": "VotePortal",
	"sourceName": "contracts/Vote.sol",
	"abi": [
		{
			"inputs": [],
			"stateMutability": "nonpayable",
			"type": "constructor"
		},
		{
			"anonymous": false,
			"inputs": [
				{
					"indexed": true,
					"internalType": "address",
					"name": "owner",
					"type": "address"
				},
				{
					"indexed": true,
					"internalType": "address",
					"name": "approved",
					"type": "address"
				},
				{
					"indexed": true,
					"internalType": "uint256",
					"name": "tokenId",
					"type": "uint256"
				}
			],
			"name": "Approval",
			"type": "event"
		},
		{
			"anonymous": false,
			"inputs": [
				{
					"indexed": true,
					"internalType": "address",
					"name": "owner",
					"type": "address"
				},
				{
					"indexed": true,
					"internalType": "address",
					"name": "operator",
					"type": "address"
				},
				{
					"indexed": false,
					"internalType": "bool",
					"name": "approved",
					"type": "bool"
				}
			],
			"name": "ApprovalForAll",
			"type": "event"
		},
		{
			"anonymous": false,
			"inputs": [
				{
					"components": [
						{
							"internalType": "string",
							"name": "name",
							"type": "string"
						},
						{
							"internalType": "string",
							"name": "nameOriginal",
							"type": "string"
						},
						{
							"internalType": "string",
							"name": "ideaURL",
							"type": "string"
						},
						{
							"internalType": "uint256",
							"name": "totalVotes",
							"type": "uint256"
						},
						{
							"internalType": "uint256",
							"name": "badVotes",
							"type": "uint256"
						},
						{
							"internalType": "uint256",
							"name": "goodVotes",
							"type": "uint256"
						},
						{
							"internalType": "bool",
							"name": "isFinished",
							"type": "bool"
						},
						{
							"internalType": "bool",
							"name": "isNFT",
							"type": "bool"
						},
						{
							"internalType": "uint256",
							"name": "index",
							"type": "uint256"
						},
						{
							"internalType": "address[]",
							"name": "votedAddresses",
							"type": "address[]"
						}
					],
					"indexed": false,
					"internalType": "struct VotePortal.idea",
					"name": "Idea",
					"type": "tuple"
				}
			],
			"name": "FinishVote",
			"type": "event"
		},
		{
			"anonymous": false,
			"inputs": [
				{
					"indexed": true,
					"internalType": "address",
					"name": "from",
					"type": "address"
				},
				{
					"components": [
						{
							"internalType": "string",
							"name": "name",
							"type": "string"
						},
						{
							"internalType": "string",
							"name": "nameOriginal",
							"type": "string"
						},
						{
							"internalType": "string",
							"name": "ideaURL",
							"type": "string"
						},
						{
							"internalType": "uint256",
							"name": "totalVotes",
							"type": "uint256"
						},
						{
							"internalType": "uint256",
							"name": "badVotes",
							"type": "uint256"
						},
						{
							"internalType": "uint256",
							"name": "goodVotes",
							"type": "uint256"
						},
						{
							"internalType": "bool",
							"name": "isFinished",
							"type": "bool"
						},
						{
							"internalType": "bool",
							"name": "isNFT",
							"type": "bool"
						},
						{
							"internalType": "uint256",
							"name": "index",
							"type": "uint256"
						},
						{
							"internalType": "address[]",
							"name": "votedAddresses",
							"type": "address[]"
						}
					],
					"indexed": false,
					"internalType": "struct VotePortal.idea",
					"name": "Idea",
					"type": "tuple"
				}
			],
			"name": "NewIdea",
			"type": "event"
		},
		{
			"anonymous": false,
			"inputs": [
				{
					"components": [
						{
							"internalType": "string",
							"name": "name",
							"type": "string"
						},
						{
							"internalType": "string",
							"name": "nameOriginal",
							"type": "string"
						},
						{
							"internalType": "string",
							"name": "ideaURL",
							"type": "string"
						},
						{
							"internalType": "uint256",
							"name": "totalVotes",
							"type": "uint256"
						},
						{
							"internalType": "uint256",
							"name": "badVotes",
							"type": "uint256"
						},
						{
							"internalType": "uint256",
							"name": "goodVotes",
							"type": "uint256"
						},
						{
							"internalType": "bool",
							"name": "isFinished",
							"type": "bool"
						},
						{
							"internalType": "bool",
							"name": "isNFT",
							"type": "bool"
						},
						{
							"internalType": "uint256",
							"name": "index",
							"type": "uint256"
						},
						{
							"internalType": "address[]",
							"name": "votedAddresses",
							"type": "address[]"
						}
					],
					"indexed": false,
					"internalType": "struct VotePortal.idea",
					"name": "Idea",
					"type": "tuple"
				}
			],
			"name": "NewNFT",
			"type": "event"
		},
		{
			"anonymous": false,
			"inputs": [
				{
					"indexed": true,
					"internalType": "address",
					"name": "from",
					"type": "address"
				},
				{
					"indexed": true,
					"internalType": "address",
					"name": "to",
					"type": "address"
				},
				{
					"indexed": true,
					"internalType": "uint256",
					"name": "tokenId",
					"type": "uint256"
				}
			],
			"name": "Transfer",
			"type": "event"
		},
		{
			"anonymous": false,
			"inputs": [
				{
					"indexed": true,
					"internalType": "address",
					"name": "from",
					"type": "address"
				},
				{
					"components": [
						{
							"internalType": "string",
							"name": "name",
							"type": "string"
						},
						{
							"internalType": "string",
							"name": "nameOriginal",
							"type": "string"
						},
						{
							"internalType": "string",
							"name": "ideaURL",
							"type": "string"
						},
						{
							"internalType": "uint256",
							"name": "totalVotes",
							"type": "uint256"
						},
						{
							"internalType": "uint256",
							"name": "badVotes",
							"type": "uint256"
						},
						{
							"internalType": "uint256",
							"name": "goodVotes",
							"type": "uint256"
						},
						{
							"internalType": "bool",
							"name": "isFinished",
							"type": "bool"
						},
						{
							"internalType": "bool",
							"name": "isNFT",
							"type": "bool"
						},
						{
							"internalType": "uint256",
							"name": "index",
							"type": "uint256"
						},
						{
							"internalType": "address[]",
							"name": "votedAddresses",
							"type": "address[]"
						}
					],
					"indexed": false,
					"internalType": "struct VotePortal.idea",
					"name": "Idea",
					"type": "tuple"
				}
			],
			"name": "VoteSomething",
			"type": "event"
		},
		{
			"inputs": [
				{
					"internalType": "string",
					"name": "_name",
					"type": "string"
				},
				{
					"internalType": "string",
					"name": "_ideaURL",
					"type": "string"
				},
				{
					"internalType": "string",
					"name": "_originalName",
					"type": "string"
				}
			],
			"name": "addIdea",
			"outputs": [],
			"stateMutability": "nonpayable",
			"type": "function"
		},
		{
			"inputs": [
				{
					"internalType": "address",
					"name": "to",
					"type": "address"
				},
				{
					"internalType": "uint256",
					"name": "tokenId",
					"type": "uint256"
				}
			],
			"name": "approve",
			"outputs": [],
			"stateMutability": "nonpayable",
			"type": "function"
		},
		{
			"inputs": [
				{
					"internalType": "address",
					"name": "owner",
					"type": "address"
				}
			],
			"name": "balanceOf",
			"outputs": [
				{
					"internalType": "uint256",
					"name": "",
					"type": "uint256"
				}
			],
			"stateMutability": "view",
			"type": "function"
		},
		{
			"inputs": [],
			"name": "getAllIdeas",
			"outputs": [
				{
					"components": [
						{
							"internalType": "string",
							"name": "name",
							"type": "string"
						},
						{
							"internalType": "string",
							"name": "nameOriginal",
							"type": "string"
						},
						{
							"internalType": "string",
							"name": "ideaURL",
							"type": "string"
						},
						{
							"internalType": "uint256",
							"name": "totalVotes",
							"type": "uint256"
						},
						{
							"internalType": "uint256",
							"name": "badVotes",
							"type": "uint256"
						},
						{
							"internalType": "uint256",
							"name": "goodVotes",
							"type": "uint256"
						},
						{
							"internalType": "bool",
							"name": "isFinished",
							"type": "bool"
						},
						{
							"internalType": "bool",
							"name": "isNFT",
							"type": "bool"
						},
						{
							"internalType": "uint256",
							"name": "index",
							"type": "uint256"
						},
						{
							"internalType": "address[]",
							"name": "votedAddresses",
							"type": "address[]"
						}
					],
					"internalType": "struct VotePortal.idea[]",
					"name": "",
					"type": "tuple[]"
				}
			],
			"stateMutability": "view",
			"type": "function"
		},
		{
			"inputs": [],
			"name": "getAllNfts",
			"outputs": [
				{
					"components": [
						{
							"internalType": "string",
							"name": "name",
							"type": "string"
						},
						{
							"internalType": "string",
							"name": "ideaURL",
							"type": "string"
						},
						{
							"internalType": "uint256",
							"name": "index",
							"type": "uint256"
						}
					],
					"internalType": "struct VotePortal.ideaNFT[]",
					"name": "",
					"type": "tuple[]"
				}
			],
			"stateMutability": "view",
			"type": "function"
		},
		{
			"inputs": [
				{
					"internalType": "uint256",
					"name": "tokenId",
					"type": "uint256"
				}
			],
			"name": "getApproved",
			"outputs": [
				{
					"internalType": "address",
					"name": "",
					"type": "address"
				}
			],
			"stateMutability": "view",
			"type": "function"
		},
		{
			"inputs": [
				{
					"internalType": "uint256",
					"name": "_index",
					"type": "uint256"
				}
			],
			"name": "getIdea",
			"outputs": [
				{
					"components": [
						{
							"internalType": "string",
							"name": "name",
							"type": "string"
						},
						{
							"internalType": "string",
							"name": "nameOriginal",
							"type": "string"
						},
						{
							"internalType": "string",
							"name": "ideaURL",
							"type": "string"
						},
						{
							"internalType": "uint256",
							"name": "totalVotes",
							"type": "uint256"
						},
						{
							"internalType": "uint256",
							"name": "badVotes",
							"type": "uint256"
						},
						{
							"internalType": "uint256",
							"name": "goodVotes",
							"type": "uint256"
						},
						{
							"internalType": "bool",
							"name": "isFinished",
							"type": "bool"
						},
						{
							"internalType": "bool",
							"name": "isNFT",
							"type": "bool"
						},
						{
							"internalType": "uint256",
							"name": "index",
							"type": "uint256"
						},
						{
							"internalType": "address[]",
							"name": "votedAddresses",
							"type": "address[]"
						}
					],
					"internalType": "struct VotePortal.idea",
					"name": "",
					"type": "tuple"
				}
			],
			"stateMutability": "view",
			"type": "function"
		},
		{
			"inputs": [
				{
					"internalType": "address",
					"name": "owner",
					"type": "address"
				},
				{
					"internalType": "address",
					"name": "operator",
					"type": "address"
				}
			],
			"name": "isApprovedForAll",
			"outputs": [
				{
					"internalType": "bool",
					"name": "",
					"type": "bool"
				}
			],
			"stateMutability": "view",
			"type": "function"
		},
		{
			"inputs": [
				{
					"internalType": "string",
					"name": "name",
					"type": "string"
				},
				{
					"internalType": "string",
					"name": "ideaURI",
					"type": "string"
				},
				{
					"internalType": "uint256",
					"name": "idea_index",
					"type": "uint256"
				}
			],
			"name": "mintIpfsNFT",
			"outputs": [],
			"stateMutability": "nonpayable",
			"type": "function"
		},
		{
			"inputs": [],
			"name": "minter",
			"outputs": [
				{
					"internalType": "address",
					"name": "",
					"type": "address"
				}
			],
			"stateMutability": "view",
			"type": "function"
		},
		{
			"inputs": [],
			"name": "name",
			"outputs": [
				{
					"internalType": "string",
					"name": "",
					"type": "string"
				}
			],
			"stateMutability": "view",
			"type": "function"
		},
		{
			"inputs": [
				{
					"internalType": "uint256",
					"name": "tokenId",
					"type": "uint256"
				}
			],
			"name": "ownerOf",
			"outputs": [
				{
					"internalType": "address",
					"name": "",
					"type": "address"
				}
			],
			"stateMutability": "view",
			"type": "function"
		},
		{
			"inputs": [
				{
					"internalType": "address",
					"name": "from",
					"type": "address"
				},
				{
					"internalType": "address",
					"name": "to",
					"type": "address"
				},
				{
					"internalType": "uint256",
					"name": "tokenId",
					"type": "uint256"
				}
			],
			"name": "safeTransferFrom",
			"outputs": [],
			"stateMutability": "nonpayable",
			"type": "function"
		},
		{
			"inputs": [
				{
					"internalType": "address",
					"name": "from",
					"type": "address"
				},
				{
					"internalType": "address",
					"name": "to",
					"type": "address"
				},
				{
					"internalType": "uint256",
					"name": "tokenId",
					"type": "uint256"
				},
				{
					"internalType": "bytes",
					"name": "data",
					"type": "bytes"
				}
			],
			"name": "safeTransferFrom",
			"outputs": [],
			"stateMutability": "nonpayable",
			"type": "function"
		},
		{
			"inputs": [
				{
					"internalType": "address",
					"name": "operator",
					"type": "address"
				},
				{
					"internalType": "bool",
					"name": "approved",
					"type": "bool"
				}
			],
			"name": "setApprovalForAll",
			"outputs": [],
			"stateMutability": "nonpayable",
			"type": "function"
		},
		{
			"inputs": [
				{
					"internalType": "bytes4",
					"name": "interfaceId",
					"type": "bytes4"
				}
			],
			"name": "supportsInterface",
			"outputs": [
				{
					"internalType": "bool",
					"name": "",
					"type": "bool"
				}
			],
			"stateMutability": "view",
			"type": "function"
		},
		{
			"inputs": [],
			"name": "symbol",
			"outputs": [
				{
					"internalType": "string",
					"name": "",
					"type": "string"
				}
			],
			"stateMutability": "view",
			"type": "function"
		},
		{
			"inputs": [
				{
					"internalType": "uint256",
					"name": "_tokenId",
					"type": "uint256"
				}
			],
			"name": "tokenURI",
			"outputs": [
				{
					"internalType": "string",
					"name": "",
					"type": "string"
				}
			],
			"stateMutability": "view",
			"type": "function"
		},
		{
			"inputs": [
				{
					"internalType": "address",
					"name": "from",
					"type": "address"
				},
				{
					"internalType": "address",
					"name": "to",
					"type": "address"
				},
				{
					"internalType": "uint256",
					"name": "tokenId",
					"type": "uint256"
				}
			],
			"name": "transferFrom",
			"outputs": [],
			"stateMutability": "nonpayable",
			"type": "function"
		},
		{
			"inputs": [
				{
					"internalType": "uint256",
					"name": "idea_index",
					"type": "uint256"
				},
				{
					"internalType": "bool",
					"name": "isGood",
					"type": "bool"
				}
			],
			"name": "voteIdea",
			"outputs": [],
			"stateMutability": "nonpayable",
			"type": "function"
		}
	],
	"bytecode": "0x60806040523480156200001157600080fd5b506040518060400160405280600381526020017f4e465400000000000000000000000000000000000000000000000000000000008152506040518060400160405280600381526020017f6e6674000000000000000000000000000000000000000000000000000000000081525081600090805190602001906200009692919062000210565b508060019080519060200190620000af92919062000210565b505050620000fd6040518060400160405280601881526020017f54686973206973206d79204e465420636f6e74726163742e00000000000000008152506200014460201b620019851760201c565b33600860006101000a81548173ffffffffffffffffffffffffffffffffffffffff021916908373ffffffffffffffffffffffffffffffffffffffff160217905550620003ed565b620001e4816040516024016200015b919062000364565b6040516020818303038152906040527f41304fac000000000000000000000000000000000000000000000000000000007bffffffffffffffffffffffffffffffffffffffffffffffffffffffff19166020820180517bffffffffffffffffffffffffffffffffffffffffffffffffffffffff8381831617835250505050620001e760201b60201c565b50565b60008151905060006a636f6e736f6c652e6c6f679050602083016000808483855afa5050505050565b8280546200021e90620003b7565b90600052602060002090601f0160209004810192826200024257600085556200028e565b82601f106200025d57805160ff19168380011785556200028e565b828001600101855582156200028e579182015b828111156200028d57825182559160200191906001019062000270565b5b5090506200029d9190620002a1565b5090565b5b80821115620002bc576000816000905550600101620002a2565b5090565b600081519050919050565b600082825260208201905092915050565b60005b83811015620002fc578082015181840152602081019050620002df565b838111156200030c576000848401525b50505050565b6000601f19601f8301169050919050565b60006200033082620002c0565b6200033c8185620002cb565b93506200034e818560208601620002dc565b620003598162000312565b840191505092915050565b6000602082019050818103600083015262000380818462000323565b905092915050565b7f4e487b7100000000000000000000000000000000000000000000000000000000600052602260045260246000fd5b60006002820490506001821680620003d057607f821691505b60208210811415620003e757620003e662000388565b5b50919050565b614ac080620003fd6000396000f3fe608060405234801561001057600080fd5b506004361061012c5760003560e01c80636352211e116100ad578063b208000a11610071578063b208000a14610343578063b88d4fde1461035f578063c87b56dd1461037b578063e985e9c5146103ab578063f10caac7146103db5761012c565b80636352211e1461028b57806370a08231146102bb578063732e8d73146102eb57806395d89b4114610309578063a22cb465146103275761012c565b80631dee3793116100f45780631dee3793146101e957806323b872dd146102055780633a9e6af01461022157806342842e0e1461023f57806344de6b2f1461025b5761012c565b806301ffc9a71461013157806306fdde0314610161578063075461721461017f578063081812fc1461019d578063095ea7b3146101cd575b600080fd5b61014b60048036038101906101469190612d3b565b6103f7565b6040516101589190612d83565b60405180910390f35b6101696104d9565b6040516101769190612e37565b60405180910390f35b61018761056b565b6040516101949190612e9a565b60405180910390f35b6101b760048036038101906101b29190612eeb565b610591565b6040516101c49190612e9a565b60405180910390f35b6101e760048036038101906101e29190612f44565b6105d7565b005b61020360048036038101906101fe91906130b9565b6106ef565b005b61021f600480360381019061021a9190613160565b610932565b005b610229610992565b604051610236919061348a565b60405180910390f35b61025960048036038101906102549190613160565b610c94565b005b61027560048036038101906102709190612eeb565b610cb4565b604051610282919061359b565b60405180910390f35b6102a560048036038101906102a09190612eeb565b610f93565b6040516102b29190612e9a565b60405180910390f35b6102d560048036038101906102d091906135bd565b611045565b6040516102e291906135f9565b60405180910390f35b6102f36110fd565b604051610300919061372d565b60405180910390f35b61031161128a565b60405161031e9190612e37565b60405180910390f35b610341600480360381019061033c919061377b565b61131c565b005b61035d600480360381019061035891906137bb565b611332565b005b610379600480360381019061037491906138e7565b611471565b005b61039560048036038101906103909190612eeb565b6114d3565b6040516103a29190612e37565b60405180910390f35b6103c560048036038101906103c0919061396a565b611583565b6040516103d29190612d83565b60405180910390f35b6103f560048036038101906103f091906139aa565b611617565b005b60007f80ac58cd000000000000000000000000000000000000000000000000000000007bffffffffffffffffffffffffffffffffffffffffffffffffffffffff1916827bffffffffffffffffffffffffffffffffffffffffffffffffffffffff191614806104c257507f5b5e139f000000000000000000000000000000000000000000000000000000007bffffffffffffffffffffffffffffffffffffffffffffffffffffffff1916827bffffffffffffffffffffffffffffffffffffffffffffffffffffffff1916145b806104d257506104d182611a1e565b5b9050919050565b6060600080546104e890613a19565b80601f016020809104026020016040519081016040528092919081815260200182805461051490613a19565b80156105615780601f1061053657610100808354040283529160200191610561565b820191906000526020600020905b81548152906001019060200180831161054457829003601f168201915b5050505050905090565b600860009054906101000a900473ffffffffffffffffffffffffffffffffffffffff1681565b600061059c82611a88565b6004600083815260200190815260200160002060009054906101000a900473ffffffffffffffffffffffffffffffffffffffff169050919050565b60006105e282610f93565b90508073ffffffffffffffffffffffffffffffffffffffff168373ffffffffffffffffffffffffffffffffffffffff161415610653576040517f08c379a000000000000000000000000000000000000000000000000000000000815260040161064a90613abd565b60405180910390fd5b8073ffffffffffffffffffffffffffffffffffffffff16610672611ad3565b73ffffffffffffffffffffffffffffffffffffffff1614806106a157506106a08161069b611ad3565b611583565b5b6106e0576040517f08c379a00000000000000000000000000000000000000000000000000000000081526004016106d790613b4f565b60405180910390fd5b6106ea8383611adb565b505050565b600b60405180610140016040528085815260200183815260200184815260200160008152602001600081526020016000815260200160001515815260200160001515815260200160008152602001600067ffffffffffffffff81111561075857610757612f8e565b5b6040519080825280602002602001820160405280156107865781602001602082028036833780820191505090505b50815250908060018154018082558091505060019003906000526020600020906009020160009091909190915060008201518160000190805190602001906107cf929190612b4b565b5060208201518160010190805190602001906107ec929190612b4b565b506040820151816002019080519060200190610809929190612b4b565b50606082015181600301556080820151816004015560a0820151816005015560c08201518160060160006101000a81548160ff02191690831515021790555060e08201518160060160016101000a81548160ff0219169083151502179055506101008201518160070155610120820151816008019080519060200190610890929190612bd1565b5050503373ffffffffffffffffffffffffffffffffffffffff167f98d624c7a274ba9d5e71477aa42dc34175eb13f1efe7ec2d1e2148609fab00c0600b6001600b805490506108df9190613b9e565b815481106108f0576108ef613bd2565b5b906000526020600020906009020160405161090b9190613f1a565b60405180910390a26001600960008282546109269190613f3c565b92505081905550505050565b61094361093d611ad3565b82611b94565b610982576040517f08c379a000000000000000000000000000000000000000000000000000000000815260040161097990614004565b60405180910390fd5b61098d838383611c29565b505050565b6060600b805480602002602001604051908101604052809291908181526020016000905b82821015610c8b5783829060005260206000209060090201604051806101400160405290816000820180546109ea90613a19565b80601f0160208091040260200160405190810160405280929190818152602001828054610a1690613a19565b8015610a635780601f10610a3857610100808354040283529160200191610a63565b820191906000526020600020905b815481529060010190602001808311610a4657829003601f168201915b50505050508152602001600182018054610a7c90613a19565b80601f0160208091040260200160405190810160405280929190818152602001828054610aa890613a19565b8015610af55780601f10610aca57610100808354040283529160200191610af5565b820191906000526020600020905b815481529060010190602001808311610ad857829003601f168201915b50505050508152602001600282018054610b0e90613a19565b80601f0160208091040260200160405190810160405280929190818152602001828054610b3a90613a19565b8015610b875780601f10610b5c57610100808354040283529160200191610b87565b820191906000526020600020905b815481529060010190602001808311610b6a57829003601f168201915b505050505081526020016003820154815260200160048201548152602001600582015481526020016006820160009054906101000a900460ff161515151581526020016006820160019054906101000a900460ff161515151581526020016007820154815260200160088201805480602002602001604051908101604052809291908181526020018280548015610c7357602002820191906000526020600020905b8160009054906101000a900473ffffffffffffffffffffffffffffffffffffffff1673ffffffffffffffffffffffffffffffffffffffff1681526020019060010190808311610c29575b505050505081525050815260200190600101906109b6565b50505050905090565b610caf83838360405180602001604052806000815250611471565b505050565b610cbc612c5b565b600b8281548110610cd057610ccf613bd2565b5b906000526020600020906009020160405180610140016040529081600082018054610cfa90613a19565b80601f0160208091040260200160405190810160405280929190818152602001828054610d2690613a19565b8015610d735780601f10610d4857610100808354040283529160200191610d73565b820191906000526020600020905b815481529060010190602001808311610d5657829003601f168201915b50505050508152602001600182018054610d8c90613a19565b80601f0160208091040260200160405190810160405280929190818152602001828054610db890613a19565b8015610e055780601f10610dda57610100808354040283529160200191610e05565b820191906000526020600020905b815481529060010190602001808311610de857829003601f168201915b50505050508152602001600282018054610e1e90613a19565b80601f0160208091040260200160405190810160405280929190818152602001828054610e4a90613a19565b8015610e975780601f10610e6c57610100808354040283529160200191610e97565b820191906000526020600020905b815481529060010190602001808311610e7a57829003601f168201915b505050505081526020016003820154815260200160048201548152602001600582015481526020016006820160009054906101000a900460ff161515151581526020016006820160019054906101000a900460ff161515151581526020016007820154815260200160088201805480602002602001604051908101604052809291908181526020018280548015610f8357602002820191906000526020600020905b8160009054906101000a900473ffffffffffffffffffffffffffffffffffffffff1673ffffffffffffffffffffffffffffffffffffffff1681526020019060010190808311610f39575b5050505050815250509050919050565b6000806002600084815260200190815260200160002060009054906101000a900473ffffffffffffffffffffffffffffffffffffffff169050600073ffffffffffffffffffffffffffffffffffffffff168173ffffffffffffffffffffffffffffffffffffffff16141561103c576040517f08c379a000000000000000000000000000000000000000000000000000000000815260040161103390614070565b60405180910390fd5b80915050919050565b60008073ffffffffffffffffffffffffffffffffffffffff168273ffffffffffffffffffffffffffffffffffffffff1614156110b6576040517f08c379a00000000000000000000000000000000000000000000000000000000081526004016110ad90614102565b60405180910390fd5b600360008373ffffffffffffffffffffffffffffffffffffffff1673ffffffffffffffffffffffffffffffffffffffff168152602001908152602001600020549050919050565b6060600a805480602002602001604051908101604052809291908181526020016000905b82821015611281578382906000526020600020906003020160405180606001604052908160008201805461115490613a19565b80601f016020809104026020016040519081016040528092919081815260200182805461118090613a19565b80156111cd5780601f106111a2576101008083540402835291602001916111cd565b820191906000526020600020905b8154815290600101906020018083116111b057829003601f168201915b505050505081526020016001820180546111e690613a19565b80601f016020809104026020016040519081016040528092919081815260200182805461121290613a19565b801561125f5780601f106112345761010080835404028352916020019161125f565b820191906000526020600020905b81548152906001019060200180831161124257829003601f168201915b5050505050815260200160028201548152505081526020019060010190611121565b50505050905090565b60606001805461129990613a19565b80601f01602080910402602001604051908101604052809291908181526020018280546112c590613a19565b80156113125780601f106112e757610100808354040283529160200191611312565b820191906000526020600020905b8154815290600101906020018083116112f557829003601f168201915b5050505050905090565b61132e611327611ad3565b8383611e90565b5050565b600061133e6007611ffd565b905061134a338261200b565b600a604051806060016040528086815260200185815260200183815250908060018154018082558091505060019003906000526020600020906003020160009091909190915060008201518160000190805190602001906113ac929190612b4b565b5060208201518160010190805190602001906113c9929190612b4b565b506040820151816002015550506001600b83815481106113ec576113eb613bd2565b5b906000526020600020906009020160060160016101000a81548160ff02191690831515021790555080600b838154811061142957611428613bd2565b5b906000526020600020906009020160070181905550611461604051806060016040528060258152602001614a26602591398233612029565b61146b60076120c8565b50505050565b61148261147c611ad3565b83611b94565b6114c1576040517f08c379a00000000000000000000000000000000000000000000000000000000081526004016114b890614004565b60405180910390fd5b6114cd848484846120de565b50505050565b60606000611553600a84815481106114ee576114ed613bd2565b5b90600052602060002090600302016000016115088561213a565b600a868154811061151c5761151b613bd2565b5b906000526020600020906003020160010160405160200161153f93929190614333565b60405160208183030381529060405261229b565b905060008160405160200161156891906143dc565b60405160208183030381529060405290508092505050919050565b6000600560008473ffffffffffffffffffffffffffffffffffffffff1673ffffffffffffffffffffffffffffffffffffffff16815260200190815260200160002060008373ffffffffffffffffffffffffffffffffffffffff1673ffffffffffffffffffffffffffffffffffffffff16815260200190815260200160002060009054906101000a900460ff16905092915050565b600b828154811061162b5761162a613bd2565b5b906000526020600020906009020160060160009054906101000a900460ff161561168a576040517f08c379a00000000000000000000000000000000000000000000000000000000081526004016116819061444a565b60405180910390fd5b600860009054906101000a900473ffffffffffffffffffffffffffffffffffffffff1673ffffffffffffffffffffffffffffffffffffffff163373ffffffffffffffffffffffffffffffffffffffff1614156116ee576116e982612414565b611981565b60005b600b838154811061170557611704613bd2565b5b906000526020600020906009020160080180549050811015611804573373ffffffffffffffffffffffffffffffffffffffff16600b848154811061174c5761174b613bd2565b5b9060005260206000209060090201600801828154811061176f5761176e613bd2565b5b9060005260206000200160009054906101000a900473ffffffffffffffffffffffffffffffffffffffff1673ffffffffffffffffffffffffffffffffffffffff1614156117f1576040517f08c379a00000000000000000000000000000000000000000000000000000000081526004016117e8906144b6565b60405180910390fd5b80806117fc906144d6565b9150506116f1565b50801561184d576001600b838154811061182157611820613bd2565b5b906000526020600020906009020160050160008282546118419190613f3c565b9250508190555061188b565b6001600b838154811061186357611862613bd2565b5b906000526020600020906009020160040160008282546118839190613f3c565b925050819055505b3373ffffffffffffffffffffffffffffffffffffffff167fc5dbb75f25b29ff52fe79750beac78eea6510b01c5cf25b68239ccc0ab862541600b84815481106118d7576118d6613bd2565b5b90600052602060002090600902016040516118f29190613f1a565b60405180910390a2600b828154811061190e5761190d613bd2565b5b9060005260206000209060090201600801339080600181540180825580915050600190039060005260206000200160009091909190916101000a81548173ffffffffffffffffffffffffffffffffffffffff021916908373ffffffffffffffffffffffffffffffffffffffff1602179055505b5050565b611a1b816040516024016119999190612e37565b6040516020818303038152906040527f41304fac000000000000000000000000000000000000000000000000000000007bffffffffffffffffffffffffffffffffffffffffffffffffffffffff19166020820180517bffffffffffffffffffffffffffffffffffffffffffffffffffffffff83818316178352505050506126bd565b50565b60007f01ffc9a7000000000000000000000000000000000000000000000000000000007bffffffffffffffffffffffffffffffffffffffffffffffffffffffff1916827bffffffffffffffffffffffffffffffffffffffffffffffffffffffff1916149050919050565b611a91816126e6565b611ad0576040517f08c379a0000000000000000000000000000000000000000000000000000000008152600401611ac790614070565b60405180910390fd5b50565b600033905090565b816004600083815260200190815260200160002060006101000a81548173ffffffffffffffffffffffffffffffffffffffff021916908373ffffffffffffffffffffffffffffffffffffffff160217905550808273ffffffffffffffffffffffffffffffffffffffff16611b4e83610f93565b73ffffffffffffffffffffffffffffffffffffffff167f8c5be1e5ebec7d5bd14f71427d1e84f3dd0314c0f7b2291e5b200ac8c7c3b92560405160405180910390a45050565b600080611ba083610f93565b90508073ffffffffffffffffffffffffffffffffffffffff168473ffffffffffffffffffffffffffffffffffffffff161480611be25750611be18185611583565b5b80611c2057508373ffffffffffffffffffffffffffffffffffffffff16611c0884610591565b73ffffffffffffffffffffffffffffffffffffffff16145b91505092915050565b8273ffffffffffffffffffffffffffffffffffffffff16611c4982610f93565b73ffffffffffffffffffffffffffffffffffffffff1614611c9f576040517f08c379a0000000000000000000000000000000000000000000000000000000008152600401611c9690614591565b60405180910390fd5b600073ffffffffffffffffffffffffffffffffffffffff168273ffffffffffffffffffffffffffffffffffffffff161415611d0f576040517f08c379a0000000000000000000000000000000000000000000000000000000008152600401611d0690614623565b60405180910390fd5b611d1a838383612752565b611d25600082611adb565b6001600360008573ffffffffffffffffffffffffffffffffffffffff1673ffffffffffffffffffffffffffffffffffffffff1681526020019081526020016000206000828254611d759190613b9e565b925050819055506001600360008473ffffffffffffffffffffffffffffffffffffffff1673ffffffffffffffffffffffffffffffffffffffff1681526020019081526020016000206000828254611dcc9190613f3c565b92505081905550816002600083815260200190815260200160002060006101000a81548173ffffffffffffffffffffffffffffffffffffffff021916908373ffffffffffffffffffffffffffffffffffffffff160217905550808273ffffffffffffffffffffffffffffffffffffffff168473ffffffffffffffffffffffffffffffffffffffff167fddf252ad1be2c89b69c2b068fc378daa952ba7f163c4a11628f55a4df523b3ef60405160405180910390a4611e8b838383612757565b505050565b8173ffffffffffffffffffffffffffffffffffffffff168373ffffffffffffffffffffffffffffffffffffffff161415611eff576040517f08c379a0000000000000000000000000000000000000000000000000000000008152600401611ef69061468f565b60405180910390fd5b80600560008573ffffffffffffffffffffffffffffffffffffffff1673ffffffffffffffffffffffffffffffffffffffff16815260200190815260200160002060008473ffffffffffffffffffffffffffffffffffffffff1673ffffffffffffffffffffffffffffffffffffffff16815260200190815260200160002060006101000a81548160ff0219169083151502179055508173ffffffffffffffffffffffffffffffffffffffff168373ffffffffffffffffffffffffffffffffffffffff167f17307eab39ab6107e8899845ad3d59bd9653f200f220920489ca2b5937696c3183604051611ff09190612d83565b60405180910390a3505050565b600081600001549050919050565b61202582826040518060200160405280600081525061275c565b5050565b6120c3838383604051602401612041939291906146af565b6040516020818303038152906040527f1c7ec448000000000000000000000000000000000000000000000000000000007bffffffffffffffffffffffffffffffffffffffffffffffffffffffff19166020820180517bffffffffffffffffffffffffffffffffffffffffffffffffffffffff83818316178352505050506126bd565b505050565b6001816000016000828254019250508190555050565b6120e9848484611c29565b6120f5848484846127b7565b612134576040517f08c379a000000000000000000000000000000000000000000000000000000000815260040161212b9061475f565b60405180910390fd5b50505050565b60606000821415612182576040518060400160405280600181526020017f30000000000000000000000000000000000000000000000000000000000000008152509050612296565b600082905060005b600082146121b457808061219d906144d6565b915050600a826121ad91906147ae565b915061218a565b60008167ffffffffffffffff8111156121d0576121cf612f8e565b5b6040519080825280601f01601f1916602001820160405280156122025781602001600182028036833780820191505090505b5090505b6000851461228f5760018261221b9190613b9e565b9150600a8561222a91906147df565b60306122369190613f3c565b60f81b81838151811061224c5761224b613bd2565b5b60200101907effffffffffffffffffffffffffffffffffffffffffffffffffffffffffffff1916908160001a905350600a8561228891906147ae565b9450612206565b8093505050505b919050565b60606000825114156122be5760405180602001604052806000815250905061240f565b6000604051806060016040528060408152602001614a4b60409139905060006003600285516122ed9190613f3c565b6122f791906147ae565b60046123039190614810565b905060006020826123149190613f3c565b67ffffffffffffffff81111561232d5761232c612f8e565b5b6040519080825280601f01601f19166020018201604052801561235f5781602001600182028036833780820191505090505b509050818152600183018586518101602084015b818310156123ce576003830192508251603f8160121c168501518253600182019150603f81600c1c168501518253600182019150603f8160061c168501518253600182019150603f8116850151825360018201915050612373565b6003895106600181146123e857600281146123f857612403565b613d3d60f01b6002830352612403565b603d60f81b60018303525b50505050508093505050505b919050565b6001600b828154811061242a57612429613bd2565b5b906000526020600020906009020160060160006101000a81548160ff0219169083151502179055507f85fc44d6ed214f8ab334200d41125bfca7cbc3bc5ae62e3562cdb65aea20126a600b828154811061248757612486613bd2565b5b90600052602060002090600902016040516124a29190613f1a565b60405180910390a1600b81815481106124be576124bd613bd2565b5b906000526020600020906009020160040154600b82815481106124e4576124e3613bd2565b5b90600052602060002090600902016005015411156126ba57612661600b828154811061251357612512613bd2565b5b9060005260206000209060090201600001805461252f90613a19565b80601f016020809104026020016040519081016040528092919081815260200182805461255b90613a19565b80156125a85780601f1061257d576101008083540402835291602001916125a8565b820191906000526020600020905b81548152906001019060200180831161258b57829003601f168201915b5050505050600b83815481106125c1576125c0613bd2565b5b906000526020600020906009020160020180546125dd90613a19565b80601f016020809104026020016040519081016040528092919081815260200182805461260990613a19565b80156126565780601f1061262b57610100808354040283529160200191612656565b820191906000526020600020905b81548152906001019060200180831161263957829003601f168201915b505050505083611332565b7f59de40128ae33fb91268ddf5a4d68ec0d2f748d1a995c21320bf724c1b6bfc91600b828154811061269657612695613bd2565b5b90600052602060002090600902016040516126b19190613f1a565b60405180910390a15b50565b60008151905060006a636f6e736f6c652e6c6f679050602083016000808483855afa5050505050565b60008073ffffffffffffffffffffffffffffffffffffffff166002600084815260200190815260200160002060009054906101000a900473ffffffffffffffffffffffffffffffffffffffff1673ffffffffffffffffffffffffffffffffffffffff1614159050919050565b505050565b505050565b612766838361294e565b61277360008484846127b7565b6127b2576040517f08c379a00000000000000000000000000000000000000000000000000000000081526004016127a99061475f565b60405180910390fd5b505050565b60006127d88473ffffffffffffffffffffffffffffffffffffffff16612b28565b15612941578373ffffffffffffffffffffffffffffffffffffffff1663150b7a02612801611ad3565b8786866040518563ffffffff1660e01b815260040161282394939291906148bf565b602060405180830381600087803b15801561283d57600080fd5b505af192505050801561286e57506040513d601f19601f8201168201806040525081019061286b9190614920565b60015b6128f1573d806000811461289e576040519150601f19603f3d011682016040523d82523d6000602084013e6128a3565b606091505b506000815114156128e9576040517f08c379a00000000000000000000000000000000000000000000000000000000081526004016128e09061475f565b60405180910390fd5b805181602001fd5b63150b7a0260e01b7bffffffffffffffffffffffffffffffffffffffffffffffffffffffff1916817bffffffffffffffffffffffffffffffffffffffffffffffffffffffff191614915050612946565b600190505b949350505050565b600073ffffffffffffffffffffffffffffffffffffffff168273ffffffffffffffffffffffffffffffffffffffff1614156129be576040517f08c379a00000000000000000000000000000000000000000000000000000000081526004016129b590614999565b60405180910390fd5b6129c7816126e6565b15612a07576040517f08c379a00000000000000000000000000000000000000000000000000000000081526004016129fe90614a05565b60405180910390fd5b612a1360008383612752565b6001600360008473ffffffffffffffffffffffffffffffffffffffff1673ffffffffffffffffffffffffffffffffffffffff1681526020019081526020016000206000828254612a639190613f3c565b92505081905550816002600083815260200190815260200160002060006101000a81548173ffffffffffffffffffffffffffffffffffffffff021916908373ffffffffffffffffffffffffffffffffffffffff160217905550808273ffffffffffffffffffffffffffffffffffffffff16600073ffffffffffffffffffffffffffffffffffffffff167fddf252ad1be2c89b69c2b068fc378daa952ba7f163c4a11628f55a4df523b3ef60405160405180910390a4612b2460008383612757565b5050565b6000808273ffffffffffffffffffffffffffffffffffffffff163b119050919050565b828054612b5790613a19565b90600052602060002090601f016020900481019282612b795760008555612bc0565b82601f10612b9257805160ff1916838001178555612bc0565b82800160010185558215612bc0579182015b82811115612bbf578251825591602001919060010190612ba4565b5b509050612bcd9190612cb2565b5090565b828054828255906000526020600020908101928215612c4a579160200282015b82811115612c495782518260006101000a81548173ffffffffffffffffffffffffffffffffffffffff021916908373ffffffffffffffffffffffffffffffffffffffff16021790555091602001919060010190612bf1565b5b509050612c579190612cb2565b5090565b60405180610140016040528060608152602001606081526020016060815260200160008152602001600081526020016000815260200160001515815260200160001515815260200160008152602001606081525090565b5b80821115612ccb576000816000905550600101612cb3565b5090565b6000604051905090565b600080fd5b600080fd5b60007fffffffff0000000000000000000000000000000000000000000000000000000082169050919050565b612d1881612ce3565b8114612d2357600080fd5b50565b600081359050612d3581612d0f565b92915050565b600060208284031215612d5157612d50612cd9565b5b6000612d5f84828501612d26565b91505092915050565b60008115159050919050565b612d7d81612d68565b82525050565b6000602082019050612d986000830184612d74565b92915050565b600081519050919050565b600082825260208201905092915050565b60005b83811015612dd8578082015181840152602081019050612dbd565b83811115612de7576000848401525b50505050565b6000601f19601f8301169050919050565b6000612e0982612d9e565b612e138185612da9565b9350612e23818560208601612dba565b612e2c81612ded565b840191505092915050565b60006020820190508181036000830152612e518184612dfe565b905092915050565b600073ffffffffffffffffffffffffffffffffffffffff82169050919050565b6000612e8482612e59565b9050919050565b612e9481612e79565b82525050565b6000602082019050612eaf6000830184612e8b565b92915050565b6000819050919050565b612ec881612eb5565b8114612ed357600080fd5b50565b600081359050612ee581612ebf565b92915050565b600060208284031215612f0157612f00612cd9565b5b6000612f0f84828501612ed6565b91505092915050565b612f2181612e79565b8114612f2c57600080fd5b50565b600081359050612f3e81612f18565b92915050565b60008060408385031215612f5b57612f5a612cd9565b5b6000612f6985828601612f2f565b9250506020612f7a85828601612ed6565b9150509250929050565b600080fd5b600080fd5b7f4e487b7100000000000000000000000000000000000000000000000000000000600052604160045260246000fd5b612fc682612ded565b810181811067ffffffffffffffff82111715612fe557612fe4612f8e565b5b80604052505050565b6000612ff8612ccf565b90506130048282612fbd565b919050565b600067ffffffffffffffff82111561302457613023612f8e565b5b61302d82612ded565b9050602081019050919050565b82818337600083830152505050565b600061305c61305784613009565b612fee565b90508281526020810184848401111561307857613077612f89565b5b61308384828561303a565b509392505050565b600082601f8301126130a05761309f612f84565b5b81356130b0848260208601613049565b91505092915050565b6000806000606084860312156130d2576130d1612cd9565b5b600084013567ffffffffffffffff8111156130f0576130ef612cde565b5b6130fc8682870161308b565b935050602084013567ffffffffffffffff81111561311d5761311c612cde565b5b6131298682870161308b565b925050604084013567ffffffffffffffff81111561314a57613149612cde565b5b6131568682870161308b565b9150509250925092565b60008060006060848603121561317957613178612cd9565b5b600061318786828701612f2f565b935050602061319886828701612f2f565b92505060406131a986828701612ed6565b9150509250925092565b600081519050919050565b600082825260208201905092915050565b6000819050602082019050919050565b600082825260208201905092915050565b60006131fb82612d9e565b61320581856131df565b9350613215818560208601612dba565b61321e81612ded565b840191505092915050565b61323281612eb5565b82525050565b61324181612d68565b82525050565b600081519050919050565b600082825260208201905092915050565b6000819050602082019050919050565b61327c81612e79565b82525050565b600061328e8383613273565b60208301905092915050565b6000602082019050919050565b60006132b282613247565b6132bc8185613252565b93506132c783613263565b8060005b838110156132f85781516132df8882613282565b97506132ea8361329a565b9250506001810190506132cb565b5085935050505092915050565b600061014083016000830151848203600086015261332382826131f0565b9150506020830151848203602086015261333d82826131f0565b9150506040830151848203604086015261335782826131f0565b915050606083015161336c6060860182613229565b50608083015161337f6080860182613229565b5060a083015161339260a0860182613229565b5060c08301516133a560c0860182613238565b5060e08301516133b860e0860182613238565b506101008301516133cd610100860182613229565b506101208301518482036101208601526133e782826132a7565b9150508091505092915050565b60006134008383613305565b905092915050565b6000602082019050919050565b6000613420826131b3565b61342a81856131be565b93508360208202850161343c856131cf565b8060005b85811015613478578484038952815161345985826133f4565b945061346483613408565b925060208a01995050600181019050613440565b50829750879550505050505092915050565b600060208201905081810360008301526134a48184613415565b905092915050565b60006101408301600083015184820360008601526134ca82826131f0565b915050602083015184820360208601526134e482826131f0565b915050604083015184820360408601526134fe82826131f0565b91505060608301516135136060860182613229565b5060808301516135266080860182613229565b5060a083015161353960a0860182613229565b5060c083015161354c60c0860182613238565b5060e083015161355f60e0860182613238565b50610100830151613574610100860182613229565b5061012083015184820361012086015261358e82826132a7565b9150508091505092915050565b600060208201905081810360008301526135b581846134ac565b905092915050565b6000602082840312156135d3576135d2612cd9565b5b60006135e184828501612f2f565b91505092915050565b6135f381612eb5565b82525050565b600060208201905061360e60008301846135ea565b92915050565b600081519050919050565b600082825260208201905092915050565b6000819050602082019050919050565b6000606083016000830151848203600086015261365d82826131f0565b9150506020830151848203602086015261367782826131f0565b915050604083015161368c6040860182613229565b508091505092915050565b60006136a38383613640565b905092915050565b6000602082019050919050565b60006136c382613614565b6136cd818561361f565b9350836020820285016136df85613630565b8060005b8581101561371b57848403895281516136fc8582613697565b9450613707836136ab565b925060208a019950506001810190506136e3565b50829750879550505050505092915050565b6000602082019050818103600083015261374781846136b8565b905092915050565b61375881612d68565b811461376357600080fd5b50565b6000813590506137758161374f565b92915050565b6000806040838503121561379257613791612cd9565b5b60006137a085828601612f2f565b92505060206137b185828601613766565b9150509250929050565b6000806000606084860312156137d4576137d3612cd9565b5b600084013567ffffffffffffffff8111156137f2576137f1612cde565b5b6137fe8682870161308b565b935050602084013567ffffffffffffffff81111561381f5761381e612cde565b5b61382b8682870161308b565b925050604061383c86828701612ed6565b9150509250925092565b600067ffffffffffffffff82111561386157613860612f8e565b5b61386a82612ded565b9050602081019050919050565b600061388a61388584613846565b612fee565b9050828152602081018484840111156138a6576138a5612f89565b5b6138b184828561303a565b509392505050565b600082601f8301126138ce576138cd612f84565b5b81356138de848260208601613877565b91505092915050565b6000806000806080858703121561390157613900612cd9565b5b600061390f87828801612f2f565b945050602061392087828801612f2f565b935050604061393187828801612ed6565b925050606085013567ffffffffffffffff81111561395257613951612cde565b5b61395e878288016138b9565b91505092959194509250565b6000806040838503121561398157613980612cd9565b5b600061398f85828601612f2f565b92505060206139a085828601612f2f565b9150509250929050565b600080604083850312156139c1576139c0612cd9565b5b60006139cf85828601612ed6565b92505060206139e085828601613766565b9150509250929050565b7f4e487b7100000000000000000000000000000000000000000000000000000000600052602260045260246000fd5b60006002820490506001821680613a3157607f821691505b60208210811415613a4557613a446139ea565b5b50919050565b7f4552433732313a20617070726f76616c20746f2063757272656e74206f776e6560008201527f7200000000000000000000000000000000000000000000000000000000000000602082015250565b6000613aa7602183612da9565b9150613ab282613a4b565b604082019050919050565b60006020820190508181036000830152613ad681613a9a565b9050919050565b7f4552433732313a20617070726f76652063616c6c6572206973206e6f7420746f60008201527f6b656e206f776e6572206e6f7220617070726f76656420666f7220616c6c0000602082015250565b6000613b39603e83612da9565b9150613b4482613add565b604082019050919050565b60006020820190508181036000830152613b6881613b2c565b9050919050565b7f4e487b7100000000000000000000000000000000000000000000000000000000600052601160045260246000fd5b6000613ba982612eb5565b9150613bb483612eb5565b925082821015613bc757613bc6613b6f565b5b828203905092915050565b7f4e487b7100000000000000000000000000000000000000000000000000000000600052603260045260246000fd5b60008190508160005260206000209050919050565b60008154613c2381613a19565b613c2d81866131df565b94506001821660008114613c485760018114613c5a57613c8d565b60ff1983168652602086019350613c8d565b613c6385613c01565b60005b83811015613c8557815481890152600182019150602081019050613c66565b808801955050505b50505092915050565b60008160001c9050919050565b6000819050919050565b6000613cc0613cbb83613c96565b613ca3565b9050919050565b600060ff82169050919050565b6000613ce7613ce283613c96565b613cc7565b9050919050565b60008160081c9050919050565b6000613d0e613d0983613cee565b613cc7565b9050919050565b600081549050919050565b60008190508160005260206000209050919050565b600073ffffffffffffffffffffffffffffffffffffffff82169050919050565b6000613d68613d6383613c96565b613d35565b9050919050565b6000613d7b8254613d55565b9050919050565b6000600182019050919050565b6000613d9a82613d15565b613da48185613252565b9350613daf83613d20565b8060005b83811015613de757613dc482613d6f565b613dce8882613282565b9750613dd983613d82565b925050600181019050613db3565b5085935050505092915050565b6000610140830160008084018583036000870152613e128382613c16565b925050600184018583036020870152613e2b8382613c16565b925050600284018583036040870152613e448382613c16565b92505060038401549050613e5781613cad565b613e646060870182613229565b5060048401549050613e7581613cad565b613e826080870182613229565b5060058401549050613e9381613cad565b613ea060a0870182613229565b5060068401549050613eb181613cd4565b613ebe60c0870182613238565b50613ec881613cfb565b613ed560e0870182613238565b5060078401549050613ee681613cad565b613ef4610100870182613229565b5060088401858303610120870152613f0c8382613d8f565b925050819250505092915050565b60006020820190508181036000830152613f348184613df4565b905092915050565b6000613f4782612eb5565b9150613f5283612eb5565b9250827fffffffffffffffffffffffffffffffffffffffffffffffffffffffffffffffff03821115613f8757613f86613b6f565b5b828201905092915050565b7f4552433732313a2063616c6c6572206973206e6f7420746f6b656e206f776e6560008201527f72206e6f7220617070726f766564000000000000000000000000000000000000602082015250565b6000613fee602e83612da9565b9150613ff982613f92565b604082019050919050565b6000602082019050818103600083015261401d81613fe1565b9050919050565b7f4552433732313a20696e76616c696420746f6b656e2049440000000000000000600082015250565b600061405a601883612da9565b915061406582614024565b602082019050919050565b600060208201905081810360008301526140898161404d565b9050919050565b7f4552433732313a2061646472657373207a65726f206973206e6f74206120766160008201527f6c6964206f776e65720000000000000000000000000000000000000000000000602082015250565b60006140ec602983612da9565b91506140f782614090565b604082019050919050565b6000602082019050818103600083015261411b816140df565b9050919050565b600081905092915050565b7f7b226e616d65223a202200000000000000000000000000000000000000000000600082015250565b6000614163600a83614122565b915061416e8261412d565b600a82019050919050565b6000815461418681613a19565b6141908186614122565b945060018216600081146141ab57600181146141bc576141ef565b60ff198316865281860193506141ef565b6141c585613c01565b60005b838110156141e7578154818901526001820191506020810190506141c8565b838801955050505b50505092915050565b7f202d2d204e465420233a20000000000000000000000000000000000000000000600082015250565b600061422e600b83614122565b9150614239826141f8565b600b82019050919050565b600061424f82612d9e565b6142598185614122565b9350614269818560208601612dba565b80840191505092915050565b7f222c20226465736372697074696f6e223a2022416e2065706963204e4654222c60008201527f2022696d616765223a2022697066733a2f2f0000000000000000000000000000602082015250565b60006142d1603283614122565b91506142dc82614275565b603282019050919050565b7f227d000000000000000000000000000000000000000000000000000000000000600082015250565b600061431d600283614122565b9150614328826142e7565b600282019050919050565b600061433e82614156565b915061434a8286614179565b915061435582614221565b91506143618285614244565b915061436c826142c4565b91506143788284614179565b915061438382614310565b9150819050949350505050565b7f646174613a6170706c69636174696f6e2f6a736f6e3b6261736536342c000000600082015250565b60006143c6601d83614122565b91506143d182614390565b601d82019050919050565b60006143e7826143b9565b91506143f38284614244565b915081905092915050565b7f54686973206964656120697320616c72656164792066696e69736865642e0000600082015250565b6000614434601e83612da9565b915061443f826143fe565b602082019050919050565b6000602082019050818103600083015261446381614427565b9050919050565b7f596f7520616c726561647920766f746564207468697320696465612e00000000600082015250565b60006144a0601c83612da9565b91506144ab8261446a565b602082019050919050565b600060208201905081810360008301526144cf81614493565b9050919050565b60006144e182612eb5565b91507fffffffffffffffffffffffffffffffffffffffffffffffffffffffffffffffff82141561451457614513613b6f565b5b600182019050919050565b7f4552433732313a207472616e736665722066726f6d20696e636f72726563742060008201527f6f776e6572000000000000000000000000000000000000000000000000000000602082015250565b600061457b602583612da9565b91506145868261451f565b604082019050919050565b600060208201905081810360008301526145aa8161456e565b9050919050565b7f4552433732313a207472616e7366657220746f20746865207a65726f2061646460008201527f7265737300000000000000000000000000000000000000000000000000000000602082015250565b600061460d602483612da9565b9150614618826145b1565b604082019050919050565b6000602082019050818103600083015261463c81614600565b9050919050565b7f4552433732313a20617070726f766520746f2063616c6c657200000000000000600082015250565b6000614679601983612da9565b915061468482614643565b602082019050919050565b600060208201905081810360008301526146a88161466c565b9050919050565b600060608201905081810360008301526146c98186612dfe565b90506146d860208301856135ea565b6146e56040830184612e8b565b949350505050565b7f4552433732313a207472616e7366657220746f206e6f6e20455243373231526560008201527f63656976657220696d706c656d656e7465720000000000000000000000000000602082015250565b6000614749603283612da9565b9150614754826146ed565b604082019050919050565b600060208201905081810360008301526147788161473c565b9050919050565b7f4e487b7100000000000000000000000000000000000000000000000000000000600052601260045260246000fd5b60006147b982612eb5565b91506147c483612eb5565b9250826147d4576147d361477f565b5b828204905092915050565b60006147ea82612eb5565b91506147f583612eb5565b9250826148055761480461477f565b5b828206905092915050565b600061481b82612eb5565b915061482683612eb5565b9250817fffffffffffffffffffffffffffffffffffffffffffffffffffffffffffffffff048311821515161561485f5761485e613b6f565b5b828202905092915050565b600081519050919050565b600082825260208201905092915050565b60006148918261486a565b61489b8185614875565b93506148ab818560208601612dba565b6148b481612ded565b840191505092915050565b60006080820190506148d46000830187612e8b565b6148e16020830186612e8b565b6148ee60408301856135ea565b81810360608301526149008184614886565b905095945050505050565b60008151905061491a81612d0f565b92915050565b60006020828403121561493657614935612cd9565b5b60006149448482850161490b565b91505092915050565b7f4552433732313a206d696e7420746f20746865207a65726f2061646472657373600082015250565b6000614983602083612da9565b915061498e8261494d565b602082019050919050565b600060208201905081810360008301526149b281614976565b9050919050565b7f4552433732313a20746f6b656e20616c7265616479206d696e74656400000000600082015250565b60006149ef601c83612da9565b91506149fa826149b9565b602082019050919050565b60006020820190508181036000830152614a1e816149e2565b905091905056fe416e204e465420772f20494420257320686173206265656e206d696e74656420746f2025734142434445464748494a4b4c4d4e4f505152535455565758595a6162636465666768696a6b6c6d6e6f707172737475767778797a303132333435363738392b2fa2646970667358221220c6c337a68374737c1aff420234c1e8804c8a7bc3429252f33a45ef824dae3ee964736f6c63430008090033",
	"linkReferences": {},
	"deployedLinkReferences": {}
}