{
	"_format": "hh-sol-artifact-1",
	"contractName": "VotePortal",
	"sourceName": "contracts/Vote.sol",
	"abi": [
		{
			"inputs": [],
			"stateMutability": "nonpayable",
			"type": "constructor"
		},
		{
			"anonymous": false,
			"inputs": [
				{
					"indexed": true,
					"internalType": "address",
					"name": "owner",
					"type": "address"
				},
				{
					"indexed": true,
					"internalType": "address",
					"name": "approved",
					"type": "address"
				},
				{
					"indexed": true,
					"internalType": "uint256",
					"name": "tokenId",
					"type": "uint256"
				}
			],
			"name": "Approval",
			"type": "event"
		},
		{
			"anonymous": false,
			"inputs": [
				{
					"indexed": true,
					"internalType": "address",
					"name": "owner",
					"type": "address"
				},
				{
					"indexed": true,
					"internalType": "address",
					"name": "operator",
					"type": "address"
				},
				{
					"indexed": false,
					"internalType": "bool",
					"name": "approved",
					"type": "bool"
				}
			],
			"name": "ApprovalForAll",
			"type": "event"
		},
		{
			"anonymous": false,
			"inputs": [
				{
					"components": [
						{
							"internalType": "string",
							"name": "name",
							"type": "string"
						},
						{
							"internalType": "string",
							"name": "ideaURL",
							"type": "string"
						},
						{
							"internalType": "uint256",
							"name": "totalVotes",
							"type": "uint256"
						},
						{
							"internalType": "bool",
							"name": "isFinished",
							"type": "bool"
						},
						{
							"internalType": "address[]",
							"name": "votedAddresses",
							"type": "address[]"
						}
					],
					"indexed": false,
					"internalType": "struct VotePortal.idea",
					"name": "Idea",
					"type": "tuple"
				}
			],
			"name": "FinishVote",
			"type": "event"
		},
		{
			"anonymous": false,
			"inputs": [
				{
					"indexed": true,
					"internalType": "address",
					"name": "from",
					"type": "address"
				},
				{
					"components": [
						{
							"internalType": "string",
							"name": "name",
							"type": "string"
						},
						{
							"internalType": "string",
							"name": "ideaURL",
							"type": "string"
						},
						{
							"internalType": "uint256",
							"name": "totalVotes",
							"type": "uint256"
						},
						{
							"internalType": "bool",
							"name": "isFinished",
							"type": "bool"
						},
						{
							"internalType": "address[]",
							"name": "votedAddresses",
							"type": "address[]"
						}
					],
					"indexed": false,
					"internalType": "struct VotePortal.idea",
					"name": "Idea",
					"type": "tuple"
				}
			],
			"name": "NewIdea",
			"type": "event"
		},
		{
			"anonymous": false,
			"inputs": [
				{
					"components": [
						{
							"internalType": "string",
							"name": "name",
							"type": "string"
						},
						{
							"internalType": "string",
							"name": "ideaURL",
							"type": "string"
						},
						{
							"internalType": "uint256",
							"name": "totalVotes",
							"type": "uint256"
						},
						{
							"internalType": "bool",
							"name": "isFinished",
							"type": "bool"
						},
						{
							"internalType": "address[]",
							"name": "votedAddresses",
							"type": "address[]"
						}
					],
					"indexed": false,
					"internalType": "struct VotePortal.idea",
					"name": "Idea",
					"type": "tuple"
				}
			],
			"name": "NewNFT",
			"type": "event"
		},
		{
			"anonymous": false,
			"inputs": [
				{
					"indexed": true,
					"internalType": "address",
					"name": "from",
					"type": "address"
				},
				{
					"indexed": true,
					"internalType": "address",
					"name": "to",
					"type": "address"
				},
				{
					"indexed": true,
					"internalType": "uint256",
					"name": "tokenId",
					"type": "uint256"
				}
			],
			"name": "Transfer",
			"type": "event"
		},
		{
			"anonymous": false,
			"inputs": [
				{
					"indexed": true,
					"internalType": "address",
					"name": "from",
					"type": "address"
				},
				{
					"components": [
						{
							"internalType": "string",
							"name": "name",
							"type": "string"
						},
						{
							"internalType": "string",
							"name": "ideaURL",
							"type": "string"
						},
						{
							"internalType": "uint256",
							"name": "totalVotes",
							"type": "uint256"
						},
						{
							"internalType": "bool",
							"name": "isFinished",
							"type": "bool"
						},
						{
							"internalType": "address[]",
							"name": "votedAddresses",
							"type": "address[]"
						}
					],
					"indexed": false,
					"internalType": "struct VotePortal.idea",
					"name": "Idea",
					"type": "tuple"
				}
			],
			"name": "VoteSomething",
			"type": "event"
		},
		{
			"inputs": [
				{
					"internalType": "string",
					"name": "_name",
					"type": "string"
				},
				{
					"internalType": "string",
					"name": "_ideaURL",
					"type": "string"
				}
			],
			"name": "addIdea",
			"outputs": [],
			"stateMutability": "nonpayable",
			"type": "function"
		},
		{
			"inputs": [
				{
					"internalType": "address",
					"name": "to",
					"type": "address"
				},
				{
					"internalType": "uint256",
					"name": "tokenId",
					"type": "uint256"
				}
			],
			"name": "approve",
			"outputs": [],
			"stateMutability": "nonpayable",
			"type": "function"
		},
		{
			"inputs": [
				{
					"internalType": "address",
					"name": "owner",
					"type": "address"
				}
			],
			"name": "balanceOf",
			"outputs": [
				{
					"internalType": "uint256",
					"name": "",
					"type": "uint256"
				}
			],
			"stateMutability": "view",
			"type": "function"
		},
		{
			"inputs": [],
			"name": "getAllIdeas",
			"outputs": [
				{
					"components": [
						{
							"internalType": "string",
							"name": "name",
							"type": "string"
						},
						{
							"internalType": "string",
							"name": "ideaURL",
							"type": "string"
						},
						{
							"internalType": "uint256",
							"name": "totalVotes",
							"type": "uint256"
						},
						{
							"internalType": "bool",
							"name": "isFinished",
							"type": "bool"
						},
						{
							"internalType": "address[]",
							"name": "votedAddresses",
							"type": "address[]"
						}
					],
					"internalType": "struct VotePortal.idea[]",
					"name": "",
					"type": "tuple[]"
				}
			],
			"stateMutability": "view",
			"type": "function"
		},
		{
			"inputs": [
				{
					"internalType": "uint256",
					"name": "tokenId",
					"type": "uint256"
				}
			],
			"name": "getApproved",
			"outputs": [
				{
					"internalType": "address",
					"name": "",
					"type": "address"
				}
			],
			"stateMutability": "view",
			"type": "function"
		},
		{
			"inputs": [
				{
					"internalType": "uint256",
					"name": "_index",
					"type": "uint256"
				}
			],
			"name": "getIdea",
			"outputs": [
				{
					"components": [
						{
							"internalType": "string",
							"name": "name",
							"type": "string"
						},
						{
							"internalType": "string",
							"name": "ideaURL",
							"type": "string"
						},
						{
							"internalType": "uint256",
							"name": "totalVotes",
							"type": "uint256"
						},
						{
							"internalType": "bool",
							"name": "isFinished",
							"type": "bool"
						},
						{
							"internalType": "address[]",
							"name": "votedAddresses",
							"type": "address[]"
						}
					],
					"internalType": "struct VotePortal.idea",
					"name": "",
					"type": "tuple"
				}
			],
			"stateMutability": "view",
			"type": "function"
		},
		{
			"inputs": [
				{
					"internalType": "address",
					"name": "owner",
					"type": "address"
				},
				{
					"internalType": "address",
					"name": "operator",
					"type": "address"
				}
			],
			"name": "isApprovedForAll",
			"outputs": [
				{
					"internalType": "bool",
					"name": "",
					"type": "bool"
				}
			],
			"stateMutability": "view",
			"type": "function"
		},
		{
			"inputs": [
				{
					"internalType": "string",
					"name": "name",
					"type": "string"
				},
				{
					"internalType": "string",
					"name": "ideaURI",
					"type": "string"
				}
			],
			"name": "mintIpfsNFT",
			"outputs": [],
			"stateMutability": "nonpayable",
			"type": "function"
		},
		{
			"inputs": [],
			"name": "minter",
			"outputs": [
				{
					"internalType": "address",
					"name": "",
					"type": "address"
				}
			],
			"stateMutability": "view",
			"type": "function"
		},
		{
			"inputs": [],
			"name": "name",
			"outputs": [
				{
					"internalType": "string",
					"name": "",
					"type": "string"
				}
			],
			"stateMutability": "view",
			"type": "function"
		},
		{
			"inputs": [
				{
					"internalType": "uint256",
					"name": "tokenId",
					"type": "uint256"
				}
			],
			"name": "ownerOf",
			"outputs": [
				{
					"internalType": "address",
					"name": "",
					"type": "address"
				}
			],
			"stateMutability": "view",
			"type": "function"
		},
		{
			"inputs": [
				{
					"internalType": "address",
					"name": "from",
					"type": "address"
				},
				{
					"internalType": "address",
					"name": "to",
					"type": "address"
				},
				{
					"internalType": "uint256",
					"name": "tokenId",
					"type": "uint256"
				}
			],
			"name": "safeTransferFrom",
			"outputs": [],
			"stateMutability": "nonpayable",
			"type": "function"
		},
		{
			"inputs": [
				{
					"internalType": "address",
					"name": "from",
					"type": "address"
				},
				{
					"internalType": "address",
					"name": "to",
					"type": "address"
				},
				{
					"internalType": "uint256",
					"name": "tokenId",
					"type": "uint256"
				},
				{
					"internalType": "bytes",
					"name": "data",
					"type": "bytes"
				}
			],
			"name": "safeTransferFrom",
			"outputs": [],
			"stateMutability": "nonpayable",
			"type": "function"
		},
		{
			"inputs": [
				{
					"internalType": "address",
					"name": "operator",
					"type": "address"
				},
				{
					"internalType": "bool",
					"name": "approved",
					"type": "bool"
				}
			],
			"name": "setApprovalForAll",
			"outputs": [],
			"stateMutability": "nonpayable",
			"type": "function"
		},
		{
			"inputs": [
				{
					"internalType": "bytes4",
					"name": "interfaceId",
					"type": "bytes4"
				}
			],
			"name": "supportsInterface",
			"outputs": [
				{
					"internalType": "bool",
					"name": "",
					"type": "bool"
				}
			],
			"stateMutability": "view",
			"type": "function"
		},
		{
			"inputs": [],
			"name": "symbol",
			"outputs": [
				{
					"internalType": "string",
					"name": "",
					"type": "string"
				}
			],
			"stateMutability": "view",
			"type": "function"
		},
		{
			"inputs": [
				{
					"internalType": "uint256",
					"name": "_tokenId",
					"type": "uint256"
				}
			],
			"name": "tokenURI",
			"outputs": [
				{
					"internalType": "string",
					"name": "",
					"type": "string"
				}
			],
			"stateMutability": "view",
			"type": "function"
		},
		{
			"inputs": [
				{
					"internalType": "address",
					"name": "from",
					"type": "address"
				},
				{
					"internalType": "address",
					"name": "to",
					"type": "address"
				},
				{
					"internalType": "uint256",
					"name": "tokenId",
					"type": "uint256"
				}
			],
			"name": "transferFrom",
			"outputs": [],
			"stateMutability": "nonpayable",
			"type": "function"
		},
		{
			"inputs": [
				{
					"internalType": "uint256",
					"name": "idea_index",
					"type": "uint256"
				}
			],
			"name": "voteIdea",
			"outputs": [],
			"stateMutability": "nonpayable",
			"type": "function"
		}
	],
	"bytecode": "0x60806040523480156200001157600080fd5b506040518060400160405280600381526020017f4e465400000000000000000000000000000000000000000000000000000000008152506040518060400160405280600381526020017f6e6674000000000000000000000000000000000000000000000000000000000081525081600090805190602001906200009692919062000210565b508060019080519060200190620000af92919062000210565b505050620000fd6040518060400160405280601881526020017f54686973206973206d79204e465420636f6e74726163742e00000000000000008152506200014460201b620014f11760201c565b33600860006101000a81548173ffffffffffffffffffffffffffffffffffffffff021916908373ffffffffffffffffffffffffffffffffffffffff160217905550620003ed565b620001e4816040516024016200015b919062000364565b6040516020818303038152906040527f41304fac000000000000000000000000000000000000000000000000000000007bffffffffffffffffffffffffffffffffffffffffffffffffffffffff19166020820180517bffffffffffffffffffffffffffffffffffffffffffffffffffffffff8381831617835250505050620001e760201b60201c565b50565b60008151905060006a636f6e736f6c652e6c6f679050602083016000808483855afa5050505050565b8280546200021e90620003b7565b90600052602060002090601f0160209004810192826200024257600085556200028e565b82601f106200025d57805160ff19168380011785556200028e565b828001600101855582156200028e579182015b828111156200028d57825182559160200191906001019062000270565b5b5090506200029d9190620002a1565b5090565b5b80821115620002bc576000816000905550600101620002a2565b5090565b600081519050919050565b600082825260208201905092915050565b60005b83811015620002fc578082015181840152602081019050620002df565b838111156200030c576000848401525b50505050565b6000601f19601f8301169050919050565b60006200033082620002c0565b6200033c8185620002cb565b93506200034e818560208601620002dc565b620003598162000312565b840191505092915050565b6000602082019050818103600083015262000380818462000323565b905092915050565b7f4e487b7100000000000000000000000000000000000000000000000000000000600052602260045260246000fd5b60006002820490506001821680620003d057607f821691505b60208210811415620003e757620003e662000388565b5b50919050565b61429380620003fd6000396000f3fe608060405234801561001057600080fd5b50600436106101215760003560e01c806342842e0e116100ad578063a22cb46511610071578063a22cb4651461031a578063b88d4fde14610336578063c87b56dd14610352578063e985e9c514610382578063eb00195d146103b257610121565b806342842e0e1461025057806344de6b2f1461026c5780636352211e1461029c57806370a08231146102cc57806395d89b41146102fc57610121565b8063095ea7b3116100f4578063095ea7b3146101c257806316867f6a146101de57806323b872dd146101fa57806334e144bd146102165780633a9e6af01461023257610121565b806301ffc9a71461012657806306fdde03146101565780630754617214610174578063081812fc14610192575b600080fd5b610140600480360381019061013b91906128cd565b6103ce565b60405161014d9190612915565b60405180910390f35b61015e6104b0565b60405161016b91906129c9565b60405180910390f35b61017c610542565b6040516101899190612a2c565b60405180910390f35b6101ac60048036038101906101a79190612a7d565b610568565b6040516101b99190612a2c565b60405180910390f35b6101dc60048036038101906101d79190612ad6565b6105ae565b005b6101f860048036038101906101f39190612a7d565b6106c6565b005b610214600480360381019061020f9190612b16565b6109ea565b005b610230600480360381019061022b9190612c9e565b610a4a565b005b61023a610c0a565b6040516102479190612f82565b60405180910390f35b61026a60048036038101906102659190612b16565b610e40565b005b61028660048036038101906102819190612a7d565b610e60565b6040516102939190613028565b60405180910390f35b6102b660048036038101906102b19190612a7d565b611073565b6040516102c39190612a2c565b60405180910390f35b6102e660048036038101906102e1919061304a565b611125565b6040516102f39190613086565b60405180910390f35b6103046111dd565b60405161031191906129c9565b60405180910390f35b610334600480360381019061032f91906130cd565b61126f565b005b610350600480360381019061034b91906131ae565b611285565b005b61036c60048036038101906103679190612a7d565b6112e7565b60405161037991906129c9565b60405180910390f35b61039c60048036038101906103979190613231565b611397565b6040516103a99190612915565b60405180910390f35b6103cc60048036038101906103c79190612c9e565b61142b565b005b60007f80ac58cd000000000000000000000000000000000000000000000000000000007bffffffffffffffffffffffffffffffffffffffffffffffffffffffff1916827bffffffffffffffffffffffffffffffffffffffffffffffffffffffff1916148061049957507f5b5e139f000000000000000000000000000000000000000000000000000000007bffffffffffffffffffffffffffffffffffffffffffffffffffffffff1916827bffffffffffffffffffffffffffffffffffffffffffffffffffffffff1916145b806104a957506104a88261158a565b5b9050919050565b6060600080546104bf906132a0565b80601f01602080910402602001604051908101604052809291908181526020018280546104eb906132a0565b80156105385780601f1061050d57610100808354040283529160200191610538565b820191906000526020600020905b81548152906001019060200180831161051b57829003601f168201915b5050505050905090565b600860009054906101000a900473ffffffffffffffffffffffffffffffffffffffff1681565b6000610573826115f4565b6004600083815260200190815260200160002060009054906101000a900473ffffffffffffffffffffffffffffffffffffffff169050919050565b60006105b982611073565b90508073ffffffffffffffffffffffffffffffffffffffff168373ffffffffffffffffffffffffffffffffffffffff16141561062a576040517f08c379a000000000000000000000000000000000000000000000000000000000815260040161062190613344565b60405180910390fd5b8073ffffffffffffffffffffffffffffffffffffffff1661064961163f565b73ffffffffffffffffffffffffffffffffffffffff16148061067857506106778161067261163f565b611397565b5b6106b7576040517f08c379a00000000000000000000000000000000000000000000000000000000081526004016106ae906133d6565b60405180910390fd5b6106c18383611647565b505050565b600b81815481106106da576106d96133f6565b5b906000526020600020906005020160030160009054906101000a900460ff1615610739576040517f08c379a000000000000000000000000000000000000000000000000000000000815260040161073090613471565b60405180910390fd5b600860009054906101000a900473ffffffffffffffffffffffffffffffffffffffff1673ffffffffffffffffffffffffffffffffffffffff163373ffffffffffffffffffffffffffffffffffffffff16141561079d5761079881611700565b6109e7565b60005b600b82815481106107b4576107b36133f6565b5b9060005260206000209060050201600401805490508110156108b3573373ffffffffffffffffffffffffffffffffffffffff16600b83815481106107fb576107fa6133f6565b5b9060005260206000209060050201600401828154811061081e5761081d6133f6565b5b9060005260206000200160009054906101000a900473ffffffffffffffffffffffffffffffffffffffff1673ffffffffffffffffffffffffffffffffffffffff1614156108a0576040517f08c379a0000000000000000000000000000000000000000000000000000000008152600401610897906134dd565b60405180910390fd5b80806108ab9061352c565b9150506107a0565b506001600b82815481106108ca576108c96133f6565b5b906000526020600020906005020160020160008282546108ea9190613575565b925050819055503373ffffffffffffffffffffffffffffffffffffffff167fcb8c25f7e45446f3774ee81c7784bbaac645738f943be00d198e6363649c12c9600b838154811061093d5761093c6133f6565b5b90600052602060002090600502016040516109589190613830565b60405180910390a2600b8181548110610974576109736133f6565b5b9060005260206000209060050201600401339080600181540180825580915050600190039060005260206000200160009091909190916101000a81548173ffffffffffffffffffffffffffffffffffffffff021916908373ffffffffffffffffffffffffffffffffffffffff1602179055505b50565b6109fb6109f561163f565b826119f5565b610a3a576040517f08c379a0000000000000000000000000000000000000000000000000000000008152600401610a31906138c4565b60405180910390fd5b610a45838383611a8a565b505050565b600b6040518060a0016040528084815260200183815260200160008152602001600015158152602001600067ffffffffffffffff811115610a8e57610a8d612b73565b5b604051908082528060200260200182016040528015610abc5781602001602082028036833780820191505090505b5081525090806001815401808255809150506001900390600052602060002090600502016000909190919091506000820151816000019080519060200190610b05929190612703565b506020820151816001019080519060200190610b22929190612703565b506040820151816002015560608201518160030160006101000a81548160ff0219169083151502179055506080820151816004019080519060200190610b69929190612789565b5050503373ffffffffffffffffffffffffffffffffffffffff167f14d3d00b1f85f5e1e0b9bf61231d3836476659f55f9c0a69a8cc70e85d699f87600b6001600b80549050610bb891906138e4565b81548110610bc957610bc86133f6565b5b9060005260206000209060050201604051610be49190613830565b60405180910390a2600160096000828254610bff9190613575565b925050819055505050565b6060600b805480602002602001604051908101604052809291908181526020016000905b82821015610e3757838290600052602060002090600502016040518060a0016040529081600082018054610c61906132a0565b80601f0160208091040260200160405190810160405280929190818152602001828054610c8d906132a0565b8015610cda5780601f10610caf57610100808354040283529160200191610cda565b820191906000526020600020905b815481529060010190602001808311610cbd57829003601f168201915b50505050508152602001600182018054610cf3906132a0565b80601f0160208091040260200160405190810160405280929190818152602001828054610d1f906132a0565b8015610d6c5780601f10610d4157610100808354040283529160200191610d6c565b820191906000526020600020905b815481529060010190602001808311610d4f57829003601f168201915b50505050508152602001600282015481526020016003820160009054906101000a900460ff1615151515815260200160048201805480602002602001604051908101604052809291908181526020018280548015610e1f57602002820191906000526020600020905b8160009054906101000a900473ffffffffffffffffffffffffffffffffffffffff1673ffffffffffffffffffffffffffffffffffffffff1681526020019060010190808311610dd5575b50505050508152505081526020019060010190610c2e565b50505050905090565b610e5b83838360405180602001604052806000815250611285565b505050565b610e68612813565b600b8281548110610e7c57610e7b6133f6565b5b90600052602060002090600502016040518060a0016040529081600082018054610ea5906132a0565b80601f0160208091040260200160405190810160405280929190818152602001828054610ed1906132a0565b8015610f1e5780601f10610ef357610100808354040283529160200191610f1e565b820191906000526020600020905b815481529060010190602001808311610f0157829003601f168201915b50505050508152602001600182018054610f37906132a0565b80601f0160208091040260200160405190810160405280929190818152602001828054610f63906132a0565b8015610fb05780601f10610f8557610100808354040283529160200191610fb0565b820191906000526020600020905b815481529060010190602001808311610f9357829003601f168201915b50505050508152602001600282015481526020016003820160009054906101000a900460ff161515151581526020016004820180548060200260200160405190810160405280929190818152602001828054801561106357602002820191906000526020600020905b8160009054906101000a900473ffffffffffffffffffffffffffffffffffffffff1673ffffffffffffffffffffffffffffffffffffffff1681526020019060010190808311611019575b5050505050815250509050919050565b6000806002600084815260200190815260200160002060009054906101000a900473ffffffffffffffffffffffffffffffffffffffff169050600073ffffffffffffffffffffffffffffffffffffffff168173ffffffffffffffffffffffffffffffffffffffff16141561111c576040517f08c379a000000000000000000000000000000000000000000000000000000000815260040161111390613964565b60405180910390fd5b80915050919050565b60008073ffffffffffffffffffffffffffffffffffffffff168273ffffffffffffffffffffffffffffffffffffffff161415611196576040517f08c379a000000000000000000000000000000000000000000000000000000000815260040161118d906139f6565b60405180910390fd5b600360008373ffffffffffffffffffffffffffffffffffffffff1673ffffffffffffffffffffffffffffffffffffffff168152602001908152602001600020549050919050565b6060600180546111ec906132a0565b80601f0160208091040260200160405190810160405280929190818152602001828054611218906132a0565b80156112655780601f1061123a57610100808354040283529160200191611265565b820191906000526020600020905b81548152906001019060200180831161124857829003601f168201915b5050505050905090565b61128161127a61163f565b8383611cf1565b5050565b61129661129061163f565b836119f5565b6112d5576040517f08c379a00000000000000000000000000000000000000000000000000000000081526004016112cc906138c4565b60405180910390fd5b6112e184848484611e5e565b50505050565b60606000611367600a8481548110611302576113016133f6565b5b906000526020600020906002020160000161131c85611eba565b600a86815481106113305761132f6133f6565b5b906000526020600020906002020160010160405160200161135393929190613c27565b60405160208183030381529060405261201b565b905060008160405160200161137c9190613cd0565b60405160208183030381529060405290508092505050919050565b6000600560008473ffffffffffffffffffffffffffffffffffffffff1673ffffffffffffffffffffffffffffffffffffffff16815260200190815260200160002060008373ffffffffffffffffffffffffffffffffffffffff1673ffffffffffffffffffffffffffffffffffffffff16815260200190815260200160002060009054906101000a900460ff16905092915050565b60006114376007612194565b905061144333826121a2565b600a6040518060400160405280858152602001848152509080600181540180825580915050600190039060005260206000209060020201600090919091909150600082015181600001908051906020019061149f929190612703565b5060208201518160010190805190602001906114bc929190612703565b5050506114e26040518060600160405280602581526020016141f96025913982336121c0565b6114ec600761225f565b505050565b6115878160405160240161150591906129c9565b6040516020818303038152906040527f41304fac000000000000000000000000000000000000000000000000000000007bffffffffffffffffffffffffffffffffffffffffffffffffffffffff19166020820180517bffffffffffffffffffffffffffffffffffffffffffffffffffffffff8381831617835250505050612275565b50565b60007f01ffc9a7000000000000000000000000000000000000000000000000000000007bffffffffffffffffffffffffffffffffffffffffffffffffffffffff1916827bffffffffffffffffffffffffffffffffffffffffffffffffffffffff1916149050919050565b6115fd8161229e565b61163c576040517f08c379a000000000000000000000000000000000000000000000000000000000815260040161163390613964565b60405180910390fd5b50565b600033905090565b816004600083815260200190815260200160002060006101000a81548173ffffffffffffffffffffffffffffffffffffffff021916908373ffffffffffffffffffffffffffffffffffffffff160217905550808273ffffffffffffffffffffffffffffffffffffffff166116ba83611073565b73ffffffffffffffffffffffffffffffffffffffff167f8c5be1e5ebec7d5bd14f71427d1e84f3dd0314c0f7b2291e5b200ac8c7c3b92560405160405180910390a45050565b6001600b8281548110611716576117156133f6565b5b906000526020600020906005020160030160006101000a81548160ff0219169083151502179055507f14de1074f24693fb77864562abb401736633010ca56614285208faf2762f4055600b8281548110611773576117726133f6565b5b906000526020600020906005020160405161178e9190613830565b60405180910390a1600a600b82815481106117ac576117ab6133f6565b5b906000526020600020906005020160020154106119f257600a6040518060400160405280600b84815481106117e4576117e36133f6565b5b90600052602060002090600502016000018054611800906132a0565b80601f016020809104026020016040519081016040528092919081815260200182805461182c906132a0565b80156118795780601f1061184e57610100808354040283529160200191611879565b820191906000526020600020905b81548152906001019060200180831161185c57829003601f168201915b50505050508152602001600b8481548110611897576118966133f6565b5b906000526020600020906005020160010180546118b3906132a0565b80601f01602080910402602001604051908101604052809291908181526020018280546118df906132a0565b801561192c5780601f106119015761010080835404028352916020019161192c565b820191906000526020600020905b81548152906001019060200180831161190f57829003601f168201915b505050505081525090806001815401808255809150506001900390600052602060002090600202016000909190919091506000820151816000019080519060200190611979929190612703565b506020820151816001019080519060200190611996929190612703565b5050507f08f3af8606b32a12a5926100d9cc8e5c1edb778186dd861181b37d5f4d6eafa5600b82815481106119ce576119cd6133f6565b5b90600052602060002090600502016040516119e99190613830565b60405180910390a15b50565b600080611a0183611073565b90508073ffffffffffffffffffffffffffffffffffffffff168473ffffffffffffffffffffffffffffffffffffffff161480611a435750611a428185611397565b5b80611a8157508373ffffffffffffffffffffffffffffffffffffffff16611a6984610568565b73ffffffffffffffffffffffffffffffffffffffff16145b91505092915050565b8273ffffffffffffffffffffffffffffffffffffffff16611aaa82611073565b73ffffffffffffffffffffffffffffffffffffffff1614611b00576040517f08c379a0000000000000000000000000000000000000000000000000000000008152600401611af790613d64565b60405180910390fd5b600073ffffffffffffffffffffffffffffffffffffffff168273ffffffffffffffffffffffffffffffffffffffff161415611b70576040517f08c379a0000000000000000000000000000000000000000000000000000000008152600401611b6790613df6565b60405180910390fd5b611b7b83838361230a565b611b86600082611647565b6001600360008573ffffffffffffffffffffffffffffffffffffffff1673ffffffffffffffffffffffffffffffffffffffff1681526020019081526020016000206000828254611bd691906138e4565b925050819055506001600360008473ffffffffffffffffffffffffffffffffffffffff1673ffffffffffffffffffffffffffffffffffffffff1681526020019081526020016000206000828254611c2d9190613575565b92505081905550816002600083815260200190815260200160002060006101000a81548173ffffffffffffffffffffffffffffffffffffffff021916908373ffffffffffffffffffffffffffffffffffffffff160217905550808273ffffffffffffffffffffffffffffffffffffffff168473ffffffffffffffffffffffffffffffffffffffff167fddf252ad1be2c89b69c2b068fc378daa952ba7f163c4a11628f55a4df523b3ef60405160405180910390a4611cec83838361230f565b505050565b8173ffffffffffffffffffffffffffffffffffffffff168373ffffffffffffffffffffffffffffffffffffffff161415611d60576040517f08c379a0000000000000000000000000000000000000000000000000000000008152600401611d5790613e62565b60405180910390fd5b80600560008573ffffffffffffffffffffffffffffffffffffffff1673ffffffffffffffffffffffffffffffffffffffff16815260200190815260200160002060008473ffffffffffffffffffffffffffffffffffffffff1673ffffffffffffffffffffffffffffffffffffffff16815260200190815260200160002060006101000a81548160ff0219169083151502179055508173ffffffffffffffffffffffffffffffffffffffff168373ffffffffffffffffffffffffffffffffffffffff167f17307eab39ab6107e8899845ad3d59bd9653f200f220920489ca2b5937696c3183604051611e519190612915565b60405180910390a3505050565b611e69848484611a8a565b611e7584848484612314565b611eb4576040517f08c379a0000000000000000000000000000000000000000000000000000000008152600401611eab90613ef4565b60405180910390fd5b50505050565b60606000821415611f02576040518060400160405280600181526020017f30000000000000000000000000000000000000000000000000000000000000008152509050612016565b600082905060005b60008214611f34578080611f1d9061352c565b915050600a82611f2d9190613f43565b9150611f0a565b60008167ffffffffffffffff811115611f5057611f4f612b73565b5b6040519080825280601f01601f191660200182016040528015611f825781602001600182028036833780820191505090505b5090505b6000851461200f57600182611f9b91906138e4565b9150600a85611faa9190613f74565b6030611fb69190613575565b60f81b818381518110611fcc57611fcb6133f6565b5b60200101907effffffffffffffffffffffffffffffffffffffffffffffffffffffffffffff1916908160001a905350600a856120089190613f43565b9450611f86565b8093505050505b919050565b606060008251141561203e5760405180602001604052806000815250905061218f565b600060405180606001604052806040815260200161421e604091399050600060036002855161206d9190613575565b6120779190613f43565b60046120839190613fa5565b905060006020826120949190613575565b67ffffffffffffffff8111156120ad576120ac612b73565b5b6040519080825280601f01601f1916602001820160405280156120df5781602001600182028036833780820191505090505b509050818152600183018586518101602084015b8183101561214e576003830192508251603f8160121c168501518253600182019150603f81600c1c168501518253600182019150603f8160061c168501518253600182019150603f81168501518253600182019150506120f3565b600389510660018114612168576002811461217857612183565b613d3d60f01b6002830352612183565b603d60f81b60018303525b50505050508093505050505b919050565b600081600001549050919050565b6121bc8282604051806020016040528060008152506124ab565b5050565b61225a8383836040516024016121d893929190613fff565b6040516020818303038152906040527f1c7ec448000000000000000000000000000000000000000000000000000000007bffffffffffffffffffffffffffffffffffffffffffffffffffffffff19166020820180517bffffffffffffffffffffffffffffffffffffffffffffffffffffffff8381831617835250505050612275565b505050565b6001816000016000828254019250508190555050565b60008151905060006a636f6e736f6c652e6c6f679050602083016000808483855afa5050505050565b60008073ffffffffffffffffffffffffffffffffffffffff166002600084815260200190815260200160002060009054906101000a900473ffffffffffffffffffffffffffffffffffffffff1673ffffffffffffffffffffffffffffffffffffffff1614159050919050565b505050565b505050565b60006123358473ffffffffffffffffffffffffffffffffffffffff16612506565b1561249e578373ffffffffffffffffffffffffffffffffffffffff1663150b7a0261235e61163f565b8786866040518563ffffffff1660e01b81526004016123809493929190614092565b602060405180830381600087803b15801561239a57600080fd5b505af19250505080156123cb57506040513d601f19601f820116820180604052508101906123c891906140f3565b60015b61244e573d80600081146123fb576040519150601f19603f3d011682016040523d82523d6000602084013e612400565b606091505b50600081511415612446576040517f08c379a000000000000000000000000000000000000000000000000000000000815260040161243d90613ef4565b60405180910390fd5b805181602001fd5b63150b7a0260e01b7bffffffffffffffffffffffffffffffffffffffffffffffffffffffff1916817bffffffffffffffffffffffffffffffffffffffffffffffffffffffff1916149150506124a3565b600190505b949350505050565b6124b58383612529565b6124c26000848484612314565b612501576040517f08c379a00000000000000000000000000000000000000000000000000000000081526004016124f890613ef4565b60405180910390fd5b505050565b6000808273ffffffffffffffffffffffffffffffffffffffff163b119050919050565b600073ffffffffffffffffffffffffffffffffffffffff168273ffffffffffffffffffffffffffffffffffffffff161415612599576040517f08c379a00000000000000000000000000000000000000000000000000000000081526004016125909061416c565b60405180910390fd5b6125a28161229e565b156125e2576040517f08c379a00000000000000000000000000000000000000000000000000000000081526004016125d9906141d8565b60405180910390fd5b6125ee6000838361230a565b6001600360008473ffffffffffffffffffffffffffffffffffffffff1673ffffffffffffffffffffffffffffffffffffffff168152602001908152602001600020600082825461263e9190613575565b92505081905550816002600083815260200190815260200160002060006101000a81548173ffffffffffffffffffffffffffffffffffffffff021916908373ffffffffffffffffffffffffffffffffffffffff160217905550808273ffffffffffffffffffffffffffffffffffffffff16600073ffffffffffffffffffffffffffffffffffffffff167fddf252ad1be2c89b69c2b068fc378daa952ba7f163c4a11628f55a4df523b3ef60405160405180910390a46126ff6000838361230f565b5050565b82805461270f906132a0565b90600052602060002090601f0160209004810192826127315760008555612778565b82601f1061274a57805160ff1916838001178555612778565b82800160010185558215612778579182015b8281111561277757825182559160200191906001019061275c565b5b5090506127859190612844565b5090565b828054828255906000526020600020908101928215612802579160200282015b828111156128015782518260006101000a81548173ffffffffffffffffffffffffffffffffffffffff021916908373ffffffffffffffffffffffffffffffffffffffff160217905550916020019190600101906127a9565b5b50905061280f9190612844565b5090565b6040518060a00160405280606081526020016060815260200160008152602001600015158152602001606081525090565b5b8082111561285d576000816000905550600101612845565b5090565b6000604051905090565b600080fd5b600080fd5b60007fffffffff0000000000000000000000000000000000000000000000000000000082169050919050565b6128aa81612875565b81146128b557600080fd5b50565b6000813590506128c7816128a1565b92915050565b6000602082840312156128e3576128e261286b565b5b60006128f1848285016128b8565b91505092915050565b60008115159050919050565b61290f816128fa565b82525050565b600060208201905061292a6000830184612906565b92915050565b600081519050919050565b600082825260208201905092915050565b60005b8381101561296a57808201518184015260208101905061294f565b83811115612979576000848401525b50505050565b6000601f19601f8301169050919050565b600061299b82612930565b6129a5818561293b565b93506129b581856020860161294c565b6129be8161297f565b840191505092915050565b600060208201905081810360008301526129e38184612990565b905092915050565b600073ffffffffffffffffffffffffffffffffffffffff82169050919050565b6000612a16826129eb565b9050919050565b612a2681612a0b565b82525050565b6000602082019050612a416000830184612a1d565b92915050565b6000819050919050565b612a5a81612a47565b8114612a6557600080fd5b50565b600081359050612a7781612a51565b92915050565b600060208284031215612a9357612a9261286b565b5b6000612aa184828501612a68565b91505092915050565b612ab381612a0b565b8114612abe57600080fd5b50565b600081359050612ad081612aaa565b92915050565b60008060408385031215612aed57612aec61286b565b5b6000612afb85828601612ac1565b9250506020612b0c85828601612a68565b9150509250929050565b600080600060608486031215612b2f57612b2e61286b565b5b6000612b3d86828701612ac1565b9350506020612b4e86828701612ac1565b9250506040612b5f86828701612a68565b9150509250925092565b600080fd5b600080fd5b7f4e487b7100000000000000000000000000000000000000000000000000000000600052604160045260246000fd5b612bab8261297f565b810181811067ffffffffffffffff82111715612bca57612bc9612b73565b5b80604052505050565b6000612bdd612861565b9050612be98282612ba2565b919050565b600067ffffffffffffffff821115612c0957612c08612b73565b5b612c128261297f565b9050602081019050919050565b82818337600083830152505050565b6000612c41612c3c84612bee565b612bd3565b905082815260208101848484011115612c5d57612c5c612b6e565b5b612c68848285612c1f565b509392505050565b600082601f830112612c8557612c84612b69565b5b8135612c95848260208601612c2e565b91505092915050565b60008060408385031215612cb557612cb461286b565b5b600083013567ffffffffffffffff811115612cd357612cd2612870565b5b612cdf85828601612c70565b925050602083013567ffffffffffffffff811115612d0057612cff612870565b5b612d0c85828601612c70565b9150509250929050565b600081519050919050565b600082825260208201905092915050565b6000819050602082019050919050565b600082825260208201905092915050565b6000612d5e82612930565b612d688185612d42565b9350612d7881856020860161294c565b612d818161297f565b840191505092915050565b612d9581612a47565b82525050565b612da4816128fa565b82525050565b600081519050919050565b600082825260208201905092915050565b6000819050602082019050919050565b612ddf81612a0b565b82525050565b6000612df18383612dd6565b60208301905092915050565b6000602082019050919050565b6000612e1582612daa565b612e1f8185612db5565b9350612e2a83612dc6565b8060005b83811015612e5b578151612e428882612de5565b9750612e4d83612dfd565b925050600181019050612e2e565b5085935050505092915050565b600060a0830160008301518482036000860152612e858282612d53565b91505060208301518482036020860152612e9f8282612d53565b9150506040830151612eb46040860182612d8c565b506060830151612ec76060860182612d9b565b5060808301518482036080860152612edf8282612e0a565b9150508091505092915050565b6000612ef88383612e68565b905092915050565b6000602082019050919050565b6000612f1882612d16565b612f228185612d21565b935083602082028501612f3485612d32565b8060005b85811015612f705784840389528151612f518582612eec565b9450612f5c83612f00565b925060208a01995050600181019050612f38565b50829750879550505050505092915050565b60006020820190508181036000830152612f9c8184612f0d565b905092915050565b600060a0830160008301518482036000860152612fc18282612d53565b91505060208301518482036020860152612fdb8282612d53565b9150506040830151612ff06040860182612d8c565b5060608301516130036060860182612d9b565b506080830151848203608086015261301b8282612e0a565b9150508091505092915050565b600060208201905081810360008301526130428184612fa4565b905092915050565b6000602082840312156130605761305f61286b565b5b600061306e84828501612ac1565b91505092915050565b61308081612a47565b82525050565b600060208201905061309b6000830184613077565b92915050565b6130aa816128fa565b81146130b557600080fd5b50565b6000813590506130c7816130a1565b92915050565b600080604083850312156130e4576130e361286b565b5b60006130f285828601612ac1565b9250506020613103858286016130b8565b9150509250929050565b600067ffffffffffffffff82111561312857613127612b73565b5b6131318261297f565b9050602081019050919050565b600061315161314c8461310d565b612bd3565b90508281526020810184848401111561316d5761316c612b6e565b5b613178848285612c1f565b509392505050565b600082601f83011261319557613194612b69565b5b81356131a584826020860161313e565b91505092915050565b600080600080608085870312156131c8576131c761286b565b5b60006131d687828801612ac1565b94505060206131e787828801612ac1565b93505060406131f887828801612a68565b925050606085013567ffffffffffffffff81111561321957613218612870565b5b61322587828801613180565b91505092959194509250565b600080604083850312156132485761324761286b565b5b600061325685828601612ac1565b925050602061326785828601612ac1565b9150509250929050565b7f4e487b7100000000000000000000000000000000000000000000000000000000600052602260045260246000fd5b600060028204905060018216806132b857607f821691505b602082108114156132cc576132cb613271565b5b50919050565b7f4552433732313a20617070726f76616c20746f2063757272656e74206f776e6560008201527f7200000000000000000000000000000000000000000000000000000000000000602082015250565b600061332e60218361293b565b9150613339826132d2565b604082019050919050565b6000602082019050818103600083015261335d81613321565b9050919050565b7f4552433732313a20617070726f76652063616c6c6572206973206e6f7420746f60008201527f6b656e206f776e6572206e6f7220617070726f76656420666f7220616c6c0000602082015250565b60006133c0603e8361293b565b91506133cb82613364565b604082019050919050565b600060208201905081810360008301526133ef816133b3565b9050919050565b7f4e487b7100000000000000000000000000000000000000000000000000000000600052603260045260246000fd5b7f54686973206964656120697320616c72656164792066696e69736865642e0000600082015250565b600061345b601e8361293b565b915061346682613425565b602082019050919050565b6000602082019050818103600083015261348a8161344e565b9050919050565b7f596f7520616c726561647920766f746564207468697320696465612e00000000600082015250565b60006134c7601c8361293b565b91506134d282613491565b602082019050919050565b600060208201905081810360008301526134f6816134ba565b9050919050565b7f4e487b7100000000000000000000000000000000000000000000000000000000600052601160045260246000fd5b600061353782612a47565b91507fffffffffffffffffffffffffffffffffffffffffffffffffffffffffffffffff82141561356a576135696134fd565b5b600182019050919050565b600061358082612a47565b915061358b83612a47565b9250827fffffffffffffffffffffffffffffffffffffffffffffffffffffffffffffffff038211156135c0576135bf6134fd565b5b828201905092915050565b60008190508160005260206000209050919050565b600081546135ed816132a0565b6135f78186612d42565b94506001821660008114613612576001811461362457613657565b60ff1983168652602086019350613657565b61362d856135cb565b60005b8381101561364f57815481890152600182019150602081019050613630565b808801955050505b50505092915050565b60008160001c9050919050565b6000819050919050565b600061368a61368583613660565b61366d565b9050919050565b600060ff82169050919050565b60006136b16136ac83613660565b613691565b9050919050565b600081549050919050565b60008190508160005260206000209050919050565b600073ffffffffffffffffffffffffffffffffffffffff82169050919050565b600061370b61370683613660565b6136d8565b9050919050565b600061371e82546136f8565b9050919050565b6000600182019050919050565b600061373d826136b8565b6137478185612db5565b9350613752836136c3565b8060005b8381101561378a5761376782613712565b6137718882612de5565b975061377c83613725565b925050600181019050613756565b5085935050505092915050565b600060a08301600080840185830360008701526137b483826135e0565b9250506001840185830360208701526137cd83826135e0565b925050600284015490506137e081613677565b6137ed6040870182612d8c565b50600384015490506137fe8161369e565b61380b6060870182612d9b565b506004840185830360808701526138228382613732565b925050819250505092915050565b6000602082019050818103600083015261384a8184613797565b905092915050565b7f4552433732313a2063616c6c6572206973206e6f7420746f6b656e206f776e6560008201527f72206e6f7220617070726f766564000000000000000000000000000000000000602082015250565b60006138ae602e8361293b565b91506138b982613852565b604082019050919050565b600060208201905081810360008301526138dd816138a1565b9050919050565b60006138ef82612a47565b91506138fa83612a47565b92508282101561390d5761390c6134fd565b5b828203905092915050565b7f4552433732313a20696e76616c696420746f6b656e2049440000000000000000600082015250565b600061394e60188361293b565b915061395982613918565b602082019050919050565b6000602082019050818103600083015261397d81613941565b9050919050565b7f4552433732313a2061646472657373207a65726f206973206e6f74206120766160008201527f6c6964206f776e65720000000000000000000000000000000000000000000000602082015250565b60006139e060298361293b565b91506139eb82613984565b604082019050919050565b60006020820190508181036000830152613a0f816139d3565b9050919050565b600081905092915050565b7f7b226e616d65223a202200000000000000000000000000000000000000000000600082015250565b6000613a57600a83613a16565b9150613a6282613a21565b600a82019050919050565b60008154613a7a816132a0565b613a848186613a16565b94506001821660008114613a9f5760018114613ab057613ae3565b60ff19831686528186019350613ae3565b613ab9856135cb565b60005b83811015613adb57815481890152600182019150602081019050613abc565b838801955050505b50505092915050565b7f202d2d204e465420233a20000000000000000000000000000000000000000000600082015250565b6000613b22600b83613a16565b9150613b2d82613aec565b600b82019050919050565b6000613b4382612930565b613b4d8185613a16565b9350613b5d81856020860161294c565b80840191505092915050565b7f222c20226465736372697074696f6e223a2022416e2065706963204e4654222c60008201527f2022696d616765223a2022697066733a2f2f0000000000000000000000000000602082015250565b6000613bc5603283613a16565b9150613bd082613b69565b603282019050919050565b7f227d000000000000000000000000000000000000000000000000000000000000600082015250565b6000613c11600283613a16565b9150613c1c82613bdb565b600282019050919050565b6000613c3282613a4a565b9150613c3e8286613a6d565b9150613c4982613b15565b9150613c558285613b38565b9150613c6082613bb8565b9150613c6c8284613a6d565b9150613c7782613c04565b9150819050949350505050565b7f646174613a6170706c69636174696f6e2f6a736f6e3b6261736536342c000000600082015250565b6000613cba601d83613a16565b9150613cc582613c84565b601d82019050919050565b6000613cdb82613cad565b9150613ce78284613b38565b915081905092915050565b7f4552433732313a207472616e736665722066726f6d20696e636f72726563742060008201527f6f776e6572000000000000000000000000000000000000000000000000000000602082015250565b6000613d4e60258361293b565b9150613d5982613cf2565b604082019050919050565b60006020820190508181036000830152613d7d81613d41565b9050919050565b7f4552433732313a207472616e7366657220746f20746865207a65726f2061646460008201527f7265737300000000000000000000000000000000000000000000000000000000602082015250565b6000613de060248361293b565b9150613deb82613d84565b604082019050919050565b60006020820190508181036000830152613e0f81613dd3565b9050919050565b7f4552433732313a20617070726f766520746f2063616c6c657200000000000000600082015250565b6000613e4c60198361293b565b9150613e5782613e16565b602082019050919050565b60006020820190508181036000830152613e7b81613e3f565b9050919050565b7f4552433732313a207472616e7366657220746f206e6f6e20455243373231526560008201527f63656976657220696d706c656d656e7465720000000000000000000000000000602082015250565b6000613ede60328361293b565b9150613ee982613e82565b604082019050919050565b60006020820190508181036000830152613f0d81613ed1565b9050919050565b7f4e487b7100000000000000000000000000000000000000000000000000000000600052601260045260246000fd5b6000613f4e82612a47565b9150613f5983612a47565b925082613f6957613f68613f14565b5b828204905092915050565b6000613f7f82612a47565b9150613f8a83612a47565b925082613f9a57613f99613f14565b5b828206905092915050565b6000613fb082612a47565b9150613fbb83612a47565b9250817fffffffffffffffffffffffffffffffffffffffffffffffffffffffffffffffff0483118215151615613ff457613ff36134fd565b5b828202905092915050565b600060608201905081810360008301526140198186612990565b90506140286020830185613077565b6140356040830184612a1d565b949350505050565b600081519050919050565b600082825260208201905092915050565b60006140648261403d565b61406e8185614048565b935061407e81856020860161294c565b6140878161297f565b840191505092915050565b60006080820190506140a76000830187612a1d565b6140b46020830186612a1d565b6140c16040830185613077565b81810360608301526140d38184614059565b905095945050505050565b6000815190506140ed816128a1565b92915050565b6000602082840312156141095761410861286b565b5b6000614117848285016140de565b91505092915050565b7f4552433732313a206d696e7420746f20746865207a65726f2061646472657373600082015250565b600061415660208361293b565b915061416182614120565b602082019050919050565b6000602082019050818103600083015261418581614149565b9050919050565b7f4552433732313a20746f6b656e20616c7265616479206d696e74656400000000600082015250565b60006141c2601c8361293b565b91506141cd8261418c565b602082019050919050565b600060208201905081810360008301526141f1816141b5565b905091905056fe416e204e465420772f20494420257320686173206265656e206d696e74656420746f2025734142434445464748494a4b4c4d4e4f505152535455565758595a6162636465666768696a6b6c6d6e6f707172737475767778797a303132333435363738392b2fa26469706673582212200e81d0307eda7c91a79f3c3659931f5cdad294d58e6e6a87c2512943966a204064736f6c63430008090033",
	"linkReferences": {},
	"deployedLinkReferences": {}
}