{
	"_format": "hh-sol-artifact-1",
	"contractName": "VotePortal",
	"sourceName": "contracts/Vote.sol",
	"abi": [
		{
			"inputs": [],
			"stateMutability": "nonpayable",
			"type": "constructor"
		},
		{
			"anonymous": false,
			"inputs": [
				{
					"indexed": true,
					"internalType": "address",
					"name": "owner",
					"type": "address"
				},
				{
					"indexed": true,
					"internalType": "address",
					"name": "approved",
					"type": "address"
				},
				{
					"indexed": true,
					"internalType": "uint256",
					"name": "tokenId",
					"type": "uint256"
				}
			],
			"name": "Approval",
			"type": "event"
		},
		{
			"anonymous": false,
			"inputs": [
				{
					"indexed": true,
					"internalType": "address",
					"name": "owner",
					"type": "address"
				},
				{
					"indexed": true,
					"internalType": "address",
					"name": "operator",
					"type": "address"
				},
				{
					"indexed": false,
					"internalType": "bool",
					"name": "approved",
					"type": "bool"
				}
			],
			"name": "ApprovalForAll",
			"type": "event"
		},
		{
			"anonymous": false,
			"inputs": [
				{
					"components": [
						{
							"internalType": "string",
							"name": "name",
							"type": "string"
						},
						{
							"internalType": "string",
							"name": "ideaURL",
							"type": "string"
						},
						{
							"internalType": "uint256",
							"name": "totalVotes",
							"type": "uint256"
						},
						{
							"internalType": "uint256",
							"name": "badVotes",
							"type": "uint256"
						},
						{
							"internalType": "uint256",
							"name": "goodVotes",
							"type": "uint256"
						},
						{
							"internalType": "bool",
							"name": "isFinished",
							"type": "bool"
						},
						{
							"internalType": "address[]",
							"name": "votedAddresses",
							"type": "address[]"
						}
					],
					"indexed": false,
					"internalType": "struct VotePortal.idea",
					"name": "Idea",
					"type": "tuple"
				}
			],
			"name": "FinishVote",
			"type": "event"
		},
		{
			"anonymous": false,
			"inputs": [
				{
					"indexed": true,
					"internalType": "address",
					"name": "from",
					"type": "address"
				},
				{
					"components": [
						{
							"internalType": "string",
							"name": "name",
							"type": "string"
						},
						{
							"internalType": "string",
							"name": "ideaURL",
							"type": "string"
						},
						{
							"internalType": "uint256",
							"name": "totalVotes",
							"type": "uint256"
						},
						{
							"internalType": "uint256",
							"name": "badVotes",
							"type": "uint256"
						},
						{
							"internalType": "uint256",
							"name": "goodVotes",
							"type": "uint256"
						},
						{
							"internalType": "bool",
							"name": "isFinished",
							"type": "bool"
						},
						{
							"internalType": "address[]",
							"name": "votedAddresses",
							"type": "address[]"
						}
					],
					"indexed": false,
					"internalType": "struct VotePortal.idea",
					"name": "Idea",
					"type": "tuple"
				}
			],
			"name": "NewIdea",
			"type": "event"
		},
		{
			"anonymous": false,
			"inputs": [
				{
					"components": [
						{
							"internalType": "string",
							"name": "name",
							"type": "string"
						},
						{
							"internalType": "string",
							"name": "ideaURL",
							"type": "string"
						},
						{
							"internalType": "uint256",
							"name": "totalVotes",
							"type": "uint256"
						},
						{
							"internalType": "uint256",
							"name": "badVotes",
							"type": "uint256"
						},
						{
							"internalType": "uint256",
							"name": "goodVotes",
							"type": "uint256"
						},
						{
							"internalType": "bool",
							"name": "isFinished",
							"type": "bool"
						},
						{
							"internalType": "address[]",
							"name": "votedAddresses",
							"type": "address[]"
						}
					],
					"indexed": false,
					"internalType": "struct VotePortal.idea",
					"name": "Idea",
					"type": "tuple"
				}
			],
			"name": "NewNFT",
			"type": "event"
		},
		{
			"anonymous": false,
			"inputs": [
				{
					"indexed": true,
					"internalType": "address",
					"name": "from",
					"type": "address"
				},
				{
					"indexed": true,
					"internalType": "address",
					"name": "to",
					"type": "address"
				},
				{
					"indexed": true,
					"internalType": "uint256",
					"name": "tokenId",
					"type": "uint256"
				}
			],
			"name": "Transfer",
			"type": "event"
		},
		{
			"anonymous": false,
			"inputs": [
				{
					"indexed": true,
					"internalType": "address",
					"name": "from",
					"type": "address"
				},
				{
					"components": [
						{
							"internalType": "string",
							"name": "name",
							"type": "string"
						},
						{
							"internalType": "string",
							"name": "ideaURL",
							"type": "string"
						},
						{
							"internalType": "uint256",
							"name": "totalVotes",
							"type": "uint256"
						},
						{
							"internalType": "uint256",
							"name": "badVotes",
							"type": "uint256"
						},
						{
							"internalType": "uint256",
							"name": "goodVotes",
							"type": "uint256"
						},
						{
							"internalType": "bool",
							"name": "isFinished",
							"type": "bool"
						},
						{
							"internalType": "address[]",
							"name": "votedAddresses",
							"type": "address[]"
						}
					],
					"indexed": false,
					"internalType": "struct VotePortal.idea",
					"name": "Idea",
					"type": "tuple"
				}
			],
			"name": "VoteSomething",
			"type": "event"
		},
		{
			"inputs": [
				{
					"internalType": "string",
					"name": "_name",
					"type": "string"
				},
				{
					"internalType": "string",
					"name": "_ideaURL",
					"type": "string"
				}
			],
			"name": "addIdea",
			"outputs": [],
			"stateMutability": "nonpayable",
			"type": "function"
		},
		{
			"inputs": [
				{
					"internalType": "address",
					"name": "to",
					"type": "address"
				},
				{
					"internalType": "uint256",
					"name": "tokenId",
					"type": "uint256"
				}
			],
			"name": "approve",
			"outputs": [],
			"stateMutability": "nonpayable",
			"type": "function"
		},
		{
			"inputs": [
				{
					"internalType": "address",
					"name": "owner",
					"type": "address"
				}
			],
			"name": "balanceOf",
			"outputs": [
				{
					"internalType": "uint256",
					"name": "",
					"type": "uint256"
				}
			],
			"stateMutability": "view",
			"type": "function"
		},
		{
			"inputs": [],
			"name": "getAllIdeas",
			"outputs": [
				{
					"components": [
						{
							"internalType": "string",
							"name": "name",
							"type": "string"
						},
						{
							"internalType": "string",
							"name": "ideaURL",
							"type": "string"
						},
						{
							"internalType": "uint256",
							"name": "totalVotes",
							"type": "uint256"
						},
						{
							"internalType": "uint256",
							"name": "badVotes",
							"type": "uint256"
						},
						{
							"internalType": "uint256",
							"name": "goodVotes",
							"type": "uint256"
						},
						{
							"internalType": "bool",
							"name": "isFinished",
							"type": "bool"
						},
						{
							"internalType": "address[]",
							"name": "votedAddresses",
							"type": "address[]"
						}
					],
					"internalType": "struct VotePortal.idea[]",
					"name": "",
					"type": "tuple[]"
				}
			],
			"stateMutability": "view",
			"type": "function"
		},
		{
			"inputs": [
				{
					"internalType": "uint256",
					"name": "tokenId",
					"type": "uint256"
				}
			],
			"name": "getApproved",
			"outputs": [
				{
					"internalType": "address",
					"name": "",
					"type": "address"
				}
			],
			"stateMutability": "view",
			"type": "function"
		},
		{
			"inputs": [
				{
					"internalType": "uint256",
					"name": "_index",
					"type": "uint256"
				}
			],
			"name": "getIdea",
			"outputs": [
				{
					"components": [
						{
							"internalType": "string",
							"name": "name",
							"type": "string"
						},
						{
							"internalType": "string",
							"name": "ideaURL",
							"type": "string"
						},
						{
							"internalType": "uint256",
							"name": "totalVotes",
							"type": "uint256"
						},
						{
							"internalType": "uint256",
							"name": "badVotes",
							"type": "uint256"
						},
						{
							"internalType": "uint256",
							"name": "goodVotes",
							"type": "uint256"
						},
						{
							"internalType": "bool",
							"name": "isFinished",
							"type": "bool"
						},
						{
							"internalType": "address[]",
							"name": "votedAddresses",
							"type": "address[]"
						}
					],
					"internalType": "struct VotePortal.idea",
					"name": "",
					"type": "tuple"
				}
			],
			"stateMutability": "view",
			"type": "function"
		},
		{
			"inputs": [
				{
					"internalType": "address",
					"name": "owner",
					"type": "address"
				},
				{
					"internalType": "address",
					"name": "operator",
					"type": "address"
				}
			],
			"name": "isApprovedForAll",
			"outputs": [
				{
					"internalType": "bool",
					"name": "",
					"type": "bool"
				}
			],
			"stateMutability": "view",
			"type": "function"
		},
		{
			"inputs": [
				{
					"internalType": "string",
					"name": "name",
					"type": "string"
				},
				{
					"internalType": "string",
					"name": "ideaURI",
					"type": "string"
				}
			],
			"name": "mintIpfsNFT",
			"outputs": [],
			"stateMutability": "nonpayable",
			"type": "function"
		},
		{
			"inputs": [],
			"name": "minter",
			"outputs": [
				{
					"internalType": "address",
					"name": "",
					"type": "address"
				}
			],
			"stateMutability": "view",
			"type": "function"
		},
		{
			"inputs": [],
			"name": "name",
			"outputs": [
				{
					"internalType": "string",
					"name": "",
					"type": "string"
				}
			],
			"stateMutability": "view",
			"type": "function"
		},
		{
			"inputs": [
				{
					"internalType": "uint256",
					"name": "tokenId",
					"type": "uint256"
				}
			],
			"name": "ownerOf",
			"outputs": [
				{
					"internalType": "address",
					"name": "",
					"type": "address"
				}
			],
			"stateMutability": "view",
			"type": "function"
		},
		{
			"inputs": [
				{
					"internalType": "address",
					"name": "from",
					"type": "address"
				},
				{
					"internalType": "address",
					"name": "to",
					"type": "address"
				},
				{
					"internalType": "uint256",
					"name": "tokenId",
					"type": "uint256"
				}
			],
			"name": "safeTransferFrom",
			"outputs": [],
			"stateMutability": "nonpayable",
			"type": "function"
		},
		{
			"inputs": [
				{
					"internalType": "address",
					"name": "from",
					"type": "address"
				},
				{
					"internalType": "address",
					"name": "to",
					"type": "address"
				},
				{
					"internalType": "uint256",
					"name": "tokenId",
					"type": "uint256"
				},
				{
					"internalType": "bytes",
					"name": "data",
					"type": "bytes"
				}
			],
			"name": "safeTransferFrom",
			"outputs": [],
			"stateMutability": "nonpayable",
			"type": "function"
		},
		{
			"inputs": [
				{
					"internalType": "address",
					"name": "operator",
					"type": "address"
				},
				{
					"internalType": "bool",
					"name": "approved",
					"type": "bool"
				}
			],
			"name": "setApprovalForAll",
			"outputs": [],
			"stateMutability": "nonpayable",
			"type": "function"
		},
		{
			"inputs": [
				{
					"internalType": "bytes4",
					"name": "interfaceId",
					"type": "bytes4"
				}
			],
			"name": "supportsInterface",
			"outputs": [
				{
					"internalType": "bool",
					"name": "",
					"type": "bool"
				}
			],
			"stateMutability": "view",
			"type": "function"
		},
		{
			"inputs": [],
			"name": "symbol",
			"outputs": [
				{
					"internalType": "string",
					"name": "",
					"type": "string"
				}
			],
			"stateMutability": "view",
			"type": "function"
		},
		{
			"inputs": [
				{
					"internalType": "uint256",
					"name": "_tokenId",
					"type": "uint256"
				}
			],
			"name": "tokenURI",
			"outputs": [
				{
					"internalType": "string",
					"name": "",
					"type": "string"
				}
			],
			"stateMutability": "view",
			"type": "function"
		},
		{
			"inputs": [
				{
					"internalType": "address",
					"name": "from",
					"type": "address"
				},
				{
					"internalType": "address",
					"name": "to",
					"type": "address"
				},
				{
					"internalType": "uint256",
					"name": "tokenId",
					"type": "uint256"
				}
			],
			"name": "transferFrom",
			"outputs": [],
			"stateMutability": "nonpayable",
			"type": "function"
		},
		{
			"inputs": [
				{
					"internalType": "uint256",
					"name": "idea_index",
					"type": "uint256"
				},
				{
					"internalType": "bool",
					"name": "isGood",
					"type": "bool"
				}
			],
			"name": "voteIdea",
			"outputs": [],
			"stateMutability": "nonpayable",
			"type": "function"
		}
	],
	"bytecode": "0x60806040523480156200001157600080fd5b506040518060400160405280600381526020017f4e465400000000000000000000000000000000000000000000000000000000008152506040518060400160405280600381526020017f6e6674000000000000000000000000000000000000000000000000000000000081525081600090805190602001906200009692919062000210565b508060019080519060200190620000af92919062000210565b505050620000fd6040518060400160405280601881526020017f54686973206973206d79204e465420636f6e74726163742e00000000000000008152506200014460201b620015851760201c565b33600860006101000a81548173ffffffffffffffffffffffffffffffffffffffff021916908373ffffffffffffffffffffffffffffffffffffffff160217905550620003ed565b620001e4816040516024016200015b919062000364565b6040516020818303038152906040527f41304fac000000000000000000000000000000000000000000000000000000007bffffffffffffffffffffffffffffffffffffffffffffffffffffffff19166020820180517bffffffffffffffffffffffffffffffffffffffffffffffffffffffff8381831617835250505050620001e760201b60201c565b50565b60008151905060006a636f6e736f6c652e6c6f679050602083016000808483855afa5050505050565b8280546200021e90620003b7565b90600052602060002090601f0160209004810192826200024257600085556200028e565b82601f106200025d57805160ff19168380011785556200028e565b828001600101855582156200028e579182015b828111156200028d57825182559160200191906001019062000270565b5b5090506200029d9190620002a1565b5090565b5b80821115620002bc576000816000905550600101620002a2565b5090565b600081519050919050565b600082825260208201905092915050565b60005b83811015620002fc578082015181840152602081019050620002df565b838111156200030c576000848401525b50505050565b6000601f19601f8301169050919050565b60006200033082620002c0565b6200033c8185620002cb565b93506200034e818560208601620002dc565b620003598162000312565b840191505092915050565b6000602082019050818103600083015262000380818462000323565b905092915050565b7f4e487b7100000000000000000000000000000000000000000000000000000000600052602260045260246000fd5b60006002820490506001821680620003d057607f821691505b60208210811415620003e757620003e662000388565b5b50919050565b6143b080620003fd6000396000f3fe608060405234801561001057600080fd5b50600436106101215760003560e01c806344de6b2f116100ad578063b88d4fde11610071578063b88d4fde1461031a578063c87b56dd14610336578063e985e9c514610366578063eb00195d14610396578063f10caac7146103b257610121565b806344de6b2f146102505780636352211e1461028057806370a08231146102b057806395d89b41146102e0578063a22cb465146102fe57610121565b8063095ea7b3116100f4578063095ea7b3146101c257806323b872dd146101de57806334e144bd146101fa5780633a9e6af01461021657806342842e0e1461023457610121565b806301ffc9a71461012657806306fdde03146101565780630754617214610174578063081812fc14610192575b600080fd5b610140600480360381019061013b9190612922565b6103ce565b60405161014d919061296a565b60405180910390f35b61015e6104b0565b60405161016b9190612a1e565b60405180910390f35b61017c610542565b6040516101899190612a81565b60405180910390f35b6101ac60048036038101906101a79190612ad2565b610568565b6040516101b99190612a81565b60405180910390f35b6101dc60048036038101906101d79190612b2b565b6105ae565b005b6101f860048036038101906101f39190612b6b565b6106c6565b005b610214600480360381019061020f9190612cf3565b610726565b005b61021e610908565b60405161022b9190612ffd565b60405180910390f35b61024e60048036038101906102499190612b6b565b610b52565b005b61026a60048036038101906102659190612ad2565b610b72565b60405161027791906130c9565b60405180910390f35b61029a60048036038101906102959190612ad2565b610d99565b6040516102a79190612a81565b60405180910390f35b6102ca60048036038101906102c591906130eb565b610e4b565b6040516102d79190613127565b60405180910390f35b6102e8610f03565b6040516102f59190612a1e565b60405180910390f35b6103186004803603810190610313919061316e565b610f95565b005b610334600480360381019061032f919061324f565b610fab565b005b610350600480360381019061034b9190612ad2565b61100d565b60405161035d9190612a1e565b60405180910390f35b610380600480360381019061037b91906132d2565b6110bd565b60405161038d919061296a565b60405180910390f35b6103b060048036038101906103ab9190612cf3565b611151565b005b6103cc60048036038101906103c79190613312565b611217565b005b60007f80ac58cd000000000000000000000000000000000000000000000000000000007bffffffffffffffffffffffffffffffffffffffffffffffffffffffff1916827bffffffffffffffffffffffffffffffffffffffffffffffffffffffff1916148061049957507f5b5e139f000000000000000000000000000000000000000000000000000000007bffffffffffffffffffffffffffffffffffffffffffffffffffffffff1916827bffffffffffffffffffffffffffffffffffffffffffffffffffffffff1916145b806104a957506104a88261161e565b5b9050919050565b6060600080546104bf90613381565b80601f01602080910402602001604051908101604052809291908181526020018280546104eb90613381565b80156105385780601f1061050d57610100808354040283529160200191610538565b820191906000526020600020905b81548152906001019060200180831161051b57829003601f168201915b5050505050905090565b600860009054906101000a900473ffffffffffffffffffffffffffffffffffffffff1681565b600061057382611688565b6004600083815260200190815260200160002060009054906101000a900473ffffffffffffffffffffffffffffffffffffffff169050919050565b60006105b982610d99565b90508073ffffffffffffffffffffffffffffffffffffffff168373ffffffffffffffffffffffffffffffffffffffff16141561062a576040517f08c379a000000000000000000000000000000000000000000000000000000000815260040161062190613425565b60405180910390fd5b8073ffffffffffffffffffffffffffffffffffffffff166106496116d3565b73ffffffffffffffffffffffffffffffffffffffff1614806106785750610677816106726116d3565b6110bd565b5b6106b7576040517f08c379a00000000000000000000000000000000000000000000000000000000081526004016106ae906134b7565b60405180910390fd5b6106c183836116db565b505050565b6106d76106d16116d3565b82611794565b610716576040517f08c379a000000000000000000000000000000000000000000000000000000000815260040161070d90613549565b60405180910390fd5b610721838383611829565b505050565b600b6040518060e00160405280848152602001838152602001600081526020016000815260200160008152602001600015158152602001600067ffffffffffffffff81111561077857610777612bc8565b5b6040519080825280602002602001820160405280156107a65781602001602082028036833780820191505090505b50815250908060018154018082558091505060019003906000526020600020906007020160009091909190915060008201518160000190805190602001906107ef92919061274a565b50602082015181600101908051906020019061080c92919061274a565b5060408201518160020155606082015181600301556080820151816004015560a08201518160050160006101000a81548160ff02191690831515021790555060c08201518160060190805190602001906108679291906127d0565b5050503373ffffffffffffffffffffffffffffffffffffffff167f16e2590b4dcf41fd1fda66434a5abf1aa419c8e534a284a81d0a9ed801564c58600b6001600b805490506108b69190613598565b815481106108c7576108c66135cc565b5b90600052602060002090600702016040516108e2919061389c565b60405180910390a26001600960008282546108fd91906138be565b925050819055505050565b6060600b805480602002602001604051908101604052809291908181526020016000905b82821015610b4957838290600052602060002090600702016040518060e001604052908160008201805461095f90613381565b80601f016020809104026020016040519081016040528092919081815260200182805461098b90613381565b80156109d85780601f106109ad576101008083540402835291602001916109d8565b820191906000526020600020905b8154815290600101906020018083116109bb57829003601f168201915b505050505081526020016001820180546109f190613381565b80601f0160208091040260200160405190810160405280929190818152602001828054610a1d90613381565b8015610a6a5780601f10610a3f57610100808354040283529160200191610a6a565b820191906000526020600020905b815481529060010190602001808311610a4d57829003601f168201915b505050505081526020016002820154815260200160038201548152602001600482015481526020016005820160009054906101000a900460ff1615151515815260200160068201805480602002602001604051908101604052809291908181526020018280548015610b3157602002820191906000526020600020905b8160009054906101000a900473ffffffffffffffffffffffffffffffffffffffff1673ffffffffffffffffffffffffffffffffffffffff1681526020019060010190808311610ae7575b5050505050815250508152602001906001019061092c565b50505050905090565b610b6d83838360405180602001604052806000815250610fab565b505050565b610b7a61285a565b600b8281548110610b8e57610b8d6135cc565b5b90600052602060002090600702016040518060e0016040529081600082018054610bb790613381565b80601f0160208091040260200160405190810160405280929190818152602001828054610be390613381565b8015610c305780601f10610c0557610100808354040283529160200191610c30565b820191906000526020600020905b815481529060010190602001808311610c1357829003601f168201915b50505050508152602001600182018054610c4990613381565b80601f0160208091040260200160405190810160405280929190818152602001828054610c7590613381565b8015610cc25780601f10610c9757610100808354040283529160200191610cc2565b820191906000526020600020905b815481529060010190602001808311610ca557829003601f168201915b505050505081526020016002820154815260200160038201548152602001600482015481526020016005820160009054906101000a900460ff1615151515815260200160068201805480602002602001604051908101604052809291908181526020018280548015610d8957602002820191906000526020600020905b8160009054906101000a900473ffffffffffffffffffffffffffffffffffffffff1673ffffffffffffffffffffffffffffffffffffffff1681526020019060010190808311610d3f575b5050505050815250509050919050565b6000806002600084815260200190815260200160002060009054906101000a900473ffffffffffffffffffffffffffffffffffffffff169050600073ffffffffffffffffffffffffffffffffffffffff168173ffffffffffffffffffffffffffffffffffffffff161415610e42576040517f08c379a0000000000000000000000000000000000000000000000000000000008152600401610e3990613960565b60405180910390fd5b80915050919050565b60008073ffffffffffffffffffffffffffffffffffffffff168273ffffffffffffffffffffffffffffffffffffffff161415610ebc576040517f08c379a0000000000000000000000000000000000000000000000000000000008152600401610eb3906139f2565b60405180910390fd5b600360008373ffffffffffffffffffffffffffffffffffffffff1673ffffffffffffffffffffffffffffffffffffffff168152602001908152602001600020549050919050565b606060018054610f1290613381565b80601f0160208091040260200160405190810160405280929190818152602001828054610f3e90613381565b8015610f8b5780601f10610f6057610100808354040283529160200191610f8b565b820191906000526020600020905b815481529060010190602001808311610f6e57829003601f168201915b5050505050905090565b610fa7610fa06116d3565b8383611a90565b5050565b610fbc610fb66116d3565b83611794565b610ffb576040517f08c379a0000000000000000000000000000000000000000000000000000000008152600401610ff290613549565b60405180910390fd5b61100784848484611bfd565b50505050565b6060600061108d600a8481548110611028576110276135cc565b5b906000526020600020906002020160000161104285611c59565b600a8681548110611056576110556135cc565b5b906000526020600020906002020160010160405160200161107993929190613c23565b604051602081830303815290604052611dba565b90506000816040516020016110a29190613ccc565b60405160208183030381529060405290508092505050919050565b6000600560008473ffffffffffffffffffffffffffffffffffffffff1673ffffffffffffffffffffffffffffffffffffffff16815260200190815260200160002060008373ffffffffffffffffffffffffffffffffffffffff1673ffffffffffffffffffffffffffffffffffffffff16815260200190815260200160002060009054906101000a900460ff16905092915050565b600061115d6007611f33565b90506111693382611f41565b600a604051806040016040528085815260200184815250908060018154018082558091505060019003906000526020600020906002020160009091909190915060008201518160000190805190602001906111c592919061274a565b5060208201518160010190805190602001906111e292919061274a565b505050611208604051806060016040528060258152602001614316602591398233611f5f565b6112126007611ffe565b505050565b600b828154811061122b5761122a6135cc565b5b906000526020600020906007020160050160009054906101000a900460ff161561128a576040517f08c379a000000000000000000000000000000000000000000000000000000000815260040161128190613d3a565b60405180910390fd5b600860009054906101000a900473ffffffffffffffffffffffffffffffffffffffff1673ffffffffffffffffffffffffffffffffffffffff163373ffffffffffffffffffffffffffffffffffffffff1614156112ee576112e982612014565b611581565b60005b600b8381548110611305576113046135cc565b5b906000526020600020906007020160060180549050811015611404573373ffffffffffffffffffffffffffffffffffffffff16600b848154811061134c5761134b6135cc565b5b9060005260206000209060070201600601828154811061136f5761136e6135cc565b5b9060005260206000200160009054906101000a900473ffffffffffffffffffffffffffffffffffffffff1673ffffffffffffffffffffffffffffffffffffffff1614156113f1576040517f08c379a00000000000000000000000000000000000000000000000000000000081526004016113e890613da6565b60405180910390fd5b80806113fc90613dc6565b9150506112f1565b50801561144d576001600b8381548110611421576114206135cc565b5b9060005260206000209060070201600401600082825461144191906138be565b9250508190555061148b565b6001600b8381548110611463576114626135cc565b5b9060005260206000209060070201600301600082825461148391906138be565b925050819055505b3373ffffffffffffffffffffffffffffffffffffffff167f8b403bf090090d2f473c8692b491c504301de9bb9137d29e7105a29650f9ae4e600b84815481106114d7576114d66135cc565b5b90600052602060002090600702016040516114f2919061389c565b60405180910390a2600b828154811061150e5761150d6135cc565b5b9060005260206000209060070201600601339080600181540180825580915050600190039060005260206000200160009091909190916101000a81548173ffffffffffffffffffffffffffffffffffffffff021916908373ffffffffffffffffffffffffffffffffffffffff1602179055505b5050565b61161b816040516024016115999190612a1e565b6040516020818303038152906040527f41304fac000000000000000000000000000000000000000000000000000000007bffffffffffffffffffffffffffffffffffffffffffffffffffffffff19166020820180517bffffffffffffffffffffffffffffffffffffffffffffffffffffffff83818316178352505050506122bc565b50565b60007f01ffc9a7000000000000000000000000000000000000000000000000000000007bffffffffffffffffffffffffffffffffffffffffffffffffffffffff1916827bffffffffffffffffffffffffffffffffffffffffffffffffffffffff1916149050919050565b611691816122e5565b6116d0576040517f08c379a00000000000000000000000000000000000000000000000000000000081526004016116c790613960565b60405180910390fd5b50565b600033905090565b816004600083815260200190815260200160002060006101000a81548173ffffffffffffffffffffffffffffffffffffffff021916908373ffffffffffffffffffffffffffffffffffffffff160217905550808273ffffffffffffffffffffffffffffffffffffffff1661174e83610d99565b73ffffffffffffffffffffffffffffffffffffffff167f8c5be1e5ebec7d5bd14f71427d1e84f3dd0314c0f7b2291e5b200ac8c7c3b92560405160405180910390a45050565b6000806117a083610d99565b90508073ffffffffffffffffffffffffffffffffffffffff168473ffffffffffffffffffffffffffffffffffffffff1614806117e257506117e181856110bd565b5b8061182057508373ffffffffffffffffffffffffffffffffffffffff1661180884610568565b73ffffffffffffffffffffffffffffffffffffffff16145b91505092915050565b8273ffffffffffffffffffffffffffffffffffffffff1661184982610d99565b73ffffffffffffffffffffffffffffffffffffffff161461189f576040517f08c379a000000000000000000000000000000000000000000000000000000000815260040161189690613e81565b60405180910390fd5b600073ffffffffffffffffffffffffffffffffffffffff168273ffffffffffffffffffffffffffffffffffffffff16141561190f576040517f08c379a000000000000000000000000000000000000000000000000000000000815260040161190690613f13565b60405180910390fd5b61191a838383612351565b6119256000826116db565b6001600360008573ffffffffffffffffffffffffffffffffffffffff1673ffffffffffffffffffffffffffffffffffffffff16815260200190815260200160002060008282546119759190613598565b925050819055506001600360008473ffffffffffffffffffffffffffffffffffffffff1673ffffffffffffffffffffffffffffffffffffffff16815260200190815260200160002060008282546119cc91906138be565b92505081905550816002600083815260200190815260200160002060006101000a81548173ffffffffffffffffffffffffffffffffffffffff021916908373ffffffffffffffffffffffffffffffffffffffff160217905550808273ffffffffffffffffffffffffffffffffffffffff168473ffffffffffffffffffffffffffffffffffffffff167fddf252ad1be2c89b69c2b068fc378daa952ba7f163c4a11628f55a4df523b3ef60405160405180910390a4611a8b838383612356565b505050565b8173ffffffffffffffffffffffffffffffffffffffff168373ffffffffffffffffffffffffffffffffffffffff161415611aff576040517f08c379a0000000000000000000000000000000000000000000000000000000008152600401611af690613f7f565b60405180910390fd5b80600560008573ffffffffffffffffffffffffffffffffffffffff1673ffffffffffffffffffffffffffffffffffffffff16815260200190815260200160002060008473ffffffffffffffffffffffffffffffffffffffff1673ffffffffffffffffffffffffffffffffffffffff16815260200190815260200160002060006101000a81548160ff0219169083151502179055508173ffffffffffffffffffffffffffffffffffffffff168373ffffffffffffffffffffffffffffffffffffffff167f17307eab39ab6107e8899845ad3d59bd9653f200f220920489ca2b5937696c3183604051611bf0919061296a565b60405180910390a3505050565b611c08848484611829565b611c148484848461235b565b611c53576040517f08c379a0000000000000000000000000000000000000000000000000000000008152600401611c4a90614011565b60405180910390fd5b50505050565b60606000821415611ca1576040518060400160405280600181526020017f30000000000000000000000000000000000000000000000000000000000000008152509050611db5565b600082905060005b60008214611cd3578080611cbc90613dc6565b915050600a82611ccc9190614060565b9150611ca9565b60008167ffffffffffffffff811115611cef57611cee612bc8565b5b6040519080825280601f01601f191660200182016040528015611d215781602001600182028036833780820191505090505b5090505b60008514611dae57600182611d3a9190613598565b9150600a85611d499190614091565b6030611d5591906138be565b60f81b818381518110611d6b57611d6a6135cc565b5b60200101907effffffffffffffffffffffffffffffffffffffffffffffffffffffffffffff1916908160001a905350600a85611da79190614060565b9450611d25565b8093505050505b919050565b6060600082511415611ddd57604051806020016040528060008152509050611f2e565b600060405180606001604052806040815260200161433b6040913990506000600360028551611e0c91906138be565b611e169190614060565b6004611e2291906140c2565b90506000602082611e3391906138be565b67ffffffffffffffff811115611e4c57611e4b612bc8565b5b6040519080825280601f01601f191660200182016040528015611e7e5781602001600182028036833780820191505090505b509050818152600183018586518101602084015b81831015611eed576003830192508251603f8160121c168501518253600182019150603f81600c1c168501518253600182019150603f8160061c168501518253600182019150603f8116850151825360018201915050611e92565b600389510660018114611f075760028114611f1757611f22565b613d3d60f01b6002830352611f22565b603d60f81b60018303525b50505050508093505050505b919050565b600081600001549050919050565b611f5b8282604051806020016040528060008152506124f2565b5050565b611ff9838383604051602401611f779392919061411c565b6040516020818303038152906040527f1c7ec448000000000000000000000000000000000000000000000000000000007bffffffffffffffffffffffffffffffffffffffffffffffffffffffff19166020820180517bffffffffffffffffffffffffffffffffffffffffffffffffffffffff83818316178352505050506122bc565b505050565b6001816000016000828254019250508190555050565b6001600b828154811061202a576120296135cc565b5b906000526020600020906007020160050160006101000a81548160ff0219169083151502179055507ff477ea3d85514f6403c5321feb2bb7b9a5f09435127859c9d45cf836aff27f33600b8281548110612087576120866135cc565b5b90600052602060002090600702016040516120a2919061389c565b60405180910390a1600b81815481106120be576120bd6135cc565b5b906000526020600020906007020160030154600b82815481106120e4576120e36135cc565b5b90600052602060002090600702016004015411156122b957612260600b8281548110612113576121126135cc565b5b9060005260206000209060070201600001805461212f90613381565b80601f016020809104026020016040519081016040528092919081815260200182805461215b90613381565b80156121a85780601f1061217d576101008083540402835291602001916121a8565b820191906000526020600020905b81548152906001019060200180831161218b57829003601f168201915b5050505050600b83815481106121c1576121c06135cc565b5b906000526020600020906007020160010180546121dd90613381565b80601f016020809104026020016040519081016040528092919081815260200182805461220990613381565b80156122565780601f1061222b57610100808354040283529160200191612256565b820191906000526020600020905b81548152906001019060200180831161223957829003601f168201915b5050505050611151565b7f4c8d70cdfdf9d030fcdfb68e17f689d0ca64cf841ebc27c25ebd519de0d85141600b8281548110612295576122946135cc565b5b90600052602060002090600702016040516122b0919061389c565b60405180910390a15b50565b60008151905060006a636f6e736f6c652e6c6f679050602083016000808483855afa5050505050565b60008073ffffffffffffffffffffffffffffffffffffffff166002600084815260200190815260200160002060009054906101000a900473ffffffffffffffffffffffffffffffffffffffff1673ffffffffffffffffffffffffffffffffffffffff1614159050919050565b505050565b505050565b600061237c8473ffffffffffffffffffffffffffffffffffffffff1661254d565b156124e5578373ffffffffffffffffffffffffffffffffffffffff1663150b7a026123a56116d3565b8786866040518563ffffffff1660e01b81526004016123c794939291906141af565b602060405180830381600087803b1580156123e157600080fd5b505af192505050801561241257506040513d601f19601f8201168201806040525081019061240f9190614210565b60015b612495573d8060008114612442576040519150601f19603f3d011682016040523d82523d6000602084013e612447565b606091505b5060008151141561248d576040517f08c379a000000000000000000000000000000000000000000000000000000000815260040161248490614011565b60405180910390fd5b805181602001fd5b63150b7a0260e01b7bffffffffffffffffffffffffffffffffffffffffffffffffffffffff1916817bffffffffffffffffffffffffffffffffffffffffffffffffffffffff1916149150506124ea565b600190505b949350505050565b6124fc8383612570565b612509600084848461235b565b612548576040517f08c379a000000000000000000000000000000000000000000000000000000000815260040161253f90614011565b60405180910390fd5b505050565b6000808273ffffffffffffffffffffffffffffffffffffffff163b119050919050565b600073ffffffffffffffffffffffffffffffffffffffff168273ffffffffffffffffffffffffffffffffffffffff1614156125e0576040517f08c379a00000000000000000000000000000000000000000000000000000000081526004016125d790614289565b60405180910390fd5b6125e9816122e5565b15612629576040517f08c379a0000000000000000000000000000000000000000000000000000000008152600401612620906142f5565b60405180910390fd5b61263560008383612351565b6001600360008473ffffffffffffffffffffffffffffffffffffffff1673ffffffffffffffffffffffffffffffffffffffff168152602001908152602001600020600082825461268591906138be565b92505081905550816002600083815260200190815260200160002060006101000a81548173ffffffffffffffffffffffffffffffffffffffff021916908373ffffffffffffffffffffffffffffffffffffffff160217905550808273ffffffffffffffffffffffffffffffffffffffff16600073ffffffffffffffffffffffffffffffffffffffff167fddf252ad1be2c89b69c2b068fc378daa952ba7f163c4a11628f55a4df523b3ef60405160405180910390a461274660008383612356565b5050565b82805461275690613381565b90600052602060002090601f01602090048101928261277857600085556127bf565b82601f1061279157805160ff19168380011785556127bf565b828001600101855582156127bf579182015b828111156127be5782518255916020019190600101906127a3565b5b5090506127cc9190612899565b5090565b828054828255906000526020600020908101928215612849579160200282015b828111156128485782518260006101000a81548173ffffffffffffffffffffffffffffffffffffffff021916908373ffffffffffffffffffffffffffffffffffffffff160217905550916020019190600101906127f0565b5b5090506128569190612899565b5090565b6040518060e001604052806060815260200160608152602001600081526020016000815260200160008152602001600015158152602001606081525090565b5b808211156128b257600081600090555060010161289a565b5090565b6000604051905090565b600080fd5b600080fd5b60007fffffffff0000000000000000000000000000000000000000000000000000000082169050919050565b6128ff816128ca565b811461290a57600080fd5b50565b60008135905061291c816128f6565b92915050565b600060208284031215612938576129376128c0565b5b60006129468482850161290d565b91505092915050565b60008115159050919050565b6129648161294f565b82525050565b600060208201905061297f600083018461295b565b92915050565b600081519050919050565b600082825260208201905092915050565b60005b838110156129bf5780820151818401526020810190506129a4565b838111156129ce576000848401525b50505050565b6000601f19601f8301169050919050565b60006129f082612985565b6129fa8185612990565b9350612a0a8185602086016129a1565b612a13816129d4565b840191505092915050565b60006020820190508181036000830152612a3881846129e5565b905092915050565b600073ffffffffffffffffffffffffffffffffffffffff82169050919050565b6000612a6b82612a40565b9050919050565b612a7b81612a60565b82525050565b6000602082019050612a966000830184612a72565b92915050565b6000819050919050565b612aaf81612a9c565b8114612aba57600080fd5b50565b600081359050612acc81612aa6565b92915050565b600060208284031215612ae857612ae76128c0565b5b6000612af684828501612abd565b91505092915050565b612b0881612a60565b8114612b1357600080fd5b50565b600081359050612b2581612aff565b92915050565b60008060408385031215612b4257612b416128c0565b5b6000612b5085828601612b16565b9250506020612b6185828601612abd565b9150509250929050565b600080600060608486031215612b8457612b836128c0565b5b6000612b9286828701612b16565b9350506020612ba386828701612b16565b9250506040612bb486828701612abd565b9150509250925092565b600080fd5b600080fd5b7f4e487b7100000000000000000000000000000000000000000000000000000000600052604160045260246000fd5b612c00826129d4565b810181811067ffffffffffffffff82111715612c1f57612c1e612bc8565b5b80604052505050565b6000612c326128b6565b9050612c3e8282612bf7565b919050565b600067ffffffffffffffff821115612c5e57612c5d612bc8565b5b612c67826129d4565b9050602081019050919050565b82818337600083830152505050565b6000612c96612c9184612c43565b612c28565b905082815260208101848484011115612cb257612cb1612bc3565b5b612cbd848285612c74565b509392505050565b600082601f830112612cda57612cd9612bbe565b5b8135612cea848260208601612c83565b91505092915050565b60008060408385031215612d0a57612d096128c0565b5b600083013567ffffffffffffffff811115612d2857612d276128c5565b5b612d3485828601612cc5565b925050602083013567ffffffffffffffff811115612d5557612d546128c5565b5b612d6185828601612cc5565b9150509250929050565b600081519050919050565b600082825260208201905092915050565b6000819050602082019050919050565b600082825260208201905092915050565b6000612db382612985565b612dbd8185612d97565b9350612dcd8185602086016129a1565b612dd6816129d4565b840191505092915050565b612dea81612a9c565b82525050565b612df98161294f565b82525050565b600081519050919050565b600082825260208201905092915050565b6000819050602082019050919050565b612e3481612a60565b82525050565b6000612e468383612e2b565b60208301905092915050565b6000602082019050919050565b6000612e6a82612dff565b612e748185612e0a565b9350612e7f83612e1b565b8060005b83811015612eb0578151612e978882612e3a565b9750612ea283612e52565b925050600181019050612e83565b5085935050505092915050565b600060e0830160008301518482036000860152612eda8282612da8565b91505060208301518482036020860152612ef48282612da8565b9150506040830151612f096040860182612de1565b506060830151612f1c6060860182612de1565b506080830151612f2f6080860182612de1565b5060a0830151612f4260a0860182612df0565b5060c083015184820360c0860152612f5a8282612e5f565b9150508091505092915050565b6000612f738383612ebd565b905092915050565b6000602082019050919050565b6000612f9382612d6b565b612f9d8185612d76565b935083602082028501612faf85612d87565b8060005b85811015612feb5784840389528151612fcc8582612f67565b9450612fd783612f7b565b925060208a01995050600181019050612fb3565b50829750879550505050505092915050565b600060208201905081810360008301526130178184612f88565b905092915050565b600060e083016000830151848203600086015261303c8282612da8565b915050602083015184820360208601526130568282612da8565b915050604083015161306b6040860182612de1565b50606083015161307e6060860182612de1565b5060808301516130916080860182612de1565b5060a08301516130a460a0860182612df0565b5060c083015184820360c08601526130bc8282612e5f565b9150508091505092915050565b600060208201905081810360008301526130e3818461301f565b905092915050565b600060208284031215613101576131006128c0565b5b600061310f84828501612b16565b91505092915050565b61312181612a9c565b82525050565b600060208201905061313c6000830184613118565b92915050565b61314b8161294f565b811461315657600080fd5b50565b60008135905061316881613142565b92915050565b60008060408385031215613185576131846128c0565b5b600061319385828601612b16565b92505060206131a485828601613159565b9150509250929050565b600067ffffffffffffffff8211156131c9576131c8612bc8565b5b6131d2826129d4565b9050602081019050919050565b60006131f26131ed846131ae565b612c28565b90508281526020810184848401111561320e5761320d612bc3565b5b613219848285612c74565b509392505050565b600082601f83011261323657613235612bbe565b5b81356132468482602086016131df565b91505092915050565b60008060008060808587031215613269576132686128c0565b5b600061327787828801612b16565b945050602061328887828801612b16565b935050604061329987828801612abd565b925050606085013567ffffffffffffffff8111156132ba576132b96128c5565b5b6132c687828801613221565b91505092959194509250565b600080604083850312156132e9576132e86128c0565b5b60006132f785828601612b16565b925050602061330885828601612b16565b9150509250929050565b60008060408385031215613329576133286128c0565b5b600061333785828601612abd565b925050602061334885828601613159565b9150509250929050565b7f4e487b7100000000000000000000000000000000000000000000000000000000600052602260045260246000fd5b6000600282049050600182168061339957607f821691505b602082108114156133ad576133ac613352565b5b50919050565b7f4552433732313a20617070726f76616c20746f2063757272656e74206f776e6560008201527f7200000000000000000000000000000000000000000000000000000000000000602082015250565b600061340f602183612990565b915061341a826133b3565b604082019050919050565b6000602082019050818103600083015261343e81613402565b9050919050565b7f4552433732313a20617070726f76652063616c6c6572206973206e6f7420746f60008201527f6b656e206f776e6572206e6f7220617070726f76656420666f7220616c6c0000602082015250565b60006134a1603e83612990565b91506134ac82613445565b604082019050919050565b600060208201905081810360008301526134d081613494565b9050919050565b7f4552433732313a2063616c6c6572206973206e6f7420746f6b656e206f776e6560008201527f72206e6f7220617070726f766564000000000000000000000000000000000000602082015250565b6000613533602e83612990565b915061353e826134d7565b604082019050919050565b6000602082019050818103600083015261356281613526565b9050919050565b7f4e487b7100000000000000000000000000000000000000000000000000000000600052601160045260246000fd5b60006135a382612a9c565b91506135ae83612a9c565b9250828210156135c1576135c0613569565b5b828203905092915050565b7f4e487b7100000000000000000000000000000000000000000000000000000000600052603260045260246000fd5b60008190508160005260206000209050919050565b6000815461361d81613381565b6136278186612d97565b94506001821660008114613642576001811461365457613687565b60ff1983168652602086019350613687565b61365d856135fb565b60005b8381101561367f57815481890152600182019150602081019050613660565b808801955050505b50505092915050565b60008160001c9050919050565b6000819050919050565b60006136ba6136b583613690565b61369d565b9050919050565b600060ff82169050919050565b60006136e16136dc83613690565b6136c1565b9050919050565b600081549050919050565b60008190508160005260206000209050919050565b600073ffffffffffffffffffffffffffffffffffffffff82169050919050565b600061373b61373683613690565b613708565b9050919050565b600061374e8254613728565b9050919050565b6000600182019050919050565b600061376d826136e8565b6137778185612e0a565b9350613782836136f3565b8060005b838110156137ba5761379782613742565b6137a18882612e3a565b97506137ac83613755565b925050600181019050613786565b5085935050505092915050565b600060e08301600080840185830360008701526137e48382613610565b9250506001840185830360208701526137fd8382613610565b92505060028401549050613810816136a7565b61381d6040870182612de1565b506003840154905061382e816136a7565b61383b6060870182612de1565b506004840154905061384c816136a7565b6138596080870182612de1565b506005840154905061386a816136ce565b61387760a0870182612df0565b506006840185830360c087015261388e8382613762565b925050819250505092915050565b600060208201905081810360008301526138b681846137c7565b905092915050565b60006138c982612a9c565b91506138d483612a9c565b9250827fffffffffffffffffffffffffffffffffffffffffffffffffffffffffffffffff0382111561390957613908613569565b5b828201905092915050565b7f4552433732313a20696e76616c696420746f6b656e2049440000000000000000600082015250565b600061394a601883612990565b915061395582613914565b602082019050919050565b600060208201905081810360008301526139798161393d565b9050919050565b7f4552433732313a2061646472657373207a65726f206973206e6f74206120766160008201527f6c6964206f776e65720000000000000000000000000000000000000000000000602082015250565b60006139dc602983612990565b91506139e782613980565b604082019050919050565b60006020820190508181036000830152613a0b816139cf565b9050919050565b600081905092915050565b7f7b226e616d65223a202200000000000000000000000000000000000000000000600082015250565b6000613a53600a83613a12565b9150613a5e82613a1d565b600a82019050919050565b60008154613a7681613381565b613a808186613a12565b94506001821660008114613a9b5760018114613aac57613adf565b60ff19831686528186019350613adf565b613ab5856135fb565b60005b83811015613ad757815481890152600182019150602081019050613ab8565b838801955050505b50505092915050565b7f202d2d204e465420233a20000000000000000000000000000000000000000000600082015250565b6000613b1e600b83613a12565b9150613b2982613ae8565b600b82019050919050565b6000613b3f82612985565b613b498185613a12565b9350613b598185602086016129a1565b80840191505092915050565b7f222c20226465736372697074696f6e223a2022416e2065706963204e4654222c60008201527f2022696d616765223a2022697066733a2f2f0000000000000000000000000000602082015250565b6000613bc1603283613a12565b9150613bcc82613b65565b603282019050919050565b7f227d000000000000000000000000000000000000000000000000000000000000600082015250565b6000613c0d600283613a12565b9150613c1882613bd7565b600282019050919050565b6000613c2e82613a46565b9150613c3a8286613a69565b9150613c4582613b11565b9150613c518285613b34565b9150613c5c82613bb4565b9150613c688284613a69565b9150613c7382613c00565b9150819050949350505050565b7f646174613a6170706c69636174696f6e2f6a736f6e3b6261736536342c000000600082015250565b6000613cb6601d83613a12565b9150613cc182613c80565b601d82019050919050565b6000613cd782613ca9565b9150613ce38284613b34565b915081905092915050565b7f54686973206964656120697320616c72656164792066696e69736865642e0000600082015250565b6000613d24601e83612990565b9150613d2f82613cee565b602082019050919050565b60006020820190508181036000830152613d5381613d17565b9050919050565b7f596f7520616c726561647920766f746564207468697320696465612e00000000600082015250565b6000613d90601c83612990565b9150613d9b82613d5a565b602082019050919050565b60006020820190508181036000830152613dbf81613d83565b9050919050565b6000613dd182612a9c565b91507fffffffffffffffffffffffffffffffffffffffffffffffffffffffffffffffff821415613e0457613e03613569565b5b600182019050919050565b7f4552433732313a207472616e736665722066726f6d20696e636f72726563742060008201527f6f776e6572000000000000000000000000000000000000000000000000000000602082015250565b6000613e6b602583612990565b9150613e7682613e0f565b604082019050919050565b60006020820190508181036000830152613e9a81613e5e565b9050919050565b7f4552433732313a207472616e7366657220746f20746865207a65726f2061646460008201527f7265737300000000000000000000000000000000000000000000000000000000602082015250565b6000613efd602483612990565b9150613f0882613ea1565b604082019050919050565b60006020820190508181036000830152613f2c81613ef0565b9050919050565b7f4552433732313a20617070726f766520746f2063616c6c657200000000000000600082015250565b6000613f69601983612990565b9150613f7482613f33565b602082019050919050565b60006020820190508181036000830152613f9881613f5c565b9050919050565b7f4552433732313a207472616e7366657220746f206e6f6e20455243373231526560008201527f63656976657220696d706c656d656e7465720000000000000000000000000000602082015250565b6000613ffb603283612990565b915061400682613f9f565b604082019050919050565b6000602082019050818103600083015261402a81613fee565b9050919050565b7f4e487b7100000000000000000000000000000000000000000000000000000000600052601260045260246000fd5b600061406b82612a9c565b915061407683612a9c565b92508261408657614085614031565b5b828204905092915050565b600061409c82612a9c565b91506140a783612a9c565b9250826140b7576140b6614031565b5b828206905092915050565b60006140cd82612a9c565b91506140d883612a9c565b9250817fffffffffffffffffffffffffffffffffffffffffffffffffffffffffffffffff048311821515161561411157614110613569565b5b828202905092915050565b6000606082019050818103600083015261413681866129e5565b90506141456020830185613118565b6141526040830184612a72565b949350505050565b600081519050919050565b600082825260208201905092915050565b60006141818261415a565b61418b8185614165565b935061419b8185602086016129a1565b6141a4816129d4565b840191505092915050565b60006080820190506141c46000830187612a72565b6141d16020830186612a72565b6141de6040830185613118565b81810360608301526141f08184614176565b905095945050505050565b60008151905061420a816128f6565b92915050565b600060208284031215614226576142256128c0565b5b6000614234848285016141fb565b91505092915050565b7f4552433732313a206d696e7420746f20746865207a65726f2061646472657373600082015250565b6000614273602083612990565b915061427e8261423d565b602082019050919050565b600060208201905081810360008301526142a281614266565b9050919050565b7f4552433732313a20746f6b656e20616c7265616479206d696e74656400000000600082015250565b60006142df601c83612990565b91506142ea826142a9565b602082019050919050565b6000602082019050818103600083015261430e816142d2565b905091905056fe416e204e465420772f20494420257320686173206265656e206d696e74656420746f2025734142434445464748494a4b4c4d4e4f505152535455565758595a6162636465666768696a6b6c6d6e6f707172737475767778797a303132333435363738392b2fa26469706673582212204f8aec97e1911d41d821c3e1b6677492e24e8b76b14947e77854833ee66e79b564736f6c63430008090033",
	"linkReferences": {},
	"deployedLinkReferences": {}
}