{
	"_format": "hh-sol-artifact-1",
	"contractName": "VotePortal",
	"sourceName": "contracts/Vote.sol",
	"abi": [
		{
			"inputs": [],
			"stateMutability": "nonpayable",
			"type": "constructor"
		},
		{
			"anonymous": false,
			"inputs": [
				{
					"indexed": true,
					"internalType": "address",
					"name": "owner",
					"type": "address"
				},
				{
					"indexed": true,
					"internalType": "address",
					"name": "approved",
					"type": "address"
				},
				{
					"indexed": true,
					"internalType": "uint256",
					"name": "tokenId",
					"type": "uint256"
				}
			],
			"name": "Approval",
			"type": "event"
		},
		{
			"anonymous": false,
			"inputs": [
				{
					"indexed": true,
					"internalType": "address",
					"name": "owner",
					"type": "address"
				},
				{
					"indexed": true,
					"internalType": "address",
					"name": "operator",
					"type": "address"
				},
				{
					"indexed": false,
					"internalType": "bool",
					"name": "approved",
					"type": "bool"
				}
			],
			"name": "ApprovalForAll",
			"type": "event"
		},
		{
			"anonymous": false,
			"inputs": [
				{
					"components": [
						{
							"internalType": "string",
							"name": "name",
							"type": "string"
						},
						{
							"internalType": "string",
							"name": "ideaURL",
							"type": "string"
						},
						{
							"internalType": "uint256",
							"name": "totalVotes",
							"type": "uint256"
						},
						{
							"internalType": "uint256",
							"name": "badVotes",
							"type": "uint256"
						},
						{
							"internalType": "uint256",
							"name": "goodVotes",
							"type": "uint256"
						},
						{
							"internalType": "bool",
							"name": "isFinished",
							"type": "bool"
						},
						{
							"internalType": "address[]",
							"name": "votedAddresses",
							"type": "address[]"
						}
					],
					"indexed": false,
					"internalType": "struct VotePortal.idea",
					"name": "Idea",
					"type": "tuple"
				}
			],
			"name": "FinishVote",
			"type": "event"
		},
		{
			"anonymous": false,
			"inputs": [
				{
					"indexed": true,
					"internalType": "address",
					"name": "from",
					"type": "address"
				},
				{
					"components": [
						{
							"internalType": "string",
							"name": "name",
							"type": "string"
						},
						{
							"internalType": "string",
							"name": "ideaURL",
							"type": "string"
						},
						{
							"internalType": "uint256",
							"name": "totalVotes",
							"type": "uint256"
						},
						{
							"internalType": "uint256",
							"name": "badVotes",
							"type": "uint256"
						},
						{
							"internalType": "uint256",
							"name": "goodVotes",
							"type": "uint256"
						},
						{
							"internalType": "bool",
							"name": "isFinished",
							"type": "bool"
						},
						{
							"internalType": "address[]",
							"name": "votedAddresses",
							"type": "address[]"
						}
					],
					"indexed": false,
					"internalType": "struct VotePortal.idea",
					"name": "Idea",
					"type": "tuple"
				}
			],
			"name": "NewIdea",
			"type": "event"
		},
		{
			"anonymous": false,
			"inputs": [
				{
					"components": [
						{
							"internalType": "string",
							"name": "name",
							"type": "string"
						},
						{
							"internalType": "string",
							"name": "ideaURL",
							"type": "string"
						},
						{
							"internalType": "uint256",
							"name": "totalVotes",
							"type": "uint256"
						},
						{
							"internalType": "uint256",
							"name": "badVotes",
							"type": "uint256"
						},
						{
							"internalType": "uint256",
							"name": "goodVotes",
							"type": "uint256"
						},
						{
							"internalType": "bool",
							"name": "isFinished",
							"type": "bool"
						},
						{
							"internalType": "address[]",
							"name": "votedAddresses",
							"type": "address[]"
						}
					],
					"indexed": false,
					"internalType": "struct VotePortal.idea",
					"name": "Idea",
					"type": "tuple"
				}
			],
			"name": "NewNFT",
			"type": "event"
		},
		{
			"anonymous": false,
			"inputs": [
				{
					"indexed": true,
					"internalType": "address",
					"name": "from",
					"type": "address"
				},
				{
					"indexed": true,
					"internalType": "address",
					"name": "to",
					"type": "address"
				},
				{
					"indexed": true,
					"internalType": "uint256",
					"name": "tokenId",
					"type": "uint256"
				}
			],
			"name": "Transfer",
			"type": "event"
		},
		{
			"anonymous": false,
			"inputs": [
				{
					"indexed": true,
					"internalType": "address",
					"name": "from",
					"type": "address"
				},
				{
					"components": [
						{
							"internalType": "string",
							"name": "name",
							"type": "string"
						},
						{
							"internalType": "string",
							"name": "ideaURL",
							"type": "string"
						},
						{
							"internalType": "uint256",
							"name": "totalVotes",
							"type": "uint256"
						},
						{
							"internalType": "uint256",
							"name": "badVotes",
							"type": "uint256"
						},
						{
							"internalType": "uint256",
							"name": "goodVotes",
							"type": "uint256"
						},
						{
							"internalType": "bool",
							"name": "isFinished",
							"type": "bool"
						},
						{
							"internalType": "address[]",
							"name": "votedAddresses",
							"type": "address[]"
						}
					],
					"indexed": false,
					"internalType": "struct VotePortal.idea",
					"name": "Idea",
					"type": "tuple"
				}
			],
			"name": "VoteSomething",
			"type": "event"
		},
		{
			"inputs": [
				{
					"internalType": "string",
					"name": "_name",
					"type": "string"
				},
				{
					"internalType": "string",
					"name": "_ideaURL",
					"type": "string"
				}
			],
			"name": "addIdea",
			"outputs": [],
			"stateMutability": "nonpayable",
			"type": "function"
		},
		{
			"inputs": [
				{
					"internalType": "address",
					"name": "to",
					"type": "address"
				},
				{
					"internalType": "uint256",
					"name": "tokenId",
					"type": "uint256"
				}
			],
			"name": "approve",
			"outputs": [],
			"stateMutability": "nonpayable",
			"type": "function"
		},
		{
			"inputs": [
				{
					"internalType": "address",
					"name": "owner",
					"type": "address"
				}
			],
			"name": "balanceOf",
			"outputs": [
				{
					"internalType": "uint256",
					"name": "",
					"type": "uint256"
				}
			],
			"stateMutability": "view",
			"type": "function"
		},
		{
			"inputs": [],
			"name": "getAllIdeas",
			"outputs": [
				{
					"components": [
						{
							"internalType": "string",
							"name": "name",
							"type": "string"
						},
						{
							"internalType": "string",
							"name": "ideaURL",
							"type": "string"
						},
						{
							"internalType": "uint256",
							"name": "totalVotes",
							"type": "uint256"
						},
						{
							"internalType": "uint256",
							"name": "badVotes",
							"type": "uint256"
						},
						{
							"internalType": "uint256",
							"name": "goodVotes",
							"type": "uint256"
						},
						{
							"internalType": "bool",
							"name": "isFinished",
							"type": "bool"
						},
						{
							"internalType": "address[]",
							"name": "votedAddresses",
							"type": "address[]"
						}
					],
					"internalType": "struct VotePortal.idea[]",
					"name": "",
					"type": "tuple[]"
				}
			],
			"stateMutability": "view",
			"type": "function"
		},
		{
			"inputs": [
				{
					"internalType": "uint256",
					"name": "tokenId",
					"type": "uint256"
				}
			],
			"name": "getApproved",
			"outputs": [
				{
					"internalType": "address",
					"name": "",
					"type": "address"
				}
			],
			"stateMutability": "view",
			"type": "function"
		},
		{
			"inputs": [
				{
					"internalType": "uint256",
					"name": "_index",
					"type": "uint256"
				}
			],
			"name": "getIdea",
			"outputs": [
				{
					"components": [
						{
							"internalType": "string",
							"name": "name",
							"type": "string"
						},
						{
							"internalType": "string",
							"name": "ideaURL",
							"type": "string"
						},
						{
							"internalType": "uint256",
							"name": "totalVotes",
							"type": "uint256"
						},
						{
							"internalType": "uint256",
							"name": "badVotes",
							"type": "uint256"
						},
						{
							"internalType": "uint256",
							"name": "goodVotes",
							"type": "uint256"
						},
						{
							"internalType": "bool",
							"name": "isFinished",
							"type": "bool"
						},
						{
							"internalType": "address[]",
							"name": "votedAddresses",
							"type": "address[]"
						}
					],
					"internalType": "struct VotePortal.idea",
					"name": "",
					"type": "tuple"
				}
			],
			"stateMutability": "view",
			"type": "function"
		},
		{
			"inputs": [
				{
					"internalType": "address",
					"name": "owner",
					"type": "address"
				},
				{
					"internalType": "address",
					"name": "operator",
					"type": "address"
				}
			],
			"name": "isApprovedForAll",
			"outputs": [
				{
					"internalType": "bool",
					"name": "",
					"type": "bool"
				}
			],
			"stateMutability": "view",
			"type": "function"
		},
		{
			"inputs": [
				{
					"internalType": "string",
					"name": "name",
					"type": "string"
				},
				{
					"internalType": "string",
					"name": "ideaURI",
					"type": "string"
				}
			],
			"name": "mintIpfsNFT",
			"outputs": [],
			"stateMutability": "nonpayable",
			"type": "function"
		},
		{
			"inputs": [],
			"name": "minter",
			"outputs": [
				{
					"internalType": "address",
					"name": "",
					"type": "address"
				}
			],
			"stateMutability": "view",
			"type": "function"
		},
		{
			"inputs": [],
			"name": "name",
			"outputs": [
				{
					"internalType": "string",
					"name": "",
					"type": "string"
				}
			],
			"stateMutability": "view",
			"type": "function"
		},
		{
			"inputs": [
				{
					"internalType": "uint256",
					"name": "tokenId",
					"type": "uint256"
				}
			],
			"name": "ownerOf",
			"outputs": [
				{
					"internalType": "address",
					"name": "",
					"type": "address"
				}
			],
			"stateMutability": "view",
			"type": "function"
		},
		{
			"inputs": [
				{
					"internalType": "address",
					"name": "from",
					"type": "address"
				},
				{
					"internalType": "address",
					"name": "to",
					"type": "address"
				},
				{
					"internalType": "uint256",
					"name": "tokenId",
					"type": "uint256"
				}
			],
			"name": "safeTransferFrom",
			"outputs": [],
			"stateMutability": "nonpayable",
			"type": "function"
		},
		{
			"inputs": [
				{
					"internalType": "address",
					"name": "from",
					"type": "address"
				},
				{
					"internalType": "address",
					"name": "to",
					"type": "address"
				},
				{
					"internalType": "uint256",
					"name": "tokenId",
					"type": "uint256"
				},
				{
					"internalType": "bytes",
					"name": "data",
					"type": "bytes"
				}
			],
			"name": "safeTransferFrom",
			"outputs": [],
			"stateMutability": "nonpayable",
			"type": "function"
		},
		{
			"inputs": [
				{
					"internalType": "address",
					"name": "operator",
					"type": "address"
				},
				{
					"internalType": "bool",
					"name": "approved",
					"type": "bool"
				}
			],
			"name": "setApprovalForAll",
			"outputs": [],
			"stateMutability": "nonpayable",
			"type": "function"
		},
		{
			"inputs": [
				{
					"internalType": "bytes4",
					"name": "interfaceId",
					"type": "bytes4"
				}
			],
			"name": "supportsInterface",
			"outputs": [
				{
					"internalType": "bool",
					"name": "",
					"type": "bool"
				}
			],
			"stateMutability": "view",
			"type": "function"
		},
		{
			"inputs": [],
			"name": "symbol",
			"outputs": [
				{
					"internalType": "string",
					"name": "",
					"type": "string"
				}
			],
			"stateMutability": "view",
			"type": "function"
		},
		{
			"inputs": [
				{
					"internalType": "uint256",
					"name": "_tokenId",
					"type": "uint256"
				}
			],
			"name": "tokenURI",
			"outputs": [
				{
					"internalType": "string",
					"name": "",
					"type": "string"
				}
			],
			"stateMutability": "view",
			"type": "function"
		},
		{
			"inputs": [
				{
					"internalType": "address",
					"name": "from",
					"type": "address"
				},
				{
					"internalType": "address",
					"name": "to",
					"type": "address"
				},
				{
					"internalType": "uint256",
					"name": "tokenId",
					"type": "uint256"
				}
			],
			"name": "transferFrom",
			"outputs": [],
			"stateMutability": "nonpayable",
			"type": "function"
		},
		{
			"inputs": [
				{
					"internalType": "uint256",
					"name": "idea_index",
					"type": "uint256"
				},
				{
					"internalType": "bool",
					"name": "isGood",
					"type": "bool"
				}
			],
			"name": "voteIdea",
			"outputs": [],
			"stateMutability": "nonpayable",
			"type": "function"
		}
	],
	"bytecode": "0x60806040523480156200001157600080fd5b506040518060400160405280600381526020017f4e465400000000000000000000000000000000000000000000000000000000008152506040518060400160405280600381526020017f6e6674000000000000000000000000000000000000000000000000000000000081525081600090805190602001906200009692919062000210565b508060019080519060200190620000af92919062000210565b505050620000fd6040518060400160405280601881526020017f54686973206973206d79204e465420636f6e74726163742e00000000000000008152506200014460201b620015851760201c565b33600860006101000a81548173ffffffffffffffffffffffffffffffffffffffff021916908373ffffffffffffffffffffffffffffffffffffffff160217905550620003ed565b620001e4816040516024016200015b919062000364565b6040516020818303038152906040527f41304fac000000000000000000000000000000000000000000000000000000007bffffffffffffffffffffffffffffffffffffffffffffffffffffffff19166020820180517bffffffffffffffffffffffffffffffffffffffffffffffffffffffff8381831617835250505050620001e760201b60201c565b50565b60008151905060006a636f6e736f6c652e6c6f679050602083016000808483855afa5050505050565b8280546200021e90620003b7565b90600052602060002090601f0160209004810192826200024257600085556200028e565b82601f106200025d57805160ff19168380011785556200028e565b828001600101855582156200028e579182015b828111156200028d57825182559160200191906001019062000270565b5b5090506200029d9190620002a1565b5090565b5b80821115620002bc576000816000905550600101620002a2565b5090565b600081519050919050565b600082825260208201905092915050565b60005b83811015620002fc578082015181840152602081019050620002df565b838111156200030c576000848401525b50505050565b6000601f19601f8301169050919050565b60006200033082620002c0565b6200033c8185620002cb565b93506200034e818560208601620002dc565b620003598162000312565b840191505092915050565b6000602082019050818103600083015262000380818462000323565b905092915050565b7f4e487b7100000000000000000000000000000000000000000000000000000000600052602260045260246000fd5b60006002820490506001821680620003d057607f821691505b60208210811415620003e757620003e662000388565b5b50919050565b61442280620003fd6000396000f3fe608060405234801561001057600080fd5b50600436106101215760003560e01c806344de6b2f116100ad578063b88d4fde11610071578063b88d4fde1461031a578063c87b56dd14610336578063e985e9c514610366578063eb00195d14610396578063f10caac7146103b257610121565b806344de6b2f146102505780636352211e1461028057806370a08231146102b057806395d89b41146102e0578063a22cb465146102fe57610121565b8063095ea7b3116100f4578063095ea7b3146101c257806323b872dd146101de57806334e144bd146101fa5780633a9e6af01461021657806342842e0e1461023457610121565b806301ffc9a71461012657806306fdde03146101565780630754617214610174578063081812fc14610192575b600080fd5b610140600480360381019061013b9190612994565b6103ce565b60405161014d91906129dc565b60405180910390f35b61015e6104b0565b60405161016b9190612a90565b60405180910390f35b61017c610542565b6040516101899190612af3565b60405180910390f35b6101ac60048036038101906101a79190612b44565b610568565b6040516101b99190612af3565b60405180910390f35b6101dc60048036038101906101d79190612b9d565b6105ae565b005b6101f860048036038101906101f39190612bdd565b6106c6565b005b610214600480360381019061020f9190612d65565b610726565b005b61021e610908565b60405161022b919061306f565b60405180910390f35b61024e60048036038101906102499190612bdd565b610b52565b005b61026a60048036038101906102659190612b44565b610b72565b604051610277919061313b565b60405180910390f35b61029a60048036038101906102959190612b44565b610d99565b6040516102a79190612af3565b60405180910390f35b6102ca60048036038101906102c5919061315d565b610e4b565b6040516102d79190613199565b60405180910390f35b6102e8610f03565b6040516102f59190612a90565b60405180910390f35b610318600480360381019061031391906131e0565b610f95565b005b610334600480360381019061032f91906132c1565b610fab565b005b610350600480360381019061034b9190612b44565b61100d565b60405161035d9190612a90565b60405180910390f35b610380600480360381019061037b9190613344565b6110bd565b60405161038d91906129dc565b60405180910390f35b6103b060048036038101906103ab9190612d65565b611151565b005b6103cc60048036038101906103c79190613384565b611217565b005b60007f80ac58cd000000000000000000000000000000000000000000000000000000007bffffffffffffffffffffffffffffffffffffffffffffffffffffffff1916827bffffffffffffffffffffffffffffffffffffffffffffffffffffffff1916148061049957507f5b5e139f000000000000000000000000000000000000000000000000000000007bffffffffffffffffffffffffffffffffffffffffffffffffffffffff1916827bffffffffffffffffffffffffffffffffffffffffffffffffffffffff1916145b806104a957506104a88261161e565b5b9050919050565b6060600080546104bf906133f3565b80601f01602080910402602001604051908101604052809291908181526020018280546104eb906133f3565b80156105385780601f1061050d57610100808354040283529160200191610538565b820191906000526020600020905b81548152906001019060200180831161051b57829003601f168201915b5050505050905090565b600860009054906101000a900473ffffffffffffffffffffffffffffffffffffffff1681565b600061057382611688565b6004600083815260200190815260200160002060009054906101000a900473ffffffffffffffffffffffffffffffffffffffff169050919050565b60006105b982610d99565b90508073ffffffffffffffffffffffffffffffffffffffff168373ffffffffffffffffffffffffffffffffffffffff16141561062a576040517f08c379a000000000000000000000000000000000000000000000000000000000815260040161062190613497565b60405180910390fd5b8073ffffffffffffffffffffffffffffffffffffffff166106496116d3565b73ffffffffffffffffffffffffffffffffffffffff1614806106785750610677816106726116d3565b6110bd565b5b6106b7576040517f08c379a00000000000000000000000000000000000000000000000000000000081526004016106ae90613529565b60405180910390fd5b6106c183836116db565b505050565b6106d76106d16116d3565b82611794565b610716576040517f08c379a000000000000000000000000000000000000000000000000000000000815260040161070d906135bb565b60405180910390fd5b610721838383611829565b505050565b600b6040518060e00160405280848152602001838152602001600081526020016000815260200160008152602001600015158152602001600067ffffffffffffffff81111561077857610777612c3a565b5b6040519080825280602002602001820160405280156107a65781602001602082028036833780820191505090505b50815250908060018154018082558091505060019003906000526020600020906007020160009091909190915060008201518160000190805190602001906107ef9291906127bc565b50602082015181600101908051906020019061080c9291906127bc565b5060408201518160020155606082015181600301556080820151816004015560a08201518160050160006101000a81548160ff02191690831515021790555060c0820151816006019080519060200190610867929190612842565b5050503373ffffffffffffffffffffffffffffffffffffffff167f16e2590b4dcf41fd1fda66434a5abf1aa419c8e534a284a81d0a9ed801564c58600b6001600b805490506108b6919061360a565b815481106108c7576108c661363e565b5b90600052602060002090600702016040516108e2919061390e565b60405180910390a26001600960008282546108fd9190613930565b925050819055505050565b6060600b805480602002602001604051908101604052809291908181526020016000905b82821015610b4957838290600052602060002090600702016040518060e001604052908160008201805461095f906133f3565b80601f016020809104026020016040519081016040528092919081815260200182805461098b906133f3565b80156109d85780601f106109ad576101008083540402835291602001916109d8565b820191906000526020600020905b8154815290600101906020018083116109bb57829003601f168201915b505050505081526020016001820180546109f1906133f3565b80601f0160208091040260200160405190810160405280929190818152602001828054610a1d906133f3565b8015610a6a5780601f10610a3f57610100808354040283529160200191610a6a565b820191906000526020600020905b815481529060010190602001808311610a4d57829003601f168201915b505050505081526020016002820154815260200160038201548152602001600482015481526020016005820160009054906101000a900460ff1615151515815260200160068201805480602002602001604051908101604052809291908181526020018280548015610b3157602002820191906000526020600020905b8160009054906101000a900473ffffffffffffffffffffffffffffffffffffffff1673ffffffffffffffffffffffffffffffffffffffff1681526020019060010190808311610ae7575b5050505050815250508152602001906001019061092c565b50505050905090565b610b6d83838360405180602001604052806000815250610fab565b505050565b610b7a6128cc565b600b8281548110610b8e57610b8d61363e565b5b90600052602060002090600702016040518060e0016040529081600082018054610bb7906133f3565b80601f0160208091040260200160405190810160405280929190818152602001828054610be3906133f3565b8015610c305780601f10610c0557610100808354040283529160200191610c30565b820191906000526020600020905b815481529060010190602001808311610c1357829003601f168201915b50505050508152602001600182018054610c49906133f3565b80601f0160208091040260200160405190810160405280929190818152602001828054610c75906133f3565b8015610cc25780601f10610c9757610100808354040283529160200191610cc2565b820191906000526020600020905b815481529060010190602001808311610ca557829003601f168201915b505050505081526020016002820154815260200160038201548152602001600482015481526020016005820160009054906101000a900460ff1615151515815260200160068201805480602002602001604051908101604052809291908181526020018280548015610d8957602002820191906000526020600020905b8160009054906101000a900473ffffffffffffffffffffffffffffffffffffffff1673ffffffffffffffffffffffffffffffffffffffff1681526020019060010190808311610d3f575b5050505050815250509050919050565b6000806002600084815260200190815260200160002060009054906101000a900473ffffffffffffffffffffffffffffffffffffffff169050600073ffffffffffffffffffffffffffffffffffffffff168173ffffffffffffffffffffffffffffffffffffffff161415610e42576040517f08c379a0000000000000000000000000000000000000000000000000000000008152600401610e39906139d2565b60405180910390fd5b80915050919050565b60008073ffffffffffffffffffffffffffffffffffffffff168273ffffffffffffffffffffffffffffffffffffffff161415610ebc576040517f08c379a0000000000000000000000000000000000000000000000000000000008152600401610eb390613a64565b60405180910390fd5b600360008373ffffffffffffffffffffffffffffffffffffffff1673ffffffffffffffffffffffffffffffffffffffff168152602001908152602001600020549050919050565b606060018054610f12906133f3565b80601f0160208091040260200160405190810160405280929190818152602001828054610f3e906133f3565b8015610f8b5780601f10610f6057610100808354040283529160200191610f8b565b820191906000526020600020905b815481529060010190602001808311610f6e57829003601f168201915b5050505050905090565b610fa7610fa06116d3565b8383611a90565b5050565b610fbc610fb66116d3565b83611794565b610ffb576040517f08c379a0000000000000000000000000000000000000000000000000000000008152600401610ff2906135bb565b60405180910390fd5b61100784848484611bfd565b50505050565b6060600061108d600a84815481106110285761102761363e565b5b906000526020600020906002020160000161104285611c59565b600a86815481106110565761105561363e565b5b906000526020600020906002020160010160405160200161107993929190613c95565b604051602081830303815290604052611dba565b90506000816040516020016110a29190613d3e565b60405160208183030381529060405290508092505050919050565b6000600560008473ffffffffffffffffffffffffffffffffffffffff1673ffffffffffffffffffffffffffffffffffffffff16815260200190815260200160002060008373ffffffffffffffffffffffffffffffffffffffff1673ffffffffffffffffffffffffffffffffffffffff16815260200190815260200160002060009054906101000a900460ff16905092915050565b600061115d6007611f33565b90506111693382611f41565b600a604051806040016040528085815260200184815250908060018154018082558091505060019003906000526020600020906002020160009091909190915060008201518160000190805190602001906111c59291906127bc565b5060208201518160010190805190602001906111e29291906127bc565b505050611208604051806060016040528060258152602001614388602591398233611f5f565b6112126007611ffe565b505050565b600b828154811061122b5761122a61363e565b5b906000526020600020906007020160050160009054906101000a900460ff161561128a576040517f08c379a000000000000000000000000000000000000000000000000000000000815260040161128190613dac565b60405180910390fd5b600860009054906101000a900473ffffffffffffffffffffffffffffffffffffffff1673ffffffffffffffffffffffffffffffffffffffff163373ffffffffffffffffffffffffffffffffffffffff1614156112ee576112e982612014565b611581565b60005b600b83815481106113055761130461363e565b5b906000526020600020906007020160060180549050811015611404573373ffffffffffffffffffffffffffffffffffffffff16600b848154811061134c5761134b61363e565b5b9060005260206000209060070201600601828154811061136f5761136e61363e565b5b9060005260206000200160009054906101000a900473ffffffffffffffffffffffffffffffffffffffff1673ffffffffffffffffffffffffffffffffffffffff1614156113f1576040517f08c379a00000000000000000000000000000000000000000000000000000000081526004016113e890613e18565b60405180910390fd5b80806113fc90613e38565b9150506112f1565b50801561144d576001600b83815481106114215761142061363e565b5b906000526020600020906007020160040160008282546114419190613930565b9250508190555061148b565b6001600b83815481106114635761146261363e565b5b906000526020600020906007020160030160008282546114839190613930565b925050819055505b3373ffffffffffffffffffffffffffffffffffffffff167f8b403bf090090d2f473c8692b491c504301de9bb9137d29e7105a29650f9ae4e600b84815481106114d7576114d661363e565b5b90600052602060002090600702016040516114f2919061390e565b60405180910390a2600b828154811061150e5761150d61363e565b5b9060005260206000209060070201600601339080600181540180825580915050600190039060005260206000200160009091909190916101000a81548173ffffffffffffffffffffffffffffffffffffffff021916908373ffffffffffffffffffffffffffffffffffffffff1602179055505b5050565b61161b816040516024016115999190612a90565b6040516020818303038152906040527f41304fac000000000000000000000000000000000000000000000000000000007bffffffffffffffffffffffffffffffffffffffffffffffffffffffff19166020820180517bffffffffffffffffffffffffffffffffffffffffffffffffffffffff838183161783525050505061232e565b50565b60007f01ffc9a7000000000000000000000000000000000000000000000000000000007bffffffffffffffffffffffffffffffffffffffffffffffffffffffff1916827bffffffffffffffffffffffffffffffffffffffffffffffffffffffff1916149050919050565b61169181612357565b6116d0576040517f08c379a00000000000000000000000000000000000000000000000000000000081526004016116c7906139d2565b60405180910390fd5b50565b600033905090565b816004600083815260200190815260200160002060006101000a81548173ffffffffffffffffffffffffffffffffffffffff021916908373ffffffffffffffffffffffffffffffffffffffff160217905550808273ffffffffffffffffffffffffffffffffffffffff1661174e83610d99565b73ffffffffffffffffffffffffffffffffffffffff167f8c5be1e5ebec7d5bd14f71427d1e84f3dd0314c0f7b2291e5b200ac8c7c3b92560405160405180910390a45050565b6000806117a083610d99565b90508073ffffffffffffffffffffffffffffffffffffffff168473ffffffffffffffffffffffffffffffffffffffff1614806117e257506117e181856110bd565b5b8061182057508373ffffffffffffffffffffffffffffffffffffffff1661180884610568565b73ffffffffffffffffffffffffffffffffffffffff16145b91505092915050565b8273ffffffffffffffffffffffffffffffffffffffff1661184982610d99565b73ffffffffffffffffffffffffffffffffffffffff161461189f576040517f08c379a000000000000000000000000000000000000000000000000000000000815260040161189690613ef3565b60405180910390fd5b600073ffffffffffffffffffffffffffffffffffffffff168273ffffffffffffffffffffffffffffffffffffffff16141561190f576040517f08c379a000000000000000000000000000000000000000000000000000000000815260040161190690613f85565b60405180910390fd5b61191a8383836123c3565b6119256000826116db565b6001600360008573ffffffffffffffffffffffffffffffffffffffff1673ffffffffffffffffffffffffffffffffffffffff1681526020019081526020016000206000828254611975919061360a565b925050819055506001600360008473ffffffffffffffffffffffffffffffffffffffff1673ffffffffffffffffffffffffffffffffffffffff16815260200190815260200160002060008282546119cc9190613930565b92505081905550816002600083815260200190815260200160002060006101000a81548173ffffffffffffffffffffffffffffffffffffffff021916908373ffffffffffffffffffffffffffffffffffffffff160217905550808273ffffffffffffffffffffffffffffffffffffffff168473ffffffffffffffffffffffffffffffffffffffff167fddf252ad1be2c89b69c2b068fc378daa952ba7f163c4a11628f55a4df523b3ef60405160405180910390a4611a8b8383836123c8565b505050565b8173ffffffffffffffffffffffffffffffffffffffff168373ffffffffffffffffffffffffffffffffffffffff161415611aff576040517f08c379a0000000000000000000000000000000000000000000000000000000008152600401611af690613ff1565b60405180910390fd5b80600560008573ffffffffffffffffffffffffffffffffffffffff1673ffffffffffffffffffffffffffffffffffffffff16815260200190815260200160002060008473ffffffffffffffffffffffffffffffffffffffff1673ffffffffffffffffffffffffffffffffffffffff16815260200190815260200160002060006101000a81548160ff0219169083151502179055508173ffffffffffffffffffffffffffffffffffffffff168373ffffffffffffffffffffffffffffffffffffffff167f17307eab39ab6107e8899845ad3d59bd9653f200f220920489ca2b5937696c3183604051611bf091906129dc565b60405180910390a3505050565b611c08848484611829565b611c14848484846123cd565b611c53576040517f08c379a0000000000000000000000000000000000000000000000000000000008152600401611c4a90614083565b60405180910390fd5b50505050565b60606000821415611ca1576040518060400160405280600181526020017f30000000000000000000000000000000000000000000000000000000000000008152509050611db5565b600082905060005b60008214611cd3578080611cbc90613e38565b915050600a82611ccc91906140d2565b9150611ca9565b60008167ffffffffffffffff811115611cef57611cee612c3a565b5b6040519080825280601f01601f191660200182016040528015611d215781602001600182028036833780820191505090505b5090505b60008514611dae57600182611d3a919061360a565b9150600a85611d499190614103565b6030611d559190613930565b60f81b818381518110611d6b57611d6a61363e565b5b60200101907effffffffffffffffffffffffffffffffffffffffffffffffffffffffffffff1916908160001a905350600a85611da791906140d2565b9450611d25565b8093505050505b919050565b6060600082511415611ddd57604051806020016040528060008152509050611f2e565b60006040518060600160405280604081526020016143ad6040913990506000600360028551611e0c9190613930565b611e1691906140d2565b6004611e229190614134565b90506000602082611e339190613930565b67ffffffffffffffff811115611e4c57611e4b612c3a565b5b6040519080825280601f01601f191660200182016040528015611e7e5781602001600182028036833780820191505090505b509050818152600183018586518101602084015b81831015611eed576003830192508251603f8160121c168501518253600182019150603f81600c1c168501518253600182019150603f8160061c168501518253600182019150603f8116850151825360018201915050611e92565b600389510660018114611f075760028114611f1757611f22565b613d3d60f01b6002830352611f22565b603d60f81b60018303525b50505050508093505050505b919050565b600081600001549050919050565b611f5b828260405180602001604052806000815250612564565b5050565b611ff9838383604051602401611f779392919061418e565b6040516020818303038152906040527f1c7ec448000000000000000000000000000000000000000000000000000000007bffffffffffffffffffffffffffffffffffffffffffffffffffffffff19166020820180517bffffffffffffffffffffffffffffffffffffffffffffffffffffffff838183161783525050505061232e565b505050565b6001816000016000828254019250508190555050565b6001600b828154811061202a5761202961363e565b5b906000526020600020906007020160050160006101000a81548160ff0219169083151502179055507ff477ea3d85514f6403c5321feb2bb7b9a5f09435127859c9d45cf836aff27f33600b82815481106120875761208661363e565b5b90600052602060002090600702016040516120a2919061390e565b60405180910390a1600b81815481106120be576120bd61363e565b5b906000526020600020906007020160030154600b82815481106120e4576120e361363e565b5b906000526020600020906007020160040154111561232b57600a6040518060400160405280600b848154811061211d5761211c61363e565b5b90600052602060002090600702016000018054612139906133f3565b80601f0160208091040260200160405190810160405280929190818152602001828054612165906133f3565b80156121b25780601f10612187576101008083540402835291602001916121b2565b820191906000526020600020905b81548152906001019060200180831161219557829003601f168201915b50505050508152602001600b84815481106121d0576121cf61363e565b5b906000526020600020906007020160010180546121ec906133f3565b80601f0160208091040260200160405190810160405280929190818152602001828054612218906133f3565b80156122655780601f1061223a57610100808354040283529160200191612265565b820191906000526020600020905b81548152906001019060200180831161224857829003601f168201915b5050505050815250908060018154018082558091505060019003906000526020600020906002020160009091909190915060008201518160000190805190602001906122b29291906127bc565b5060208201518160010190805190602001906122cf9291906127bc565b5050507f4c8d70cdfdf9d030fcdfb68e17f689d0ca64cf841ebc27c25ebd519de0d85141600b82815481106123075761230661363e565b5b9060005260206000209060070201604051612322919061390e565b60405180910390a15b50565b60008151905060006a636f6e736f6c652e6c6f679050602083016000808483855afa5050505050565b60008073ffffffffffffffffffffffffffffffffffffffff166002600084815260200190815260200160002060009054906101000a900473ffffffffffffffffffffffffffffffffffffffff1673ffffffffffffffffffffffffffffffffffffffff1614159050919050565b505050565b505050565b60006123ee8473ffffffffffffffffffffffffffffffffffffffff166125bf565b15612557578373ffffffffffffffffffffffffffffffffffffffff1663150b7a026124176116d3565b8786866040518563ffffffff1660e01b81526004016124399493929190614221565b602060405180830381600087803b15801561245357600080fd5b505af192505050801561248457506040513d601f19601f820116820180604052508101906124819190614282565b60015b612507573d80600081146124b4576040519150601f19603f3d011682016040523d82523d6000602084013e6124b9565b606091505b506000815114156124ff576040517f08c379a00000000000000000000000000000000000000000000000000000000081526004016124f690614083565b60405180910390fd5b805181602001fd5b63150b7a0260e01b7bffffffffffffffffffffffffffffffffffffffffffffffffffffffff1916817bffffffffffffffffffffffffffffffffffffffffffffffffffffffff19161491505061255c565b600190505b949350505050565b61256e83836125e2565b61257b60008484846123cd565b6125ba576040517f08c379a00000000000000000000000000000000000000000000000000000000081526004016125b190614083565b60405180910390fd5b505050565b6000808273ffffffffffffffffffffffffffffffffffffffff163b119050919050565b600073ffffffffffffffffffffffffffffffffffffffff168273ffffffffffffffffffffffffffffffffffffffff161415612652576040517f08c379a0000000000000000000000000000000000000000000000000000000008152600401612649906142fb565b60405180910390fd5b61265b81612357565b1561269b576040517f08c379a000000000000000000000000000000000000000000000000000000000815260040161269290614367565b60405180910390fd5b6126a7600083836123c3565b6001600360008473ffffffffffffffffffffffffffffffffffffffff1673ffffffffffffffffffffffffffffffffffffffff16815260200190815260200160002060008282546126f79190613930565b92505081905550816002600083815260200190815260200160002060006101000a81548173ffffffffffffffffffffffffffffffffffffffff021916908373ffffffffffffffffffffffffffffffffffffffff160217905550808273ffffffffffffffffffffffffffffffffffffffff16600073ffffffffffffffffffffffffffffffffffffffff167fddf252ad1be2c89b69c2b068fc378daa952ba7f163c4a11628f55a4df523b3ef60405160405180910390a46127b8600083836123c8565b5050565b8280546127c8906133f3565b90600052602060002090601f0160209004810192826127ea5760008555612831565b82601f1061280357805160ff1916838001178555612831565b82800160010185558215612831579182015b82811115612830578251825591602001919060010190612815565b5b50905061283e919061290b565b5090565b8280548282559060005260206000209081019282156128bb579160200282015b828111156128ba5782518260006101000a81548173ffffffffffffffffffffffffffffffffffffffff021916908373ffffffffffffffffffffffffffffffffffffffff16021790555091602001919060010190612862565b5b5090506128c8919061290b565b5090565b6040518060e001604052806060815260200160608152602001600081526020016000815260200160008152602001600015158152602001606081525090565b5b8082111561292457600081600090555060010161290c565b5090565b6000604051905090565b600080fd5b600080fd5b60007fffffffff0000000000000000000000000000000000000000000000000000000082169050919050565b6129718161293c565b811461297c57600080fd5b50565b60008135905061298e81612968565b92915050565b6000602082840312156129aa576129a9612932565b5b60006129b88482850161297f565b91505092915050565b60008115159050919050565b6129d6816129c1565b82525050565b60006020820190506129f160008301846129cd565b92915050565b600081519050919050565b600082825260208201905092915050565b60005b83811015612a31578082015181840152602081019050612a16565b83811115612a40576000848401525b50505050565b6000601f19601f8301169050919050565b6000612a62826129f7565b612a6c8185612a02565b9350612a7c818560208601612a13565b612a8581612a46565b840191505092915050565b60006020820190508181036000830152612aaa8184612a57565b905092915050565b600073ffffffffffffffffffffffffffffffffffffffff82169050919050565b6000612add82612ab2565b9050919050565b612aed81612ad2565b82525050565b6000602082019050612b086000830184612ae4565b92915050565b6000819050919050565b612b2181612b0e565b8114612b2c57600080fd5b50565b600081359050612b3e81612b18565b92915050565b600060208284031215612b5a57612b59612932565b5b6000612b6884828501612b2f565b91505092915050565b612b7a81612ad2565b8114612b8557600080fd5b50565b600081359050612b9781612b71565b92915050565b60008060408385031215612bb457612bb3612932565b5b6000612bc285828601612b88565b9250506020612bd385828601612b2f565b9150509250929050565b600080600060608486031215612bf657612bf5612932565b5b6000612c0486828701612b88565b9350506020612c1586828701612b88565b9250506040612c2686828701612b2f565b9150509250925092565b600080fd5b600080fd5b7f4e487b7100000000000000000000000000000000000000000000000000000000600052604160045260246000fd5b612c7282612a46565b810181811067ffffffffffffffff82111715612c9157612c90612c3a565b5b80604052505050565b6000612ca4612928565b9050612cb08282612c69565b919050565b600067ffffffffffffffff821115612cd057612ccf612c3a565b5b612cd982612a46565b9050602081019050919050565b82818337600083830152505050565b6000612d08612d0384612cb5565b612c9a565b905082815260208101848484011115612d2457612d23612c35565b5b612d2f848285612ce6565b509392505050565b600082601f830112612d4c57612d4b612c30565b5b8135612d5c848260208601612cf5565b91505092915050565b60008060408385031215612d7c57612d7b612932565b5b600083013567ffffffffffffffff811115612d9a57612d99612937565b5b612da685828601612d37565b925050602083013567ffffffffffffffff811115612dc757612dc6612937565b5b612dd385828601612d37565b9150509250929050565b600081519050919050565b600082825260208201905092915050565b6000819050602082019050919050565b600082825260208201905092915050565b6000612e25826129f7565b612e2f8185612e09565b9350612e3f818560208601612a13565b612e4881612a46565b840191505092915050565b612e5c81612b0e565b82525050565b612e6b816129c1565b82525050565b600081519050919050565b600082825260208201905092915050565b6000819050602082019050919050565b612ea681612ad2565b82525050565b6000612eb88383612e9d565b60208301905092915050565b6000602082019050919050565b6000612edc82612e71565b612ee68185612e7c565b9350612ef183612e8d565b8060005b83811015612f22578151612f098882612eac565b9750612f1483612ec4565b925050600181019050612ef5565b5085935050505092915050565b600060e0830160008301518482036000860152612f4c8282612e1a565b91505060208301518482036020860152612f668282612e1a565b9150506040830151612f7b6040860182612e53565b506060830151612f8e6060860182612e53565b506080830151612fa16080860182612e53565b5060a0830151612fb460a0860182612e62565b5060c083015184820360c0860152612fcc8282612ed1565b9150508091505092915050565b6000612fe58383612f2f565b905092915050565b6000602082019050919050565b600061300582612ddd565b61300f8185612de8565b93508360208202850161302185612df9565b8060005b8581101561305d578484038952815161303e8582612fd9565b945061304983612fed565b925060208a01995050600181019050613025565b50829750879550505050505092915050565b600060208201905081810360008301526130898184612ffa565b905092915050565b600060e08301600083015184820360008601526130ae8282612e1a565b915050602083015184820360208601526130c88282612e1a565b91505060408301516130dd6040860182612e53565b5060608301516130f06060860182612e53565b5060808301516131036080860182612e53565b5060a083015161311660a0860182612e62565b5060c083015184820360c086015261312e8282612ed1565b9150508091505092915050565b600060208201905081810360008301526131558184613091565b905092915050565b60006020828403121561317357613172612932565b5b600061318184828501612b88565b91505092915050565b61319381612b0e565b82525050565b60006020820190506131ae600083018461318a565b92915050565b6131bd816129c1565b81146131c857600080fd5b50565b6000813590506131da816131b4565b92915050565b600080604083850312156131f7576131f6612932565b5b600061320585828601612b88565b9250506020613216858286016131cb565b9150509250929050565b600067ffffffffffffffff82111561323b5761323a612c3a565b5b61324482612a46565b9050602081019050919050565b600061326461325f84613220565b612c9a565b9050828152602081018484840111156132805761327f612c35565b5b61328b848285612ce6565b509392505050565b600082601f8301126132a8576132a7612c30565b5b81356132b8848260208601613251565b91505092915050565b600080600080608085870312156132db576132da612932565b5b60006132e987828801612b88565b94505060206132fa87828801612b88565b935050604061330b87828801612b2f565b925050606085013567ffffffffffffffff81111561332c5761332b612937565b5b61333887828801613293565b91505092959194509250565b6000806040838503121561335b5761335a612932565b5b600061336985828601612b88565b925050602061337a85828601612b88565b9150509250929050565b6000806040838503121561339b5761339a612932565b5b60006133a985828601612b2f565b92505060206133ba858286016131cb565b9150509250929050565b7f4e487b7100000000000000000000000000000000000000000000000000000000600052602260045260246000fd5b6000600282049050600182168061340b57607f821691505b6020821081141561341f5761341e6133c4565b5b50919050565b7f4552433732313a20617070726f76616c20746f2063757272656e74206f776e6560008201527f7200000000000000000000000000000000000000000000000000000000000000602082015250565b6000613481602183612a02565b915061348c82613425565b604082019050919050565b600060208201905081810360008301526134b081613474565b9050919050565b7f4552433732313a20617070726f76652063616c6c6572206973206e6f7420746f60008201527f6b656e206f776e6572206e6f7220617070726f76656420666f7220616c6c0000602082015250565b6000613513603e83612a02565b915061351e826134b7565b604082019050919050565b6000602082019050818103600083015261354281613506565b9050919050565b7f4552433732313a2063616c6c6572206973206e6f7420746f6b656e206f776e6560008201527f72206e6f7220617070726f766564000000000000000000000000000000000000602082015250565b60006135a5602e83612a02565b91506135b082613549565b604082019050919050565b600060208201905081810360008301526135d481613598565b9050919050565b7f4e487b7100000000000000000000000000000000000000000000000000000000600052601160045260246000fd5b600061361582612b0e565b915061362083612b0e565b925082821015613633576136326135db565b5b828203905092915050565b7f4e487b7100000000000000000000000000000000000000000000000000000000600052603260045260246000fd5b60008190508160005260206000209050919050565b6000815461368f816133f3565b6136998186612e09565b945060018216600081146136b457600181146136c6576136f9565b60ff19831686526020860193506136f9565b6136cf8561366d565b60005b838110156136f1578154818901526001820191506020810190506136d2565b808801955050505b50505092915050565b60008160001c9050919050565b6000819050919050565b600061372c61372783613702565b61370f565b9050919050565b600060ff82169050919050565b600061375361374e83613702565b613733565b9050919050565b600081549050919050565b60008190508160005260206000209050919050565b600073ffffffffffffffffffffffffffffffffffffffff82169050919050565b60006137ad6137a883613702565b61377a565b9050919050565b60006137c0825461379a565b9050919050565b6000600182019050919050565b60006137df8261375a565b6137e98185612e7c565b93506137f483613765565b8060005b8381101561382c57613809826137b4565b6138138882612eac565b975061381e836137c7565b9250506001810190506137f8565b5085935050505092915050565b600060e08301600080840185830360008701526138568382613682565b92505060018401858303602087015261386f8382613682565b9250506002840154905061388281613719565b61388f6040870182612e53565b50600384015490506138a081613719565b6138ad6060870182612e53565b50600484015490506138be81613719565b6138cb6080870182612e53565b50600584015490506138dc81613740565b6138e960a0870182612e62565b506006840185830360c087015261390083826137d4565b925050819250505092915050565b600060208201905081810360008301526139288184613839565b905092915050565b600061393b82612b0e565b915061394683612b0e565b9250827fffffffffffffffffffffffffffffffffffffffffffffffffffffffffffffffff0382111561397b5761397a6135db565b5b828201905092915050565b7f4552433732313a20696e76616c696420746f6b656e2049440000000000000000600082015250565b60006139bc601883612a02565b91506139c782613986565b602082019050919050565b600060208201905081810360008301526139eb816139af565b9050919050565b7f4552433732313a2061646472657373207a65726f206973206e6f74206120766160008201527f6c6964206f776e65720000000000000000000000000000000000000000000000602082015250565b6000613a4e602983612a02565b9150613a59826139f2565b604082019050919050565b60006020820190508181036000830152613a7d81613a41565b9050919050565b600081905092915050565b7f7b226e616d65223a202200000000000000000000000000000000000000000000600082015250565b6000613ac5600a83613a84565b9150613ad082613a8f565b600a82019050919050565b60008154613ae8816133f3565b613af28186613a84565b94506001821660008114613b0d5760018114613b1e57613b51565b60ff19831686528186019350613b51565b613b278561366d565b60005b83811015613b4957815481890152600182019150602081019050613b2a565b838801955050505b50505092915050565b7f202d2d204e465420233a20000000000000000000000000000000000000000000600082015250565b6000613b90600b83613a84565b9150613b9b82613b5a565b600b82019050919050565b6000613bb1826129f7565b613bbb8185613a84565b9350613bcb818560208601612a13565b80840191505092915050565b7f222c20226465736372697074696f6e223a2022416e2065706963204e4654222c60008201527f2022696d616765223a2022697066733a2f2f0000000000000000000000000000602082015250565b6000613c33603283613a84565b9150613c3e82613bd7565b603282019050919050565b7f227d000000000000000000000000000000000000000000000000000000000000600082015250565b6000613c7f600283613a84565b9150613c8a82613c49565b600282019050919050565b6000613ca082613ab8565b9150613cac8286613adb565b9150613cb782613b83565b9150613cc38285613ba6565b9150613cce82613c26565b9150613cda8284613adb565b9150613ce582613c72565b9150819050949350505050565b7f646174613a6170706c69636174696f6e2f6a736f6e3b6261736536342c000000600082015250565b6000613d28601d83613a84565b9150613d3382613cf2565b601d82019050919050565b6000613d4982613d1b565b9150613d558284613ba6565b915081905092915050565b7f54686973206964656120697320616c72656164792066696e69736865642e0000600082015250565b6000613d96601e83612a02565b9150613da182613d60565b602082019050919050565b60006020820190508181036000830152613dc581613d89565b9050919050565b7f596f7520616c726561647920766f746564207468697320696465612e00000000600082015250565b6000613e02601c83612a02565b9150613e0d82613dcc565b602082019050919050565b60006020820190508181036000830152613e3181613df5565b9050919050565b6000613e4382612b0e565b91507fffffffffffffffffffffffffffffffffffffffffffffffffffffffffffffffff821415613e7657613e756135db565b5b600182019050919050565b7f4552433732313a207472616e736665722066726f6d20696e636f72726563742060008201527f6f776e6572000000000000000000000000000000000000000000000000000000602082015250565b6000613edd602583612a02565b9150613ee882613e81565b604082019050919050565b60006020820190508181036000830152613f0c81613ed0565b9050919050565b7f4552433732313a207472616e7366657220746f20746865207a65726f2061646460008201527f7265737300000000000000000000000000000000000000000000000000000000602082015250565b6000613f6f602483612a02565b9150613f7a82613f13565b604082019050919050565b60006020820190508181036000830152613f9e81613f62565b9050919050565b7f4552433732313a20617070726f766520746f2063616c6c657200000000000000600082015250565b6000613fdb601983612a02565b9150613fe682613fa5565b602082019050919050565b6000602082019050818103600083015261400a81613fce565b9050919050565b7f4552433732313a207472616e7366657220746f206e6f6e20455243373231526560008201527f63656976657220696d706c656d656e7465720000000000000000000000000000602082015250565b600061406d603283612a02565b915061407882614011565b604082019050919050565b6000602082019050818103600083015261409c81614060565b9050919050565b7f4e487b7100000000000000000000000000000000000000000000000000000000600052601260045260246000fd5b60006140dd82612b0e565b91506140e883612b0e565b9250826140f8576140f76140a3565b5b828204905092915050565b600061410e82612b0e565b915061411983612b0e565b925082614129576141286140a3565b5b828206905092915050565b600061413f82612b0e565b915061414a83612b0e565b9250817fffffffffffffffffffffffffffffffffffffffffffffffffffffffffffffffff0483118215151615614183576141826135db565b5b828202905092915050565b600060608201905081810360008301526141a88186612a57565b90506141b7602083018561318a565b6141c46040830184612ae4565b949350505050565b600081519050919050565b600082825260208201905092915050565b60006141f3826141cc565b6141fd81856141d7565b935061420d818560208601612a13565b61421681612a46565b840191505092915050565b60006080820190506142366000830187612ae4565b6142436020830186612ae4565b614250604083018561318a565b818103606083015261426281846141e8565b905095945050505050565b60008151905061427c81612968565b92915050565b60006020828403121561429857614297612932565b5b60006142a68482850161426d565b91505092915050565b7f4552433732313a206d696e7420746f20746865207a65726f2061646472657373600082015250565b60006142e5602083612a02565b91506142f0826142af565b602082019050919050565b60006020820190508181036000830152614314816142d8565b9050919050565b7f4552433732313a20746f6b656e20616c7265616479206d696e74656400000000600082015250565b6000614351601c83612a02565b915061435c8261431b565b602082019050919050565b6000602082019050818103600083015261438081614344565b905091905056fe416e204e465420772f20494420257320686173206265656e206d696e74656420746f2025734142434445464748494a4b4c4d4e4f505152535455565758595a6162636465666768696a6b6c6d6e6f707172737475767778797a303132333435363738392b2fa2646970667358221220b21177b24cdddad0d52f319fbcd0ecce7bb5efb88250ca7120a56c7b15cf909e64736f6c63430008090033",
	"linkReferences": {},
	"deployedLinkReferences": {}
}